{
  "_format": "hh-sol-artifact-1",
  "contractName": "PriceOracle",
  "sourceName": "contracts/oracles/PriceOracle.sol",
  "abi": [
    {
      "inputs": [],
      "stateMutability": "nonpayable",
      "type": "constructor"
    },
    {
      "inputs": [],
      "name": "USD_INR_RATE",
      "outputs": [
        {
          "internalType": "uint256",
          "name": "",
          "type": "uint256"
        }
      ],
      "stateMutability": "view",
      "type": "function"
    },
    {
      "inputs": [
        {
          "internalType": "address",
          "name": "token",
          "type": "address"
        },
        {
          "internalType": "uint256",
          "name": "amount",
          "type": "uint256"
        }
      ],
      "name": "getTokenPriceInINR",
      "outputs": [
        {
          "internalType": "uint256",
          "name": "",
          "type": "uint256"
        }
      ],
      "stateMutability": "view",
      "type": "function"
    },
    {
      "inputs": [
        {
          "internalType": "address",
          "name": "",
          "type": "address"
        }
      ],
      "name": "tokenConfigs",
      "outputs": [
        {
          "internalType": "enum PriceOracle.OracleProvider",
          "name": "provider",
          "type": "uint8"
        },
        {
          "internalType": "address",
          "name": "feedAddress",
          "type": "address"
        },
        {
          "internalType": "uint256",
          "name": "fallbackPrice",
          "type": "uint256"
        }
      ],
      "stateMutability": "view",
      "type": "function"
    }
  ],
  "bytecode": "0x6080346100e757606081016001600160401b038111828210176100d1576040526000908181526020810173694aa1769357215de4fac081bf1f309adc32530681526040820190680579a814e10a7400008252732ef1c802355c500a3493f2db8cb9c24af12c42b08452836020526040842092519060028210156100bd5783549051610100600160a81b0360089190911b1660ff929092166001600160a81b031990911617178255516001909101555060405161058f90816100ed8239f35b634e487b7160e01b85526021600452602485fd5b634e487b7160e01b600052604160045260246000fd5b600080fdfe60806040818152600436101561001457600080fd5b600091823560e01c9081631b69dc5f14610098575080635ea514fc146100755763e1d824eb1461004357600080fd5b3461007157806003193601126100715760209061006a61006161010a565b6024359061015d565b9051908152f35b5080fd5b503461007157816003193601126100715760209051680486cb9799191e00008152f35b91905034610106576020366003190112610106576001600160a01b0390816100be61010a565b16845283602052808420918254600160ff82169401549360028110156100f25760609650855260081c166020840152820152f35b634e487b7160e01b87526021600452602487fd5b8280fd5b600435906001600160a01b038216820361012057565b600080fd5b90601f8019910116810190811067ffffffffffffffff82111761014757604052565b634e487b7160e01b600052604160045260246000fd5b60018060a01b03806000921682526020908282526040908184208251906060820182811067ffffffffffffffff82111761050557845280549260ff84169360028510156104f1579060019185855260081c1691828785015201549284830193845215806104e8575b610353575051600281101561033f5760011480610335575b6102a25750831561026a57505068a2a15d09519be00000918083029283048103610256577102f20cdc716a8cfb18629d9f16e00000000002918083046804a2f799d7b7290000149015171561024257506ec097ce7bc90715b34b9f1000000000900490565b634e487b7160e01b81526011600452602490fd5b634e487b7160e01b82526011600452602482fd5b60649250519062461bcd60e51b8252600482015260126024820152710416d6f756e74206d757374206265203e20360741b6044820152fd5b51929392919082156102f257831561026a575050906102c091610530565b906804a2f799d7b72900009182810292818404149015171561024257506ec097ce7bc90715b34b9f1000000000900490565b60649250519062461bcd60e51b82526004820152601a60248201527f46616c6c6261636b207072696365206d757374206265203e20300000000000006044820152fd5b50805115156101dd565b634e487b7160e01b85526021600452602485fd5b8351633fabe5a360e21b815293966004969590949350915060a0838781845afa9283156104de57908692918694610487575b50819088519384809263313ce56760e01b82525afa96871561047e57508496610444575b5050670de0b6b3a764000094858202918083048714901517156104315760ff16604d811161043157600a0a90811561041e57916103e891869304610530565b0491680486cb9799191e00009283810293818504149015171561040b5750500490565b634e487b7160e01b825260119052602490fd5b634e487b7160e01b845260128552602484fd5b634e487b7160e01b845260118552602484fd5b9080929650813d8311610477575b61045c8183610125565b81010312610106575160ff81168103610106579338806103a9565b503d610452565b513d86823e3d90fd5b919250925060a0813d82116104d6575b816104a460a09383610125565b810103126104d2579080826104b98894610519565b506104ca6080838301519201610519565b509390610385565b8480fd5b3d9150610497565b87513d87823e3d90fd5b508015156101c5565b634e487b7160e01b88526021600452602488fd5b634e487b7160e01b87526041600452602487fd5b519069ffffffffffffffffffff8216820361012057565b8181029291811591840414171561054357565b634e487b7160e01b600052601160045260246000fdfea26469706673582212207a0d4a83bafe65b7af66e58bcba5b9e7bcb513052fc72e393de17fc4dfa16d8864736f6c63430008140033",
  "linkReferences": {},
  "deployedLinkReferences": {}
}