{"contracts/core/Pledg.sol":{"Pledg":{"abi":[{"inputs":[{"internalType":"address","name":"_priceOracle","type":"address"}],"stateMutability":"nonpayable","type":"constructor"},{"inputs":[],"name":"EnforcedPause","type":"error"},{"inputs":[],"name":"ExpectedPause","type":"error"},{"inputs":[{"internalType":"address","name":"owner","type":"address"}],"name":"OwnableInvalidOwner","type":"error"},{"inputs":[{"internalType":"address","name":"account","type":"address"}],"name":"OwnableUnauthorizedAccount","type":"error"},{"inputs":[],"name":"ReentrancyGuardReentrantCall","type":"error"},{"inputs":[{"internalType":"address","name":"token","type":"address"}],"name":"SafeERC20FailedOperation","type":"error"},{"anonymous":false,"inputs":[{"indexed":true,"internalType":"address","name":"borrower","type":"address"}],"name":"BorrowerAuthorizationRevoked","type":"event"},{"anonymous":false,"inputs":[{"indexed":true,"internalType":"address","name":"borrower","type":"address"}],"name":"BorrowerAuthorized","type":"event"},{"anonymous":false,"inputs":[{"indexed":true,"internalType":"uint256","name":"loanId","type":"uint256"},{"indexed":false,"internalType":"address","name":"token","type":"address"},{"indexed":false,"internalType":"uint256","name":"amountReleased","type":"uint256"},{"indexed":false,"internalType":"uint256","name":"finalContractBalance","type":"uint256"}],"name":"CollateralAuditTrail","type":"event"},{"anonymous":false,"inputs":[{"indexed":true,"internalType":"uint256","name":"loanId","type":"uint256"},{"indexed":false,"internalType":"uint256","name":"amountLiquidated","type":"uint256"}],"name":"CollateralLiquidated","type":"event"},{"anonymous":false,"inputs":[{"indexed":true,"internalType":"uint256","name":"loanId","type":"uint256"},{"indexed":false,"internalType":"address","name":"token","type":"address"},{"indexed":false,"internalType":"uint256","name":"amount","type":"uint256"}],"name":"CollateralLocked","type":"event"},{"anonymous":false,"inputs":[{"indexed":true,"internalType":"uint256","name":"loanId","type":"uint256"},{"indexed":false,"internalType":"address","name":"token","type":"address"},{"indexed":false,"internalType":"uint256","name":"amount","type":"uint256"}],"name":"CollateralReleased","type":"event"},{"anonymous":false,"inputs":[{"indexed":true,"internalType":"uint256","name":"loanId","type":"uint256"},{"indexed":false,"internalType":"address","name":"token","type":"address"},{"indexed":false,"internalType":"uint256","name":"amount","type":"uint256"}],"name":"CollateralTransferredToBackend","type":"event"},{"anonymous":false,"inputs":[{"indexed":true,"internalType":"address","name":"by","type":"address"}],"name":"ContractPaused","type":"event"},{"anonymous":false,"inputs":[{"indexed":true,"internalType":"address","name":"by","type":"address"}],"name":"ContractUnpaused","type":"event"},{"anonymous":false,"inputs":[{"indexed":true,"internalType":"uint256","name":"loanId","type":"uint256"},{"indexed":false,"internalType":"uint256","name":"actualTokenCost","type":"uint256"},{"indexed":false,"internalType":"uint256","name":"returnedBuffer","type":"uint256"}],"name":"DefaultLiquidationConfirmed","type":"event"},{"anonymous":false,"inputs":[{"indexed":true,"internalType":"uint256","name":"loanId","type":"uint256"},{"indexed":false,"internalType":"uint256","name":"collateralAmount","type":"uint256"},{"indexed":false,"internalType":"uint256","name":"timestamp","type":"uint256"}],"name":"DefaultLiquidationInitiated","type":"event"},{"anonymous":false,"inputs":[{"indexed":true,"internalType":"address","name":"token","type":"address"},{"indexed":false,"internalType":"uint256","name":"amount","type":"uint256"}],"name":"EmergencyWithdraw","type":"event"},{"anonymous":false,"inputs":[{"indexed":true,"internalType":"uint256","name":"loanId","type":"uint256"},{"indexed":false,"internalType":"uint256","name":"actualTokenCost","type":"uint256"},{"indexed":false,"internalType":"uint256","name":"returnedCollateral","type":"uint256"}],"name":"LTVLiquidationConfirmed","type":"event"},{"anonymous":false,"inputs":[{"indexed":true,"internalType":"uint256","name":"loanId","type":"uint256"},{"indexed":false,"internalType":"uint256","name":"collateralAmount","type":"uint256"},{"indexed":false,"internalType":"uint256","name":"timestamp","type":"uint256"}],"name":"LTVLiquidationInitiated","type":"event"},{"anonymous":false,"inputs":[{"indexed":true,"internalType":"uint256","name":"loanId","type":"uint256"},{"indexed":false,"internalType":"uint256","name":"collateralReturned","type":"uint256"}],"name":"LiquidationCancelled","type":"event"},{"anonymous":false,"inputs":[{"indexed":true,"internalType":"uint256","name":"loanId","type":"uint256"},{"indexed":false,"internalType":"bool","name":"success","type":"bool"},{"indexed":false,"internalType":"uint256","name":"actualAmountReceived","type":"uint256"},{"indexed":false,"internalType":"bool","name":"fullyLiquidated","type":"bool"}],"name":"LiquidationConfirmed","type":"event"},{"anonymous":false,"inputs":[{"indexed":true,"internalType":"uint256","name":"loanId","type":"uint256"},{"indexed":false,"internalType":"uint256","name":"collateralAmount","type":"uint256"},{"indexed":false,"internalType":"uint256","name":"timestamp","type":"uint256"}],"name":"LiquidationInitiated","type":"event"},{"anonymous":false,"inputs":[{"indexed":true,"internalType":"uint256","name":"loanId","type":"uint256"}],"name":"LoanCompleted","type":"event"},{"anonymous":false,"inputs":[{"indexed":true,"internalType":"uint256","name":"loanId","type":"uint256"},{"indexed":true,"internalType":"address","name":"borrower","type":"address"},{"indexed":false,"internalType":"uint256","name":"amount","type":"uint256"},{"indexed":false,"internalType":"uint256","name":"interestRate","type":"uint256"},{"indexed":false,"internalType":"uint256","name":"term","type":"uint256"},{"indexed":false,"internalType":"address","name":"collateralToken","type":"address"},{"indexed":false,"internalType":"uint256","name":"collateralAmount","type":"uint256"}],"name":"LoanCreated","type":"event"},{"anonymous":false,"inputs":[{"indexed":true,"internalType":"uint256","name":"loanId","type":"uint256"},{"indexed":false,"internalType":"uint256","name":"defaultedAt","type":"uint256"}],"name":"LoanDefaulted","type":"event"},{"anonymous":false,"inputs":[{"indexed":true,"internalType":"uint256","name":"loanId","type":"uint256"},{"indexed":true,"internalType":"address","name":"lender","type":"address"},{"indexed":false,"internalType":"uint256","name":"amount","type":"uint256"}],"name":"LoanFunded","type":"event"},{"anonymous":false,"inputs":[{"indexed":true,"internalType":"uint256","name":"loanId","type":"uint256"},{"indexed":true,"internalType":"address","name":"liquidator","type":"address"}],"name":"LoanLiquidated","type":"event"},{"anonymous":false,"inputs":[{"indexed":true,"internalType":"uint256","name":"loanId","type":"uint256"},{"indexed":true,"internalType":"address","name":"borrower","type":"address"},{"indexed":false,"internalType":"uint256","name":"amountPaid","type":"uint256"},{"indexed":false,"internalType":"uint256","name":"totalPaid","type":"uint256"}],"name":"LoanRepaid","type":"event"},{"anonymous":false,"inputs":[{"indexed":true,"internalType":"address","name":"previousOwner","type":"address"},{"indexed":true,"internalType":"address","name":"newOwner","type":"address"}],"name":"OwnershipTransferred","type":"event"},{"anonymous":false,"inputs":[{"indexed":false,"internalType":"address","name":"account","type":"address"}],"name":"Paused","type":"event"},{"anonymous":false,"inputs":[{"indexed":true,"internalType":"uint256","name":"loanId","type":"uint256"},{"indexed":true,"internalType":"address","name":"payer","type":"address"},{"indexed":false,"internalType":"uint256","name":"amount","type":"uint256"},{"indexed":false,"internalType":"uint256","name":"installmentNumber","type":"uint256"}],"name":"PaymentMade","type":"event"},{"anonymous":false,"inputs":[{"indexed":true,"internalType":"address","name":"newOracle","type":"address"}],"name":"PriceOracleChanged","type":"event"},{"anonymous":false,"inputs":[{"indexed":true,"internalType":"address","name":"token","type":"address"}],"name":"SupportedTokenAdded","type":"event"},{"anonymous":false,"inputs":[{"indexed":true,"internalType":"address","name":"token","type":"address"}],"name":"SupportedTokenRemoved","type":"event"},{"anonymous":false,"inputs":[{"indexed":false,"internalType":"address","name":"account","type":"address"}],"name":"Unpaused","type":"event"},{"inputs":[],"name":"GRACE_PERIOD","outputs":[{"internalType":"uint256","name":"","type":"uint256"}],"stateMutability":"view","type":"function"},{"inputs":[],"name":"INSTALLMENT_PERIOD","outputs":[{"internalType":"uint256","name":"","type":"uint256"}],"stateMutability":"view","type":"function"},{"inputs":[],"name":"INTEREST_RATE_DIVISOR","outputs":[{"internalType":"uint256","name":"","type":"uint256"}],"stateMutability":"view","type":"function"},{"inputs":[],"name":"MAX_INTEREST_RATE","outputs":[{"internalType":"uint256","name":"","type":"uint256"}],"stateMutability":"view","type":"function"},{"inputs":[],"name":"MAX_LOAN_AMOUNT","outputs":[{"internalType":"uint256","name":"","type":"uint256"}],"stateMutability":"view","type":"function"},{"inputs":[],"name":"MAX_LOAN_DURATION","outputs":[{"internalType":"uint256","name":"","type":"uint256"}],"stateMutability":"view","type":"function"},{"inputs":[],"name":"MAX_LTV","outputs":[{"internalType":"uint256","name":"","type":"uint256"}],"stateMutability":"view","type":"function"},{"inputs":[],"name":"MIN_LOAN_AMOUNT","outputs":[{"internalType":"uint256","name":"","type":"uint256"}],"stateMutability":"view","type":"function"},{"inputs":[],"name":"MIN_LOAN_DURATION","outputs":[{"internalType":"uint256","name":"","type":"uint256"}],"stateMutability":"view","type":"function"},{"inputs":[],"name":"PERCENTAGE_DIVISOR","outputs":[{"internalType":"uint256","name":"","type":"uint256"}],"stateMutability":"view","type":"function"},{"inputs":[{"internalType":"address","name":"token","type":"address"}],"name":"addSupportedToken","outputs":[],"stateMutability":"nonpayable","type":"function"},{"inputs":[{"internalType":"address","name":"borrower","type":"address"}],"name":"authorizeBorrower","outputs":[],"stateMutability":"nonpayable","type":"function"},{"inputs":[{"internalType":"address","name":"","type":"address"}],"name":"authorizedBorrowers","outputs":[{"internalType":"bool","name":"","type":"bool"}],"stateMutability":"view","type":"function"},{"inputs":[{"internalType":"uint256","name":"loanId","type":"uint256"}],"name":"canLiquidate","outputs":[{"internalType":"bool","name":"eligible","type":"bool"},{"internalType":"string","name":"reason","type":"string"}],"stateMutability":"view","type":"function"},{"inputs":[{"internalType":"uint256","name":"loanId","type":"uint256"}],"name":"cancelLiquidation","outputs":[],"stateMutability":"nonpayable","type":"function"},{"inputs":[{"internalType":"uint256","name":"loanId","type":"uint256"}],"name":"checkLoanDefault","outputs":[{"internalType":"bool","name":"","type":"bool"}],"stateMutability":"view","type":"function"},{"inputs":[{"internalType":"uint256","name":"loanId","type":"uint256"},{"internalType":"uint256","name":"actualTokenCost","type":"uint256"},{"internalType":"uint256","name":"returnedBuffer","type":"uint256"}],"name":"confirmDefaultLiquidation","outputs":[],"stateMutability":"nonpayable","type":"function"},{"inputs":[{"internalType":"uint256","name":"loanId","type":"uint256"},{"internalType":"uint256","name":"actualTokenCost","type":"uint256"},{"internalType":"uint256","name":"returnedCollateral","type":"uint256"}],"name":"confirmLTVLiquidation","outputs":[],"stateMutability":"nonpayable","type":"function"},{"inputs":[{"internalType":"uint256","name":"loanId","type":"uint256"},{"internalType":"uint256","name":"loanAmountInr","type":"uint256"},{"internalType":"uint256","name":"interestRate","type":"uint256"},{"internalType":"uint256","name":"ltv","type":"uint256"},{"internalType":"uint256","name":"durationInDays","type":"uint256"},{"internalType":"address","name":"collateralToken","type":"address"},{"internalType":"uint256","name":"collateralAmount","type":"uint256"}],"name":"createLoan","outputs":[{"internalType":"uint256","name":"","type":"uint256"}],"stateMutability":"nonpayable","type":"function"},{"inputs":[],"name":"emergencyPause","outputs":[],"stateMutability":"nonpayable","type":"function"},{"inputs":[{"internalType":"address","name":"token","type":"address"},{"internalType":"uint256","name":"amount","type":"uint256"}],"name":"emergencyWithdraw","outputs":[],"stateMutability":"nonpayable","type":"function"},{"inputs":[{"internalType":"uint256","name":"loanId","type":"uint256"}],"name":"fundLoan","outputs":[],"stateMutability":"payable","type":"function"},{"inputs":[],"name":"getActiveLoans","outputs":[{"internalType":"uint256[]","name":"","type":"uint256[]"}],"stateMutability":"view","type":"function"},{"inputs":[{"internalType":"address","name":"token","type":"address"}],"name":"getContractCollateralBalance","outputs":[{"internalType":"uint256","name":"","type":"uint256"}],"stateMutability":"view","type":"function"},{"inputs":[{"internalType":"uint256","name":"loanId","type":"uint256"}],"name":"getLiquidations","outputs":[{"components":[{"internalType":"uint256","name":"timestamp","type":"uint256"},{"internalType":"uint256","name":"amount","type":"uint256"}],"internalType":"struct Pledg.LiquidationEvent[]","name":"","type":"tuple[]"}],"stateMutability":"view","type":"function"},{"inputs":[{"internalType":"uint256","name":"loanId","type":"uint256"}],"name":"getLoan","outputs":[{"internalType":"uint256","name":"amount","type":"uint256"},{"internalType":"uint256","name":"interestRate","type":"uint256"},{"internalType":"uint256","name":"term","type":"uint256"},{"internalType":"uint256","name":"status","type":"uint256"},{"internalType":"address","name":"borrower","type":"address"},{"internalType":"address","name":"collateralToken","type":"address"},{"internalType":"uint256","name":"collateralAmount","type":"uint256"},{"internalType":"uint256","name":"nextDueDate","type":"uint256"},{"internalType":"uint256","name":"totalPaid","type":"uint256"},{"internalType":"uint256","name":"installmentsPaid","type":"uint256"},{"internalType":"uint256","name":"totalInstallments","type":"uint256"},{"internalType":"uint256","name":"installmentAmount","type":"uint256"},{"internalType":"uint256","name":"createdAt","type":"uint256"},{"internalType":"uint256","name":"fundedAt","type":"uint256"},{"internalType":"uint256","name":"completedAt","type":"uint256"},{"internalType":"uint256","name":"liquidationsLength","type":"uint256"}],"stateMutability":"view","type":"function"},{"inputs":[],"name":"getLoanCount","outputs":[{"internalType":"uint256","name":"","type":"uint256"}],"stateMutability":"view","type":"function"},{"inputs":[{"internalType":"uint256","name":"loanId","type":"uint256"}],"name":"getLoanStatus","outputs":[{"internalType":"uint256","name":"","type":"uint256"}],"stateMutability":"view","type":"function"},{"inputs":[{"internalType":"address","name":"user","type":"address"}],"name":"getLoansByUser","outputs":[{"internalType":"uint256[]","name":"","type":"uint256[]"}],"stateMutability":"view","type":"function"},{"inputs":[{"internalType":"uint256","name":"loanId","type":"uint256"}],"name":"liquidate","outputs":[],"stateMutability":"nonpayable","type":"function"},{"inputs":[{"internalType":"uint256","name":"","type":"uint256"},{"internalType":"uint256","name":"","type":"uint256"}],"name":"loanPayments","outputs":[{"internalType":"uint256","name":"loanId","type":"uint256"},{"internalType":"uint256","name":"timestamp","type":"uint256"},{"internalType":"uint256","name":"amount","type":"uint256"},{"internalType":"uint256","name":"installmentNumber","type":"uint256"}],"stateMutability":"view","type":"function"},{"inputs":[{"internalType":"uint256","name":"","type":"uint256"}],"name":"loans","outputs":[{"internalType":"uint256","name":"loanId","type":"uint256"},{"internalType":"uint256","name":"amount","type":"uint256"},{"internalType":"uint256","name":"interestRate","type":"uint256"},{"internalType":"uint256","name":"term","type":"uint256"},{"internalType":"enum Pledg.LoanStatus","name":"status","type":"uint8"},{"internalType":"address","name":"borrower","type":"address"},{"internalType":"address","name":"collateralToken","type":"address"},{"internalType":"uint256","name":"collateralAmount","type":"uint256"},{"internalType":"uint256","name":"collateralValueInINR","type":"uint256"},{"internalType":"uint256","name":"nextDueDate","type":"uint256"},{"internalType":"uint256","name":"totalPaid","type":"uint256"},{"internalType":"uint256","name":"installmentsPaid","type":"uint256"},{"internalType":"uint256","name":"totalInstallments","type":"uint256"},{"internalType":"uint256","name":"installmentAmount","type":"uint256"},{"internalType":"uint256","name":"createdAt","type":"uint256"},{"internalType":"uint256","name":"fundedAt","type":"uint256"},{"internalType":"uint256","name":"completedAt","type":"uint256"}],"stateMutability":"view","type":"function"},{"inputs":[{"internalType":"uint256","name":"loanId","type":"uint256"},{"internalType":"uint256","name":"paymentAmount","type":"uint256"}],"name":"makePayment","outputs":[],"stateMutability":"nonpayable","type":"function"},{"inputs":[{"internalType":"uint256","name":"loanId","type":"uint256"}],"name":"markLoanAsDefaulted","outputs":[],"stateMutability":"nonpayable","type":"function"},{"inputs":[],"name":"owner","outputs":[{"internalType":"address","name":"","type":"address"}],"stateMutability":"view","type":"function"},{"inputs":[],"name":"pause","outputs":[],"stateMutability":"nonpayable","type":"function"},{"inputs":[],"name":"paused","outputs":[{"internalType":"bool","name":"","type":"bool"}],"stateMutability":"view","type":"function"},{"inputs":[{"internalType":"uint256","name":"","type":"uint256"}],"name":"pendingLiquidations","outputs":[{"internalType":"uint256","name":"loanId","type":"uint256"},{"internalType":"uint256","name":"collateralAmount","type":"uint256"},{"internalType":"uint256","name":"timestamp","type":"uint256"},{"internalType":"bool","name":"exists","type":"bool"}],"stateMutability":"view","type":"function"},{"inputs":[],"name":"priceOracle","outputs":[{"internalType":"contract IPriceOracle","name":"","type":"address"}],"stateMutability":"view","type":"function"},{"inputs":[{"internalType":"address","name":"token","type":"address"}],"name":"removeSupportedToken","outputs":[],"stateMutability":"nonpayable","type":"function"},{"inputs":[],"name":"renounceOwnership","outputs":[],"stateMutability":"nonpayable","type":"function"},{"inputs":[{"internalType":"address","name":"borrower","type":"address"}],"name":"revokeBorrowerAuthorization","outputs":[],"stateMutability":"nonpayable","type":"function"},{"inputs":[{"internalType":"address","name":"_priceOracle","type":"address"}],"name":"setPriceOracle","outputs":[],"stateMutability":"nonpayable","type":"function"},{"inputs":[{"internalType":"address","name":"","type":"address"}],"name":"supportedTokens","outputs":[{"internalType":"bool","name":"","type":"bool"}],"stateMutability":"view","type":"function"},{"inputs":[{"internalType":"address","name":"token","type":"address"},{"internalType":"uint256","name":"amount","type":"uint256"}],"name":"testPriceOracle","outputs":[{"internalType":"uint256","name":"","type":"uint256"}],"stateMutability":"view","type":"function"},{"inputs":[{"internalType":"address","name":"newOwner","type":"address"}],"name":"transferOwnership","outputs":[],"stateMutability":"nonpayable","type":"function"},{"inputs":[],"name":"unpause","outputs":[],"stateMutability":"nonpayable","type":"function"},{"inputs":[{"internalType":"address","name":"","type":"address"},{"internalType":"uint256","name":"","type":"uint256"}],"name":"userLoans","outputs":[{"internalType":"uint256","name":"","type":"uint256"}],"stateMutability":"view","type":"function"}],"evm":{"bytecode":{"linkReferences":{},"object":"608034620000f757601f62002f0238819003918201601f19168301916001600160401b03831184841017620000fc57808492602094604052833981010312620000f757516001600160a01b039081811690819003620000f75760016000553315620000de5760018054610100600160a81b0319811633600881811b610100600160a81b0316929092179093556040519491901c167f8be0079c531659141344cd1fd0a4f28419497f9722a3daafe3b4186f6b6457e0600080a3600380546001600160a01b0319169190911790556000600255612def9081620001138239f35b604051631e4fbdf760e01b815260006004820152602490fd5b600080fd5b634e487b7160e01b600052604160045260246000fdfe6080604052600436101561001257600080fd5b60003560e01c80630bad09181461259f5780630d0b2ca614612581578063121ed2a7146123f65780631c4fd41c146123935780631e419159146122b85780631fd3ca77146122535780632630c12f1461222a57806334855d141461220d5780633d876499146121ba5780633e842090146121365780633f4ba83a146120a6578063415f124014611c5c57806341b8811114611b46578063504006ca14611a2357806351858e27146119ca57806352196812146119ac578063530e784f1461193e5780635c975abb1461191b578063606a02f81461185357806368c4ac26146118145780636d69fcaf1461179f578063715018a61461173e57806376319190146116cc57806381bf8d3d146116b05780638456cb5914611631578063846b909a1461153757806389d99a051461139f5780638da5cb5b1461150a5780638fdbb073146114cb57806395ccea671461140757806396fa212f146113e35780639df411ee146113a4578063a25893531461139f578063af3d3e9814611342578063b6938b81146112cd578063ba3bf83214610b7f578063bdfb75c714610b62578063c1a287e214610b44578063c35a1c0e14610ad2578063c9af07f214610a2b578063caf2976514610a0f578063ceba1794146109ea578063d390f97414610638578063d6a6ca2f146104ca578063d8bad5bd14610472578063e1ec3c681461035a578063e9a99a83146102ca5763f2fde38b1461022c57600080fd5b346102c55760203660031901126102c5576102456126e7565b61024d6127a5565b6001600160a01b038181169182156102ac5760018054610100600160a81b03198116600893841b610100600160a81b031617909155901c167f8be0079c531659141344cd1fd0a4f28419497f9722a3daafe3b4186f6b6457e0600080a3005b604051631e4fbdf760e01b815260006004820152602490fd5b600080fd5b346102c5576020806003193601126102c5576024816001600160a01b036102ef6126e7565b16604051928380926370a0823160e01b82523060048301525afa90811561034e57600091610321575b50604051908152f35b90508181813d8311610347575b6103388183612828565b810103126102c5575182610318565b503d61032e565b6040513d6000823e3d90fd5b346102c55760203660031901126102c557600435600052600460205260406000208054600182015490600283015492600381015493600482015494600160a01b60019003600584015416600684015460078501546008860154600987015491600a88015493600b89015495600c8a015497600d8b015499600e8c01549b600f01549c6040519e8f91825260208201526040015260608d015260ff8d169c60088e101561045c576102209d60808e015260018060a01b039060081c1660a08d015260c08c015260e08b01526101008a01526101208901526101408801526101608701526101808601526101a08501526101c08401526101e0830152610200820152f35b634e487b7160e01b600052602160045260246000fd5b346102c55760403660031901126102c55761048b6126e7565b6001600160a01b03166000908152600560205260409020805460243591908210156102c5576020916104bc9161278d565b90546040519160031b1c8152f35b346102c5576104d836612692565b916104e16127a5565b806000526020916009835261050060ff60036040600020015416612c87565b8160005260048352604060002060098452604060002085610612575b6006820161052b878254612928565b808511156105b65750926009966105867fa2eaa3368df73100942390723022075c1f27ff24a5b05b2250c907f1eb35d90a946010600160409660008b9a555b015491865192610579846127d4565b4284528b84015201612ccc565b825191825286820152a2600052526105b4604060002060036000918281558260018201558260028201550155565b005b92939091968184039384116105fc5761058686956010600160099b7fa2eaa3368df73100942390723022075c1f27ff24a5b05b2250c907f1eb35d90a986040985561056a565b634e487b7160e01b600052601160045260246000fd5b6106338660018060a01b03806005860154169060015460081c163091612d06565b61051c565b346102c5576106463661275b565b9061064f6127a5565b6106576128c3565b61065f6128a5565b80600052602060048152604060002060048101805460ff811660088110158061045c5760028214809281156109d9575b50610699906128e6565b87156109865761045c57610976575b505060098101906106ba858354612928565b90818355600a8101916106cd8354612896565b90818455604051916106de836127f0565b8783528683019342855260408401918a83526060850193818552600183015411159182610967575b50506107eb575b876000526006875260406000208054600160401b8110156107d55761073791600182018155612771565b9490946107bf5760039351855551600185015551600284015551910155546040519085825283820152837fc65404633dd8ca3eaa91445ad9c825c60c158e04c83dcf2fc9067e8d13035f2460403393a354906040519384528301527f553c9087bff5b534e499a66dac3fa9db2962cd252ea01165239755836ae5345e60403393a36001600055005b634e487b7160e01b600052600060045260246000fd5b634e487b7160e01b600052604160045260246000fd5b6000888152600480895260408220808201805460ff19169092179182905542600f82015560068101805493905560050180546001600160a01b039261083991859160081c8516908516612be8565b5416604051916370a0823160e01b83523060048401528983602481855afa90811561034e578b93600092610913575b50916060917fabee94125f370d81a42dedafa8c1e67beaf3caae75f3236495f59336b6425c1993857f757b323b5139c5e30fe0a1c4b13e38dece5aad9273138c1e3d1ed9191c6e73b2604051806108d585888360209093929193604081019460018060a01b031681520152565b0390a260405192867f02ca5489b37dd363d1302bac719e8ee40e540ffbe8c12253570fea63e11cad71600080a283528c8301526040820152a261070d565b8b80929495508193503d8311610960575b61092e8183612828565b810103126102c557518a92917fabee94125f370d81a42dedafa8c1e67beaf3caae75f3236495f59336b6425c19610868565b503d610924565b600b0154111590508a80610706565b60ff1916600317905584806106a8565b60405162461bcd60e51b815260048101879052602560248201527f5061796d656e7420616d6f756e74206d75737420626520677265617465722074604482015264068616e20360dc1b6064820152608490fd5b60009250600314905061069961068f565b346102c55760003660031901126102c557602060405169010f0cf064dd592000008152f35b346102c55760003660031901126102c557602060405160648152f35b346102c55760403660031901126102c557610a836020610a496126e7565b60035460405163e1d824eb60e01b81526001600160a01b039283166004820152602480359082015293849290911690829081906044820190565b03915afa801561034e57600090610aa0575b602090604051908152f35b506020813d8211610aca575b81610ab960209383612828565b810103126102c55760209051610a95565b3d9150610aac565b346102c55760203660031901126102c557610aeb6126e7565b610af36127a5565b6001600160a01b0316610b0781151561284a565b806000526008602052604060002060ff1981541690557ff1a808c1051bc9771c03e8793808d5ae09b70d4bdc308a04b275ec7a0b8dda99600080a2005b346102c55760003660031901126102c55760206040516203f4808152f35b346102c55760003660031901126102c55760206040516127108152f35b346102c55760e03660031901126102c55760a4356001600160a01b03811690036102c557610bab6128c3565b610bb36128a5565b33600052600860205260ff604060002054161561128857600480356000908152602082905260409020015460081c6001600160a01b031661124a57681b1ae4d6e2ef500000602435101580611234575b156111f9576044351515806111eb575b156111ae5762278d0060843510158061119f575b156111675762278d00608435066111135760c435156110ce5760a4356001600160a01b031660009081526007602052604090205460ff1615611089576040516370a0823160e01b815233600482015260208160248160a4356001600160a01b03165afa90811561034e57600091611057575b5060c4351161101257610cb860a4356001600160a01b0316151561284a565b600480356000818152602083815260409182902092835582840180546001610100600160a81b033360081b166001600160a81b0319831617811790925560248035928601929092556044803560028701556084356003808801919091556005870180546001600160a01b0360a43581166001600160a01b0319909216821790925560c43560068a018190559254975163e1d824eb60e01b8152998a015293880152949594909385928391165afa91821561034e57600092610fde575b50606435603c8111610f9957610d8c60649184612935565b0460243511610f54576007830191909155610ddf9060c4359030906001600160a81b03191633600890811b610100600160a81b031691909117600117901c6001600160a01b039081169060a43516612d06565b62278d0042018042116105fc57600882015542600d820155600181015462278d0060843504916127109160443583018084116105fc57610e1e91612935565b9280830292830481036105fc57610e39600f93600095612948565b90600b830155600c82015582600982015582600a82015582600e820155015533600052600560205260406000208054600160401b8110156107d557610e839160018201815561278d565b81549060031b90600435821b91600019901b1916179055610ea5600254612896565b60025560405160243581526044356020820152608435604082015260018060a01b0360a43516606082015260c435608082015233907f168c53534ab480a206bc09bafc5d4731a8b7bf36fa1d115bb15159b801cdd09560a060043592a36040805160a4356001600160a01b0316815260c4356020820152600435917f93c421ad2d07a35503ebcc2501422ba043643ec143eb79acb4c5ff402f45e12e91a2600160005560206040516004358152f35b60405162461bcd60e51b815260206004820152601d60248201527f4c6f616e20616d6f756e742065786365656473206d6178206c696d69740000006044820152606490fd5b60405162461bcd60e51b815260206004820152601b60248201527f4c54562065786365656473206d6178696d756d20616c6c6f77656400000000006044820152606490fd5b9091506020813d60201161100a575b81610ffa60209383612828565b810103126102c557519083610d74565b3d9150610fed565b60405162461bcd60e51b815260206004820152601f60248201527f496e73756666696369656e7420636f6c6c61746572616c2062616c616e6365006044820152606490fd5b90506020813d602011611081575b8161107260209383612828565b810103126102c5575181610c99565b3d9150611065565b60405162461bcd60e51b815260206004820152601c60248201527f556e737570706f7274656420636f6c6c61746572616c20746f6b656e000000006044820152606490fd5b60405162461bcd60e51b815260206004820152601960248201527f496e76616c696420636f6c6c61746572616c20616d6f756e74000000000000006044820152606490fd5b60405162461bcd60e51b815260206004820152602660248201527f4475726174696f6e206d7573742062652061206d756c7469706c65206f66203360448201526530206461797360d01b6064820152608490fd5b60405162461bcd60e51b815260206004820152601060248201526f24b73b30b634b210323ab930ba34b7b760811b6044820152606490fd5b5062ed4e006084351115610c27565b60405162461bcd60e51b8152602060048201526015602482015274496e76616c696420696e746572657374207261746560581b6044820152606490fd5b506113886044351115610c13565b60405162461bcd60e51b8152602060048201526013602482015272125b9d985b1a59081b1bd85b88185b5bdd5b9d606a1b6044820152606490fd5b5069010f0cf064dd592000006024351115610c03565b60405162461bcd60e51b81526020600482015260166024820152754c6f616e20494420616c72656164792065786973747360501b6044820152606490fd5b60405162461bcd60e51b815260206004820152601760248201527f426f72726f776572206e6f7420617574686f72697a65640000000000000000006044820152606490fd5b346102c55760203660031901126102c5576112e66126e7565b6112ee6127a5565b6001600160a01b031661130281151561284a565b8060005260086020526040600020600160ff198254161790557f5306e71ac264d8d9b9a30293cd54640819975a8cecd6ecc6b42d7d4b0d34da49600080a2005b346102c5576113503661275b565b906000526006602052604060002080548210156102c55760809161137391612771565b508054906001810154906003600282015491015491604051938452602084015260408301526060820152f35b6126fd565b346102c55760203660031901126102c5576113c0600435612968565b906113df6040519283921515835260406020840152604083019061271b565b0390f35b346102c55760003660031901126102c5576020604051681b1ae4d6e2ef5000008152f35b346102c55760403660031901126102c5576114206126e7565b60243561142b6127a5565b6001600160a01b039182169161144283151561284a565b8115611487578161147e7f5fafa99d0643513820be26656b45130b01e1c03062e1266bf36f88cbd3bd96959360209360015460081c1686612be8565b604051908152a2005b606460405162461bcd60e51b815260206004820152602060248201527f416d6f756e74206d7573742062652067726561746572207468616e207a65726f6044820152fd5b346102c55760203660031901126102c5576001600160a01b036114ec6126e7565b166000526008602052602060ff604060002054166040519015158152f35b346102c55760003660031901126102c55760015460405160089190911c6001600160a01b03168152602090f35b60203660031901126102c55760043561154e6128c3565b6115566127a5565b61155e6128a5565b80600052600460205260ff60046040600020015416600881101561045c57600161158891146128e6565b8060005260046020526040600020600481019081549160ff8316600881101561045c576001036115fa57600260019360ff191617905542600e8201550154906040519182527fbd7ef6c6281278f6c8ac4ae9ef2f205b52425813c288dd47c377cb6b59c5076e60203393a36001600055005b60405162461bcd60e51b815260206004820152600f60248201526e4c6f616e206e6f742061637469766560881b6044820152606490fd5b346102c55760003660031901126102c55761164a6127a5565b6116526128a5565b600160ff19815416176001557f62e78cea01bee320cd4e420270b5ea74000d11b0c9f74754ebdbfc544b05a2586020604051338152a1337f81990fd9a5c552b8e3677917d8a03c07678f0d2cb68f88b634aca2022e9bd19f600080a2005b346102c55760003660031901126102c5576020604051603c8152f35b346102c55760203660031901126102c5576116e56126e7565b6116ed6127a5565b6001600160a01b031661170181151561284a565b806000526007602052604060002060ff1981541690557fbea12876694c4055c71f74308f752b9027cf3d554194000a366abddfc239a306600080a2005b346102c55760003660031901126102c5576117576127a5565b60018054610100600160a81b0319811690915560009060081c6001600160a01b03167f8be0079c531659141344cd1fd0a4f28419497f9722a3daafe3b4186f6b6457e08280a3005b346102c55760203660031901126102c5576117b86126e7565b6117c06127a5565b6001600160a01b03166117d481151561284a565b8060005260076020526040600020600160ff198254161790557fd1be2e90bd3d24839d9dd94ad871068e1f9688b02fa43f2a62c9975dfa9de2d7600080a2005b346102c55760203660031901126102c5576001600160a01b036118356126e7565b166000526007602052602060ff604060002054166040519015158152f35b346102c5576020806003193601126102c55760043560005260048152601060406000200190815461188381612d5f565b906118916040519283612828565b8082528282018094600052836000206000915b8383106118ef5760408051878152865181890181905289928201908960005b8281106118d05784840385f35b85518051855282015184830152948101946040909301926001016118c3565b600286600192604051611901816127d4565b8554815284860154838201528152019201920191906118a4565b346102c55760003660031901126102c557602060ff600154166040519015158152f35b346102c55760203660031901126102c5576119576126e7565b61195f6127a5565b6001600160a01b031661197381151561284a565b600380546001600160a01b031916821790557fb36d86785c7d32b1ad714bb705e00e93eccc37b8cf47549043e61e10908ad251600080a2005b346102c55760003660031901126102c5576020600254604051908152f35b346102c55760003660031901126102c5576119e36127a5565b6119eb6128a5565b600160ff19815416176001557f62e78cea01bee320cd4e420270b5ea74000d11b0c9f74754ebdbfc544b05a2586020604051338152a1005b346102c55760203660031901126102c557600435806000526004602052611a5e60018060a01b0360046040600020015460081c161515612d77565b60005260046020526040600020600181015460028201549160038101546004820154600860ff8216101561045c57600160a01b60019003600584015416600684015460088501546009860154600a87015491600b88015493600c89015495600d8a015497600e8b015499600f8c01549b601001549c6040519e8f9182526020820152604001528c60ff82169060600152600160a01b600190039060081c1660808d015260a08c015260c08b015260e08a01526101008901526101208801526101408701526101608601526101808501526101a08401526101c08301526101e082015261020090f35b346102c55760203660031901126102c557600435611b626128c3565b611b6a6128a5565b806000526004602052604060002060ff600482015416600881101561045c57600303611c1757600801546203f48081018091116105fc57421115611bd9577ff5c2e2ff5a0aa88c6e9352be55b58e2c44042366ea1a2e7a63b3b8ad3ef36c496020604051428152a26001600055005b60405162461bcd60e51b8152602060048201526016602482015275131bd85b881b9bdd081e595d08191959985d5b1d195960521b6044820152606490fd5b60405162461bcd60e51b815260206004820152601b60248201527f4c6f616e206e6f7420696e207265706179696e672073746174757300000000006044820152606490fd5b346102c5576020806003193601126102c55760043590611c7a6127a5565b611c826128c3565b611c8a6128a5565b611c9382612968565b90156120805780517fe87790cd2482aec77dcf381135c466436dbe178a187d1769a7a65a6ef091aa0c83830191822069098a8ac40c4e4cac2c6d60b31b85604051611cdd816127d4565b600a8152015203611e015750508160005260098152611d0760ff6003604060002001541615612b9c565b816000526004815260406000209060068201546003810291818304600314821517156105fc577f2f419eaa9c093c6e137c2cdd9c302bec5feea565a6e4a6133616fb6e9a8d549393611d5e60646040950484612928565b92808411611df7575b50826005611de492611dca8751611d7d816127f0565b8a815260038b8883018781528b84019042825260608501926001845260005260098b528c6000209451855551600185015551600284015551151591019060ff801983541691151516179055565b015460015460081c6001600160a01b039081169116612be8565b82519182524290820152a25b6001600055005b9250611de4611d67565b7f083641a769ff940a882b0b610ac878a55a64d02b5c8f9193178406dd74ac51cb9151902068111959985d5b1d195960ba1b83604051611e40816127d4565b6009815201520361203c578160005260098152611e6860ff6003604060002001541615612b9c565b816000526004815260406000209060068201548060011b91818304600214821517156105fc57600c84015460018060a01b03906005826003541696019082825416906040519163e1d824eb60e01b835260048301528482604481670de0b6b3a76400009b8c60248301525afa91821561034e5760009261200d575b508115611fc8578781029781890414901517156105fc577f3c968215ba7a9c68ff382673d5b2ed39ebdd4483f622032eab268e84929e1dca96611f2f611f349260646040990492612948565b612928565b93808511611fc0575b5081611fb0928592611fa08851611f53816127f0565b8b815260038c8983018881528c84019042825260608501926001845260005260098c528d6000209451855551600185015551600284015551151591019060ff801983541691151516179055565b54169060015460081c1690612be8565b82519182524290820152a2611df0565b935081611f3d565b60405162461bcd60e51b815260048101869052601860248201527f496e76616c696420636f6c6c61746572616c20707269636500000000000000006044820152606490fd5b9091508481813d8311612035575b6120258183612828565b810103126102c557519089611ee3565b503d61201b565b6064906040519062461bcd60e51b82526004820152601c60248201527f4e6f7420656c696769626c6520666f72206c69717569646174696f6e000000006044820152fd5b906120a260405192839262461bcd60e51b84526004840152602483019061271b565b0390fd5b346102c55760003660031901126102c5576120bf6127a5565b60015460ff8116156121245760ff19166001557f5db9ee0a495bf2e6ff9c91a7834c1ba4fdd244a5e8aa4e537bd38aeae4b073aa6020604051338152a1337f5b65b0c1363b3003db9bcc5e1fd8805a6d6bf5bf6dc9d3431ee4494cd7d11766600080a2005b604051638dfc202b60e01b8152600490fd5b346102c5576020806003193601126102c5576001600160a01b036121586126e7565b1660005260058152604060002090604051908181845491828152019360005281600020916000905b8282106121a3576113df8561219781890382612828565b604051918291826126ac565b835486529485019460019384019390910190612180565b346102c55760203660031901126102c55760043560005260096020526080604060002080549060018101549060ff6003600283015492015416916040519384526020840152604083015215156060820152f35b346102c55760003660031901126102c55760206040516113888152f35b346102c55760003660031901126102c5576003546040516001600160a01b039091168152602090f35b346102c55760203660031901126102c5576004356000526004602052604060002060ff600482015416600881101561045c57600314908161229c575b6020826040519015158152f35b6008915001546203f48081018091116105fc574211602061228f565b346102c5576020806003193601126102c5577f50cbd023251ed45df8376223750f1b06553f9593a6ade0d051ce5b87fa9374aa600435916122f76127a5565b6122ff6128c3565b6123076128a5565b826000526009815261232360ff60036040600020015416612c87565b82600052600981526001604060002001546004825261235d8160018060a01b0380600560406000200154169060015460081c163091612d06565b8360005260098252612385604060002060036000918281558260018201558260028201550155565b604051908152a26001600055005b346102c55760203660031901126102c5576004358060005260046020526123ce60018060a01b0360046040600020015460081c161515612d77565b600052600460205260ff60046040600020015416600881101561045c57602090604051908152f35b346102c55760003660031901126102c55760008060028054915b828110612506575061242183612d5f565b9261242f6040519485612828565b80845261243e601f1991612d5f565b0190602091368386013760009060005b84811061246357604051806113df88826126ac565b806000526004845260ff600460406000200154166008811015908161045c57600181149182156124f9575b82156124e8575b50506124aa575b6124a590612896565b61244e565b9185518110156124d2576124ca8184866124a59460051b8a010152612896565b92905061249c565b634e487b7160e01b600052603260045260246000fd5b90915061045c576003148780612495565b508381149150600061248e565b80600052600460205260ff600460406000200154166008811015908161045c5760018114918215612574575b8215612563575b505061254e575b61254990612896565b612410565b9261255b61254991612896565b939050612540565b90915061045c576003148580612539565b5083811491506000612532565b346102c55760003660031901126102c557602060405162ed4e008152f35b346102c557600960407f2e76efeae4e2ce3147a8e293fb0064c1030e67c58102a719db916ed2528679436125d236612692565b938293916125de6127a5565b836000526020958787526125fb60ff600385600020015416612c87565b84600052600487526105868360002089895260106001866000208515158061266e575b612648575b60048401805460ff1916600517905560006006850155015486519290610579846127d4565b61266986838060a01b038060058801541690600488015460081c1690612be8565b612623565b61268d87848060a01b038060058901541690865460081c163091612d06565b61261e565b60609060031901126102c557600435906024359060443590565b6020908160408183019282815285518094520193019160005b8281106126d3575050505090565b8351855293810193928101926001016126c5565b600435906001600160a01b03821682036102c557565b346102c55760003660031901126102c557602060405162278d008152f35b919082519283825260005b848110612747575050826000602080949584010152601f8019910116010190565b602081830181015184830182015201612726565b60409060031901126102c5576004359060243590565b80548210156124d25760005260206000209060021b0190600090565b80548210156124d25760005260206000200190600090565b60015460081c6001600160a01b031633036127bc57565b60405163118cdaa760e01b8152336004820152602490fd5b6040810190811067ffffffffffffffff8211176107d557604052565b6080810190811067ffffffffffffffff8211176107d557604052565b6060810190811067ffffffffffffffff8211176107d557604052565b90601f8019910116810190811067ffffffffffffffff8211176107d557604052565b1561285157565b60405162461bcd60e51b815260206004820152601860248201527f5a65726f2061646472657373206e6f7420616c6c6f77656400000000000000006044820152606490fd5b60001981146105fc5760010190565b60ff600154166128b157565b60405163d93c066560e01b8152600490fd5b6002600054146128d4576002600055565b604051633ee5aeb560e01b8152600490fd5b156128ed57565b60405162461bcd60e51b8152602060048201526013602482015272496e76616c6964206c6f616e2073746174757360681b6044820152606490fd5b919082018092116105fc57565b818102929181159184041417156105fc57565b8115612952570490565b634e487b7160e01b600052601260045260246000fd5b90600091825260049160209083825260409384822060ff82820154166008811015612b895760028114159081612b7d575b50612b365760035460058201546006830154885163e1d824eb60e01b81526001600160a01b0392831686820190815260208101929092529287928492839003604001918391165afa908115612b2c578491612afb575b50612a106001830154612710612a09600286015483612935565b0490612928565b606781029080820460671490151715612ae8576064900411612abf5760080154906203f4808201809211612aac57504211612a8657603760f91b90937f4c6f616e206e6f7420656c696769626c6520666f72206c69717569646174696f815193612a798561280c565b6021855284015282015290565b5068111959985d5b1d195960ba1b6001935191612aa2836127d4565b6009835282015290565b634e487b7160e01b835260119052602482fd5b50505069098a8ac40c4e4cac2c6d60b31b6001935191612ade836127d4565b600a835282015290565b634e487b7160e01b855260118452602485fd5b90508481813d8311612b25575b612b128183612828565b81010312612b215751386129ef565b8380fd5b503d612b08565b87513d86823e3d90fd5b505064746174757360d81b90937f4c6f616e206e6f7420696e2066756e646564206f72207265706179696e672073815193612b708561280c565b6025855284015282015290565b60039150141538612999565b634e487b7160e01b845260218352602484fd5b15612ba357565b60405162461bcd60e51b815260206004820152601d60248201527f4c69717569646174696f6e20616c726561647920696e697469617465640000006044820152606490fd5b60405163a9059cbb60e01b60208201526001600160a01b03929092166024830152604480830193909352918152612c2991612c24606483612828565b612c2b565b565b906000602091828151910182855af11561034e576000513d612c7e57506001600160a01b0381163b155b612c5c5750565b604051635274afe760e01b81526001600160a01b039091166004820152602490fd5b60011415612c55565b15612c8e57565b60405162461bcd60e51b81526020600482015260166024820152752737903832b73234b733903634b8bab4b230ba34b7b760511b6044820152606490fd5b805490600160401b8210156107d557600182018082558210156124d2576001916020916000528160002090831b0192805184550151910155565b6040516323b872dd60e01b60208201526001600160a01b03928316602482015292909116604483015260648083019390935291815260a081019181831067ffffffffffffffff8411176107d557612c2992604052612c2b565b67ffffffffffffffff81116107d55760051b60200190565b15612d7e57565b60405162461bcd60e51b8152602060048201526013602482015272131bd85b88191bd95cc81b9bdd08195e1a5cdd606a1b6044820152606490fdfea2646970667358221220e5d9c57efef5933478ae84cfcd56ab19c64497b7a43e392e512c1c1f9c76f89c64736f6c63430008140033","opcodes":"PUSH1 0x80 CALLVALUE PUSH3 0xF7 JUMPI PUSH1 0x1F PUSH3 0x2F02 CODESIZE DUP2 SWAP1 SUB SWAP2 DUP3 ADD PUSH1 0x1F NOT AND DUP4 ADD SWAP2 PUSH1 0x1 PUSH1 0x1 PUSH1 0x40 SHL SUB DUP4 GT DUP5 DUP5 LT OR PUSH3 0xFC JUMPI DUP1 DUP5 SWAP3 PUSH1 0x20 SWAP5 PUSH1 0x40 MSTORE DUP4 CODECOPY DUP2 ADD SUB SLT PUSH3 0xF7 JUMPI MLOAD PUSH1 0x1 PUSH1 0x1 PUSH1 0xA0 SHL SUB SWAP1 DUP2 DUP2 AND SWAP1 DUP2 SWAP1 SUB PUSH3 0xF7 JUMPI PUSH1 0x1 PUSH1 0x0 SSTORE CALLER ISZERO PUSH3 0xDE JUMPI PUSH1 0x1 DUP1 SLOAD PUSH2 0x100 PUSH1 0x1 PUSH1 0xA8 SHL SUB NOT DUP2 AND CALLER PUSH1 0x8 DUP2 DUP2 SHL PUSH2 0x100 PUSH1 0x1 PUSH1 0xA8 SHL SUB AND SWAP3 SWAP1 SWAP3 OR SWAP1 SWAP4 SSTORE PUSH1 0x40 MLOAD SWAP5 SWAP2 SWAP1 SHR AND PUSH32 0x8BE0079C531659141344CD1FD0A4F28419497F9722A3DAAFE3B4186F6B6457E0 PUSH1 0x0 DUP1 LOG3 PUSH1 0x3 DUP1 SLOAD PUSH1 0x1 PUSH1 0x1 PUSH1 0xA0 SHL SUB NOT AND SWAP2 SWAP1 SWAP2 OR SWAP1 SSTORE PUSH1 0x0 PUSH1 0x2 SSTORE PUSH2 0x2DEF SWAP1 DUP2 PUSH3 0x113 DUP3 CODECOPY RETURN JUMPDEST PUSH1 0x40 MLOAD PUSH4 0x1E4FBDF7 PUSH1 0xE0 SHL DUP2 MSTORE PUSH1 0x0 PUSH1 0x4 DUP3 ADD MSTORE PUSH1 0x24 SWAP1 REVERT JUMPDEST PUSH1 0x0 DUP1 REVERT JUMPDEST PUSH4 0x4E487B71 PUSH1 0xE0 SHL PUSH1 0x0 MSTORE PUSH1 0x41 PUSH1 0x4 MSTORE PUSH1 0x24 PUSH1 0x0 REVERT INVALID PUSH1 0x80 PUSH1 0x40 MSTORE PUSH1 0x4 CALLDATASIZE LT ISZERO PUSH2 0x12 JUMPI PUSH1 0x0 DUP1 REVERT JUMPDEST PUSH1 0x0 CALLDATALOAD PUSH1 0xE0 SHR DUP1 PUSH4 0xBAD0918 EQ PUSH2 0x259F JUMPI DUP1 PUSH4 0xD0B2CA6 EQ PUSH2 0x2581 JUMPI DUP1 PUSH4 0x121ED2A7 EQ PUSH2 0x23F6 JUMPI DUP1 PUSH4 0x1C4FD41C EQ PUSH2 0x2393 JUMPI DUP1 PUSH4 0x1E419159 EQ PUSH2 0x22B8 JUMPI DUP1 PUSH4 0x1FD3CA77 EQ PUSH2 0x2253 JUMPI DUP1 PUSH4 0x2630C12F EQ PUSH2 0x222A JUMPI DUP1 PUSH4 0x34855D14 EQ PUSH2 0x220D JUMPI DUP1 PUSH4 0x3D876499 EQ PUSH2 0x21BA JUMPI DUP1 PUSH4 0x3E842090 EQ PUSH2 0x2136 JUMPI DUP1 PUSH4 0x3F4BA83A EQ PUSH2 0x20A6 JUMPI DUP1 PUSH4 0x415F1240 EQ PUSH2 0x1C5C JUMPI DUP1 PUSH4 0x41B88111 EQ PUSH2 0x1B46 JUMPI DUP1 PUSH4 0x504006CA EQ PUSH2 0x1A23 JUMPI DUP1 PUSH4 0x51858E27 EQ PUSH2 0x19CA JUMPI DUP1 PUSH4 0x52196812 EQ PUSH2 0x19AC JUMPI DUP1 PUSH4 0x530E784F EQ PUSH2 0x193E JUMPI DUP1 PUSH4 0x5C975ABB EQ PUSH2 0x191B JUMPI DUP1 PUSH4 0x606A02F8 EQ PUSH2 0x1853 JUMPI DUP1 PUSH4 0x68C4AC26 EQ PUSH2 0x1814 JUMPI DUP1 PUSH4 0x6D69FCAF EQ PUSH2 0x179F JUMPI DUP1 PUSH4 0x715018A6 EQ PUSH2 0x173E JUMPI DUP1 PUSH4 0x76319190 EQ PUSH2 0x16CC JUMPI DUP1 PUSH4 0x81BF8D3D EQ PUSH2 0x16B0 JUMPI DUP1 PUSH4 0x8456CB59 EQ PUSH2 0x1631 JUMPI DUP1 PUSH4 0x846B909A EQ PUSH2 0x1537 JUMPI DUP1 PUSH4 0x89D99A05 EQ PUSH2 0x139F JUMPI DUP1 PUSH4 0x8DA5CB5B EQ PUSH2 0x150A JUMPI DUP1 PUSH4 0x8FDBB073 EQ PUSH2 0x14CB JUMPI DUP1 PUSH4 0x95CCEA67 EQ PUSH2 0x1407 JUMPI DUP1 PUSH4 0x96FA212F EQ PUSH2 0x13E3 JUMPI DUP1 PUSH4 0x9DF411EE EQ PUSH2 0x13A4 JUMPI DUP1 PUSH4 0xA2589353 EQ PUSH2 0x139F JUMPI DUP1 PUSH4 0xAF3D3E98 EQ PUSH2 0x1342 JUMPI DUP1 PUSH4 0xB6938B81 EQ PUSH2 0x12CD JUMPI DUP1 PUSH4 0xBA3BF832 EQ PUSH2 0xB7F JUMPI DUP1 PUSH4 0xBDFB75C7 EQ PUSH2 0xB62 JUMPI DUP1 PUSH4 0xC1A287E2 EQ PUSH2 0xB44 JUMPI DUP1 PUSH4 0xC35A1C0E EQ PUSH2 0xAD2 JUMPI DUP1 PUSH4 0xC9AF07F2 EQ PUSH2 0xA2B JUMPI DUP1 PUSH4 0xCAF29765 EQ PUSH2 0xA0F JUMPI DUP1 PUSH4 0xCEBA1794 EQ PUSH2 0x9EA JUMPI DUP1 PUSH4 0xD390F974 EQ PUSH2 0x638 JUMPI DUP1 PUSH4 0xD6A6CA2F EQ PUSH2 0x4CA JUMPI DUP1 PUSH4 0xD8BAD5BD EQ PUSH2 0x472 JUMPI DUP1 PUSH4 0xE1EC3C68 EQ PUSH2 0x35A JUMPI DUP1 PUSH4 0xE9A99A83 EQ PUSH2 0x2CA JUMPI PUSH4 0xF2FDE38B EQ PUSH2 0x22C JUMPI PUSH1 0x0 DUP1 REVERT JUMPDEST CALLVALUE PUSH2 0x2C5 JUMPI PUSH1 0x20 CALLDATASIZE PUSH1 0x3 NOT ADD SLT PUSH2 0x2C5 JUMPI PUSH2 0x245 PUSH2 0x26E7 JUMP JUMPDEST PUSH2 0x24D PUSH2 0x27A5 JUMP JUMPDEST PUSH1 0x1 PUSH1 0x1 PUSH1 0xA0 SHL SUB DUP2 DUP2 AND SWAP2 DUP3 ISZERO PUSH2 0x2AC JUMPI PUSH1 0x1 DUP1 SLOAD PUSH2 0x100 PUSH1 0x1 PUSH1 0xA8 SHL SUB NOT DUP2 AND PUSH1 0x8 SWAP4 DUP5 SHL PUSH2 0x100 PUSH1 0x1 PUSH1 0xA8 SHL SUB AND OR SWAP1 SWAP2 SSTORE SWAP1 SHR AND PUSH32 0x8BE0079C531659141344CD1FD0A4F28419497F9722A3DAAFE3B4186F6B6457E0 PUSH1 0x0 DUP1 LOG3 STOP JUMPDEST PUSH1 0x40 MLOAD PUSH4 0x1E4FBDF7 PUSH1 0xE0 SHL DUP2 MSTORE PUSH1 0x0 PUSH1 0x4 DUP3 ADD MSTORE PUSH1 0x24 SWAP1 REVERT JUMPDEST PUSH1 0x0 DUP1 REVERT JUMPDEST CALLVALUE PUSH2 0x2C5 JUMPI PUSH1 0x20 DUP1 PUSH1 0x3 NOT CALLDATASIZE ADD SLT PUSH2 0x2C5 JUMPI PUSH1 0x24 DUP2 PUSH1 0x1 PUSH1 0x1 PUSH1 0xA0 SHL SUB PUSH2 0x2EF PUSH2 0x26E7 JUMP JUMPDEST AND PUSH1 0x40 MLOAD SWAP3 DUP4 DUP1 SWAP3 PUSH4 0x70A08231 PUSH1 0xE0 SHL DUP3 MSTORE ADDRESS PUSH1 0x4 DUP4 ADD MSTORE GAS STATICCALL SWAP1 DUP2 ISZERO PUSH2 0x34E JUMPI PUSH1 0x0 SWAP2 PUSH2 0x321 JUMPI JUMPDEST POP PUSH1 0x40 MLOAD SWAP1 DUP2 MSTORE RETURN JUMPDEST SWAP1 POP DUP2 DUP2 DUP2 RETURNDATASIZE DUP4 GT PUSH2 0x347 JUMPI JUMPDEST PUSH2 0x338 DUP2 DUP4 PUSH2 0x2828 JUMP JUMPDEST DUP2 ADD SUB SLT PUSH2 0x2C5 JUMPI MLOAD DUP3 PUSH2 0x318 JUMP JUMPDEST POP RETURNDATASIZE PUSH2 0x32E JUMP JUMPDEST PUSH1 0x40 MLOAD RETURNDATASIZE PUSH1 0x0 DUP3 RETURNDATACOPY RETURNDATASIZE SWAP1 REVERT JUMPDEST CALLVALUE PUSH2 0x2C5 JUMPI PUSH1 0x20 CALLDATASIZE PUSH1 0x3 NOT ADD SLT PUSH2 0x2C5 JUMPI PUSH1 0x4 CALLDATALOAD PUSH1 0x0 MSTORE PUSH1 0x4 PUSH1 0x20 MSTORE PUSH1 0x40 PUSH1 0x0 KECCAK256 DUP1 SLOAD PUSH1 0x1 DUP3 ADD SLOAD SWAP1 PUSH1 0x2 DUP4 ADD SLOAD SWAP3 PUSH1 0x3 DUP2 ADD SLOAD SWAP4 PUSH1 0x4 DUP3 ADD SLOAD SWAP5 PUSH1 0x1 PUSH1 0xA0 SHL PUSH1 0x1 SWAP1 SUB PUSH1 0x5 DUP5 ADD SLOAD AND PUSH1 0x6 DUP5 ADD SLOAD PUSH1 0x7 DUP6 ADD SLOAD PUSH1 0x8 DUP7 ADD SLOAD PUSH1 0x9 DUP8 ADD SLOAD SWAP2 PUSH1 0xA DUP9 ADD SLOAD SWAP4 PUSH1 0xB DUP10 ADD SLOAD SWAP6 PUSH1 0xC DUP11 ADD SLOAD SWAP8 PUSH1 0xD DUP12 ADD SLOAD SWAP10 PUSH1 0xE DUP13 ADD SLOAD SWAP12 PUSH1 0xF ADD SLOAD SWAP13 PUSH1 0x40 MLOAD SWAP15 DUP16 SWAP2 DUP3 MSTORE PUSH1 0x20 DUP3 ADD MSTORE PUSH1 0x40 ADD MSTORE PUSH1 0x60 DUP14 ADD MSTORE PUSH1 0xFF DUP14 AND SWAP13 PUSH1 0x8 DUP15 LT ISZERO PUSH2 0x45C JUMPI PUSH2 0x220 SWAP14 PUSH1 0x80 DUP15 ADD MSTORE PUSH1 0x1 DUP1 PUSH1 0xA0 SHL SUB SWAP1 PUSH1 0x8 SHR AND PUSH1 0xA0 DUP14 ADD MSTORE PUSH1 0xC0 DUP13 ADD MSTORE PUSH1 0xE0 DUP12 ADD MSTORE PUSH2 0x100 DUP11 ADD MSTORE PUSH2 0x120 DUP10 ADD MSTORE PUSH2 0x140 DUP9 ADD MSTORE PUSH2 0x160 DUP8 ADD MSTORE PUSH2 0x180 DUP7 ADD MSTORE PUSH2 0x1A0 DUP6 ADD MSTORE PUSH2 0x1C0 DUP5 ADD MSTORE PUSH2 0x1E0 DUP4 ADD MSTORE PUSH2 0x200 DUP3 ADD MSTORE RETURN JUMPDEST PUSH4 0x4E487B71 PUSH1 0xE0 SHL PUSH1 0x0 MSTORE PUSH1 0x21 PUSH1 0x4 MSTORE PUSH1 0x24 PUSH1 0x0 REVERT JUMPDEST CALLVALUE PUSH2 0x2C5 JUMPI PUSH1 0x40 CALLDATASIZE PUSH1 0x3 NOT ADD SLT PUSH2 0x2C5 JUMPI PUSH2 0x48B PUSH2 0x26E7 JUMP JUMPDEST PUSH1 0x1 PUSH1 0x1 PUSH1 0xA0 SHL SUB AND PUSH1 0x0 SWAP1 DUP2 MSTORE PUSH1 0x5 PUSH1 0x20 MSTORE PUSH1 0x40 SWAP1 KECCAK256 DUP1 SLOAD PUSH1 0x24 CALLDATALOAD SWAP2 SWAP1 DUP3 LT ISZERO PUSH2 0x2C5 JUMPI PUSH1 0x20 SWAP2 PUSH2 0x4BC SWAP2 PUSH2 0x278D JUMP JUMPDEST SWAP1 SLOAD PUSH1 0x40 MLOAD SWAP2 PUSH1 0x3 SHL SHR DUP2 MSTORE RETURN JUMPDEST CALLVALUE PUSH2 0x2C5 JUMPI PUSH2 0x4D8 CALLDATASIZE PUSH2 0x2692 JUMP JUMPDEST SWAP2 PUSH2 0x4E1 PUSH2 0x27A5 JUMP JUMPDEST DUP1 PUSH1 0x0 MSTORE PUSH1 0x20 SWAP2 PUSH1 0x9 DUP4 MSTORE PUSH2 0x500 PUSH1 0xFF PUSH1 0x3 PUSH1 0x40 PUSH1 0x0 KECCAK256 ADD SLOAD AND PUSH2 0x2C87 JUMP JUMPDEST DUP2 PUSH1 0x0 MSTORE PUSH1 0x4 DUP4 MSTORE PUSH1 0x40 PUSH1 0x0 KECCAK256 PUSH1 0x9 DUP5 MSTORE PUSH1 0x40 PUSH1 0x0 KECCAK256 DUP6 PUSH2 0x612 JUMPI JUMPDEST PUSH1 0x6 DUP3 ADD PUSH2 0x52B DUP8 DUP3 SLOAD PUSH2 0x2928 JUMP JUMPDEST DUP1 DUP6 GT ISZERO PUSH2 0x5B6 JUMPI POP SWAP3 PUSH1 0x9 SWAP7 PUSH2 0x586 PUSH32 0xA2EAA3368DF73100942390723022075C1F27FF24A5B05B2250C907F1EB35D90A SWAP5 PUSH1 0x10 PUSH1 0x1 PUSH1 0x40 SWAP7 PUSH1 0x0 DUP12 SWAP11 SSTORE JUMPDEST ADD SLOAD SWAP2 DUP7 MLOAD SWAP3 PUSH2 0x579 DUP5 PUSH2 0x27D4 JUMP JUMPDEST TIMESTAMP DUP5 MSTORE DUP12 DUP5 ADD MSTORE ADD PUSH2 0x2CCC JUMP JUMPDEST DUP3 MLOAD SWAP2 DUP3 MSTORE DUP7 DUP3 ADD MSTORE LOG2 PUSH1 0x0 MSTORE MSTORE PUSH2 0x5B4 PUSH1 0x40 PUSH1 0x0 KECCAK256 PUSH1 0x3 PUSH1 0x0 SWAP2 DUP3 DUP2 SSTORE DUP3 PUSH1 0x1 DUP3 ADD SSTORE DUP3 PUSH1 0x2 DUP3 ADD SSTORE ADD SSTORE JUMP JUMPDEST STOP JUMPDEST SWAP3 SWAP4 SWAP1 SWAP2 SWAP7 DUP2 DUP5 SUB SWAP4 DUP5 GT PUSH2 0x5FC JUMPI PUSH2 0x586 DUP7 SWAP6 PUSH1 0x10 PUSH1 0x1 PUSH1 0x9 SWAP12 PUSH32 0xA2EAA3368DF73100942390723022075C1F27FF24A5B05B2250C907F1EB35D90A SWAP9 PUSH1 0x40 SWAP9 SSTORE PUSH2 0x56A JUMP JUMPDEST PUSH4 0x4E487B71 PUSH1 0xE0 SHL PUSH1 0x0 MSTORE PUSH1 0x11 PUSH1 0x4 MSTORE PUSH1 0x24 PUSH1 0x0 REVERT JUMPDEST PUSH2 0x633 DUP7 PUSH1 0x1 DUP1 PUSH1 0xA0 SHL SUB DUP1 PUSH1 0x5 DUP7 ADD SLOAD AND SWAP1 PUSH1 0x1 SLOAD PUSH1 0x8 SHR AND ADDRESS SWAP2 PUSH2 0x2D06 JUMP JUMPDEST PUSH2 0x51C JUMP JUMPDEST CALLVALUE PUSH2 0x2C5 JUMPI PUSH2 0x646 CALLDATASIZE PUSH2 0x275B JUMP JUMPDEST SWAP1 PUSH2 0x64F PUSH2 0x27A5 JUMP JUMPDEST PUSH2 0x657 PUSH2 0x28C3 JUMP JUMPDEST PUSH2 0x65F PUSH2 0x28A5 JUMP JUMPDEST DUP1 PUSH1 0x0 MSTORE PUSH1 0x20 PUSH1 0x4 DUP2 MSTORE PUSH1 0x40 PUSH1 0x0 KECCAK256 PUSH1 0x4 DUP2 ADD DUP1 SLOAD PUSH1 0xFF DUP2 AND PUSH1 0x8 DUP2 LT ISZERO DUP1 PUSH2 0x45C JUMPI PUSH1 0x2 DUP3 EQ DUP1 SWAP3 DUP2 ISZERO PUSH2 0x9D9 JUMPI JUMPDEST POP PUSH2 0x699 SWAP1 PUSH2 0x28E6 JUMP JUMPDEST DUP8 ISZERO PUSH2 0x986 JUMPI PUSH2 0x45C JUMPI PUSH2 0x976 JUMPI JUMPDEST POP POP PUSH1 0x9 DUP2 ADD SWAP1 PUSH2 0x6BA DUP6 DUP4 SLOAD PUSH2 0x2928 JUMP JUMPDEST SWAP1 DUP2 DUP4 SSTORE PUSH1 0xA DUP2 ADD SWAP2 PUSH2 0x6CD DUP4 SLOAD PUSH2 0x2896 JUMP JUMPDEST SWAP1 DUP2 DUP5 SSTORE PUSH1 0x40 MLOAD SWAP2 PUSH2 0x6DE DUP4 PUSH2 0x27F0 JUMP JUMPDEST DUP8 DUP4 MSTORE DUP7 DUP4 ADD SWAP4 TIMESTAMP DUP6 MSTORE PUSH1 0x40 DUP5 ADD SWAP2 DUP11 DUP4 MSTORE PUSH1 0x60 DUP6 ADD SWAP4 DUP2 DUP6 MSTORE PUSH1 0x1 DUP4 ADD SLOAD GT ISZERO SWAP2 DUP3 PUSH2 0x967 JUMPI JUMPDEST POP POP PUSH2 0x7EB JUMPI JUMPDEST DUP8 PUSH1 0x0 MSTORE PUSH1 0x6 DUP8 MSTORE PUSH1 0x40 PUSH1 0x0 KECCAK256 DUP1 SLOAD PUSH1 0x1 PUSH1 0x40 SHL DUP2 LT ISZERO PUSH2 0x7D5 JUMPI PUSH2 0x737 SWAP2 PUSH1 0x1 DUP3 ADD DUP2 SSTORE PUSH2 0x2771 JUMP JUMPDEST SWAP5 SWAP1 SWAP5 PUSH2 0x7BF JUMPI PUSH1 0x3 SWAP4 MLOAD DUP6 SSTORE MLOAD PUSH1 0x1 DUP6 ADD SSTORE MLOAD PUSH1 0x2 DUP5 ADD SSTORE MLOAD SWAP2 ADD SSTORE SLOAD PUSH1 0x40 MLOAD SWAP1 DUP6 DUP3 MSTORE DUP4 DUP3 ADD MSTORE DUP4 PUSH32 0xC65404633DD8CA3EAA91445AD9C825C60C158E04C83DCF2FC9067E8D13035F24 PUSH1 0x40 CALLER SWAP4 LOG3 SLOAD SWAP1 PUSH1 0x40 MLOAD SWAP4 DUP5 MSTORE DUP4 ADD MSTORE PUSH32 0x553C9087BFF5B534E499A66DAC3FA9DB2962CD252EA01165239755836AE5345E PUSH1 0x40 CALLER SWAP4 LOG3 PUSH1 0x1 PUSH1 0x0 SSTORE STOP JUMPDEST PUSH4 0x4E487B71 PUSH1 0xE0 SHL PUSH1 0x0 MSTORE PUSH1 0x0 PUSH1 0x4 MSTORE PUSH1 0x24 PUSH1 0x0 REVERT JUMPDEST PUSH4 0x4E487B71 PUSH1 0xE0 SHL PUSH1 0x0 MSTORE PUSH1 0x41 PUSH1 0x4 MSTORE PUSH1 0x24 PUSH1 0x0 REVERT JUMPDEST PUSH1 0x0 DUP9 DUP2 MSTORE PUSH1 0x4 DUP1 DUP10 MSTORE PUSH1 0x40 DUP3 KECCAK256 DUP1 DUP3 ADD DUP1 SLOAD PUSH1 0xFF NOT AND SWAP1 SWAP3 OR SWAP2 DUP3 SWAP1 SSTORE TIMESTAMP PUSH1 0xF DUP3 ADD SSTORE PUSH1 0x6 DUP2 ADD DUP1 SLOAD SWAP4 SWAP1 SSTORE PUSH1 0x5 ADD DUP1 SLOAD PUSH1 0x1 PUSH1 0x1 PUSH1 0xA0 SHL SUB SWAP3 PUSH2 0x839 SWAP2 DUP6 SWAP2 PUSH1 0x8 SHR DUP6 AND SWAP1 DUP6 AND PUSH2 0x2BE8 JUMP JUMPDEST SLOAD AND PUSH1 0x40 MLOAD SWAP2 PUSH4 0x70A08231 PUSH1 0xE0 SHL DUP4 MSTORE ADDRESS PUSH1 0x4 DUP5 ADD MSTORE DUP10 DUP4 PUSH1 0x24 DUP2 DUP6 GAS STATICCALL SWAP1 DUP2 ISZERO PUSH2 0x34E JUMPI DUP12 SWAP4 PUSH1 0x0 SWAP3 PUSH2 0x913 JUMPI JUMPDEST POP SWAP2 PUSH1 0x60 SWAP2 PUSH32 0xABEE94125F370D81A42DEDAFA8C1E67BEAF3CAAE75F3236495F59336B6425C19 SWAP4 DUP6 PUSH32 0x757B323B5139C5E30FE0A1C4B13E38DECE5AAD9273138C1E3D1ED9191C6E73B2 PUSH1 0x40 MLOAD DUP1 PUSH2 0x8D5 DUP6 DUP9 DUP4 PUSH1 0x20 SWAP1 SWAP4 SWAP3 SWAP2 SWAP4 PUSH1 0x40 DUP2 ADD SWAP5 PUSH1 0x1 DUP1 PUSH1 0xA0 SHL SUB AND DUP2 MSTORE ADD MSTORE JUMP JUMPDEST SUB SWAP1 LOG2 PUSH1 0x40 MLOAD SWAP3 DUP7 PUSH32 0x2CA5489B37DD363D1302BAC719E8EE40E540FFBE8C12253570FEA63E11CAD71 PUSH1 0x0 DUP1 LOG2 DUP4 MSTORE DUP13 DUP4 ADD MSTORE PUSH1 0x40 DUP3 ADD MSTORE LOG2 PUSH2 0x70D JUMP JUMPDEST DUP12 DUP1 SWAP3 SWAP5 SWAP6 POP DUP2 SWAP4 POP RETURNDATASIZE DUP4 GT PUSH2 0x960 JUMPI JUMPDEST PUSH2 0x92E DUP2 DUP4 PUSH2 0x2828 JUMP JUMPDEST DUP2 ADD SUB SLT PUSH2 0x2C5 JUMPI MLOAD DUP11 SWAP3 SWAP2 PUSH32 0xABEE94125F370D81A42DEDAFA8C1E67BEAF3CAAE75F3236495F59336B6425C19 PUSH2 0x868 JUMP JUMPDEST POP RETURNDATASIZE PUSH2 0x924 JUMP JUMPDEST PUSH1 0xB ADD SLOAD GT ISZERO SWAP1 POP DUP11 DUP1 PUSH2 0x706 JUMP JUMPDEST PUSH1 0xFF NOT AND PUSH1 0x3 OR SWAP1 SSTORE DUP5 DUP1 PUSH2 0x6A8 JUMP JUMPDEST PUSH1 0x40 MLOAD PUSH3 0x461BCD PUSH1 0xE5 SHL DUP2 MSTORE PUSH1 0x4 DUP2 ADD DUP8 SWAP1 MSTORE PUSH1 0x25 PUSH1 0x24 DUP3 ADD MSTORE PUSH32 0x5061796D656E7420616D6F756E74206D75737420626520677265617465722074 PUSH1 0x44 DUP3 ADD MSTORE PUSH5 0x68616E203 PUSH1 0xDC SHL PUSH1 0x64 DUP3 ADD MSTORE PUSH1 0x84 SWAP1 REVERT JUMPDEST PUSH1 0x0 SWAP3 POP PUSH1 0x3 EQ SWAP1 POP PUSH2 0x699 PUSH2 0x68F JUMP JUMPDEST CALLVALUE PUSH2 0x2C5 JUMPI PUSH1 0x0 CALLDATASIZE PUSH1 0x3 NOT ADD SLT PUSH2 0x2C5 JUMPI PUSH1 0x20 PUSH1 0x40 MLOAD PUSH10 0x10F0CF064DD59200000 DUP2 MSTORE RETURN JUMPDEST CALLVALUE PUSH2 0x2C5 JUMPI PUSH1 0x0 CALLDATASIZE PUSH1 0x3 NOT ADD SLT PUSH2 0x2C5 JUMPI PUSH1 0x20 PUSH1 0x40 MLOAD PUSH1 0x64 DUP2 MSTORE RETURN JUMPDEST CALLVALUE PUSH2 0x2C5 JUMPI PUSH1 0x40 CALLDATASIZE PUSH1 0x3 NOT ADD SLT PUSH2 0x2C5 JUMPI PUSH2 0xA83 PUSH1 0x20 PUSH2 0xA49 PUSH2 0x26E7 JUMP JUMPDEST PUSH1 0x3 SLOAD PUSH1 0x40 MLOAD PUSH4 0xE1D824EB PUSH1 0xE0 SHL DUP2 MSTORE PUSH1 0x1 PUSH1 0x1 PUSH1 0xA0 SHL SUB SWAP3 DUP4 AND PUSH1 0x4 DUP3 ADD MSTORE PUSH1 0x24 DUP1 CALLDATALOAD SWAP1 DUP3 ADD MSTORE SWAP4 DUP5 SWAP3 SWAP1 SWAP2 AND SWAP1 DUP3 SWAP1 DUP2 SWAP1 PUSH1 0x44 DUP3 ADD SWAP1 JUMP JUMPDEST SUB SWAP2 GAS STATICCALL DUP1 ISZERO PUSH2 0x34E JUMPI PUSH1 0x0 SWAP1 PUSH2 0xAA0 JUMPI JUMPDEST PUSH1 0x20 SWAP1 PUSH1 0x40 MLOAD SWAP1 DUP2 MSTORE RETURN JUMPDEST POP PUSH1 0x20 DUP2 RETURNDATASIZE DUP3 GT PUSH2 0xACA JUMPI JUMPDEST DUP2 PUSH2 0xAB9 PUSH1 0x20 SWAP4 DUP4 PUSH2 0x2828 JUMP JUMPDEST DUP2 ADD SUB SLT PUSH2 0x2C5 JUMPI PUSH1 0x20 SWAP1 MLOAD PUSH2 0xA95 JUMP JUMPDEST RETURNDATASIZE SWAP2 POP PUSH2 0xAAC JUMP JUMPDEST CALLVALUE PUSH2 0x2C5 JUMPI PUSH1 0x20 CALLDATASIZE PUSH1 0x3 NOT ADD SLT PUSH2 0x2C5 JUMPI PUSH2 0xAEB PUSH2 0x26E7 JUMP JUMPDEST PUSH2 0xAF3 PUSH2 0x27A5 JUMP JUMPDEST PUSH1 0x1 PUSH1 0x1 PUSH1 0xA0 SHL SUB AND PUSH2 0xB07 DUP2 ISZERO ISZERO PUSH2 0x284A JUMP JUMPDEST DUP1 PUSH1 0x0 MSTORE PUSH1 0x8 PUSH1 0x20 MSTORE PUSH1 0x40 PUSH1 0x0 KECCAK256 PUSH1 0xFF NOT DUP2 SLOAD AND SWAP1 SSTORE PUSH32 0xF1A808C1051BC9771C03E8793808D5AE09B70D4BDC308A04B275EC7A0B8DDA99 PUSH1 0x0 DUP1 LOG2 STOP JUMPDEST CALLVALUE PUSH2 0x2C5 JUMPI PUSH1 0x0 CALLDATASIZE PUSH1 0x3 NOT ADD SLT PUSH2 0x2C5 JUMPI PUSH1 0x20 PUSH1 0x40 MLOAD PUSH3 0x3F480 DUP2 MSTORE RETURN JUMPDEST CALLVALUE PUSH2 0x2C5 JUMPI PUSH1 0x0 CALLDATASIZE PUSH1 0x3 NOT ADD SLT PUSH2 0x2C5 JUMPI PUSH1 0x20 PUSH1 0x40 MLOAD PUSH2 0x2710 DUP2 MSTORE RETURN JUMPDEST CALLVALUE PUSH2 0x2C5 JUMPI PUSH1 0xE0 CALLDATASIZE PUSH1 0x3 NOT ADD SLT PUSH2 0x2C5 JUMPI PUSH1 0xA4 CALLDATALOAD PUSH1 0x1 PUSH1 0x1 PUSH1 0xA0 SHL SUB DUP2 AND SWAP1 SUB PUSH2 0x2C5 JUMPI PUSH2 0xBAB PUSH2 0x28C3 JUMP JUMPDEST PUSH2 0xBB3 PUSH2 0x28A5 JUMP JUMPDEST CALLER PUSH1 0x0 MSTORE PUSH1 0x8 PUSH1 0x20 MSTORE PUSH1 0xFF PUSH1 0x40 PUSH1 0x0 KECCAK256 SLOAD AND ISZERO PUSH2 0x1288 JUMPI PUSH1 0x4 DUP1 CALLDATALOAD PUSH1 0x0 SWAP1 DUP2 MSTORE PUSH1 0x20 DUP3 SWAP1 MSTORE PUSH1 0x40 SWAP1 KECCAK256 ADD SLOAD PUSH1 0x8 SHR PUSH1 0x1 PUSH1 0x1 PUSH1 0xA0 SHL SUB AND PUSH2 0x124A JUMPI PUSH9 0x1B1AE4D6E2EF500000 PUSH1 0x24 CALLDATALOAD LT ISZERO DUP1 PUSH2 0x1234 JUMPI JUMPDEST ISZERO PUSH2 0x11F9 JUMPI PUSH1 0x44 CALLDATALOAD ISZERO ISZERO DUP1 PUSH2 0x11EB JUMPI JUMPDEST ISZERO PUSH2 0x11AE JUMPI PUSH3 0x278D00 PUSH1 0x84 CALLDATALOAD LT ISZERO DUP1 PUSH2 0x119F JUMPI JUMPDEST ISZERO PUSH2 0x1167 JUMPI PUSH3 0x278D00 PUSH1 0x84 CALLDATALOAD MOD PUSH2 0x1113 JUMPI PUSH1 0xC4 CALLDATALOAD ISZERO PUSH2 0x10CE JUMPI PUSH1 0xA4 CALLDATALOAD PUSH1 0x1 PUSH1 0x1 PUSH1 0xA0 SHL SUB AND PUSH1 0x0 SWAP1 DUP2 MSTORE PUSH1 0x7 PUSH1 0x20 MSTORE PUSH1 0x40 SWAP1 KECCAK256 SLOAD PUSH1 0xFF AND ISZERO PUSH2 0x1089 JUMPI PUSH1 0x40 MLOAD PUSH4 0x70A08231 PUSH1 0xE0 SHL DUP2 MSTORE CALLER PUSH1 0x4 DUP3 ADD MSTORE PUSH1 0x20 DUP2 PUSH1 0x24 DUP2 PUSH1 0xA4 CALLDATALOAD PUSH1 0x1 PUSH1 0x1 PUSH1 0xA0 SHL SUB AND GAS STATICCALL SWAP1 DUP2 ISZERO PUSH2 0x34E JUMPI PUSH1 0x0 SWAP2 PUSH2 0x1057 JUMPI JUMPDEST POP PUSH1 0xC4 CALLDATALOAD GT PUSH2 0x1012 JUMPI PUSH2 0xCB8 PUSH1 0xA4 CALLDATALOAD PUSH1 0x1 PUSH1 0x1 PUSH1 0xA0 SHL SUB AND ISZERO ISZERO PUSH2 0x284A JUMP JUMPDEST PUSH1 0x4 DUP1 CALLDATALOAD PUSH1 0x0 DUP2 DUP2 MSTORE PUSH1 0x20 DUP4 DUP2 MSTORE PUSH1 0x40 SWAP2 DUP3 SWAP1 KECCAK256 SWAP3 DUP4 SSTORE DUP3 DUP5 ADD DUP1 SLOAD PUSH1 0x1 PUSH2 0x100 PUSH1 0x1 PUSH1 0xA8 SHL SUB CALLER PUSH1 0x8 SHL AND PUSH1 0x1 PUSH1 0x1 PUSH1 0xA8 SHL SUB NOT DUP4 AND OR DUP2 OR SWAP1 SWAP3 SSTORE PUSH1 0x24 DUP1 CALLDATALOAD SWAP3 DUP7 ADD SWAP3 SWAP1 SWAP3 SSTORE PUSH1 0x44 DUP1 CALLDATALOAD PUSH1 0x2 DUP8 ADD SSTORE PUSH1 0x84 CALLDATALOAD PUSH1 0x3 DUP1 DUP9 ADD SWAP2 SWAP1 SWAP2 SSTORE PUSH1 0x5 DUP8 ADD DUP1 SLOAD PUSH1 0x1 PUSH1 0x1 PUSH1 0xA0 SHL SUB PUSH1 0xA4 CALLDATALOAD DUP2 AND PUSH1 0x1 PUSH1 0x1 PUSH1 0xA0 SHL SUB NOT SWAP1 SWAP3 AND DUP3 OR SWAP1 SWAP3 SSTORE PUSH1 0xC4 CALLDATALOAD PUSH1 0x6 DUP11 ADD DUP2 SWAP1 SSTORE SWAP3 SLOAD SWAP8 MLOAD PUSH4 0xE1D824EB PUSH1 0xE0 SHL DUP2 MSTORE SWAP10 DUP11 ADD MSTORE SWAP4 DUP9 ADD MSTORE SWAP5 SWAP6 SWAP5 SWAP1 SWAP4 DUP6 SWAP3 DUP4 SWAP2 AND GAS STATICCALL SWAP2 DUP3 ISZERO PUSH2 0x34E JUMPI PUSH1 0x0 SWAP3 PUSH2 0xFDE JUMPI JUMPDEST POP PUSH1 0x64 CALLDATALOAD PUSH1 0x3C DUP2 GT PUSH2 0xF99 JUMPI PUSH2 0xD8C PUSH1 0x64 SWAP2 DUP5 PUSH2 0x2935 JUMP JUMPDEST DIV PUSH1 0x24 CALLDATALOAD GT PUSH2 0xF54 JUMPI PUSH1 0x7 DUP4 ADD SWAP2 SWAP1 SWAP2 SSTORE PUSH2 0xDDF SWAP1 PUSH1 0xC4 CALLDATALOAD SWAP1 ADDRESS SWAP1 PUSH1 0x1 PUSH1 0x1 PUSH1 0xA8 SHL SUB NOT AND CALLER PUSH1 0x8 SWAP1 DUP2 SHL PUSH2 0x100 PUSH1 0x1 PUSH1 0xA8 SHL SUB AND SWAP2 SWAP1 SWAP2 OR PUSH1 0x1 OR SWAP1 SHR PUSH1 0x1 PUSH1 0x1 PUSH1 0xA0 SHL SUB SWAP1 DUP2 AND SWAP1 PUSH1 0xA4 CALLDATALOAD AND PUSH2 0x2D06 JUMP JUMPDEST PUSH3 0x278D00 TIMESTAMP ADD DUP1 TIMESTAMP GT PUSH2 0x5FC JUMPI PUSH1 0x8 DUP3 ADD SSTORE TIMESTAMP PUSH1 0xD DUP3 ADD SSTORE PUSH1 0x1 DUP2 ADD SLOAD PUSH3 0x278D00 PUSH1 0x84 CALLDATALOAD DIV SWAP2 PUSH2 0x2710 SWAP2 PUSH1 0x44 CALLDATALOAD DUP4 ADD DUP1 DUP5 GT PUSH2 0x5FC JUMPI PUSH2 0xE1E SWAP2 PUSH2 0x2935 JUMP JUMPDEST SWAP3 DUP1 DUP4 MUL SWAP3 DUP4 DIV DUP2 SUB PUSH2 0x5FC JUMPI PUSH2 0xE39 PUSH1 0xF SWAP4 PUSH1 0x0 SWAP6 PUSH2 0x2948 JUMP JUMPDEST SWAP1 PUSH1 0xB DUP4 ADD SSTORE PUSH1 0xC DUP3 ADD SSTORE DUP3 PUSH1 0x9 DUP3 ADD SSTORE DUP3 PUSH1 0xA DUP3 ADD SSTORE DUP3 PUSH1 0xE DUP3 ADD SSTORE ADD SSTORE CALLER PUSH1 0x0 MSTORE PUSH1 0x5 PUSH1 0x20 MSTORE PUSH1 0x40 PUSH1 0x0 KECCAK256 DUP1 SLOAD PUSH1 0x1 PUSH1 0x40 SHL DUP2 LT ISZERO PUSH2 0x7D5 JUMPI PUSH2 0xE83 SWAP2 PUSH1 0x1 DUP3 ADD DUP2 SSTORE PUSH2 0x278D JUMP JUMPDEST DUP2 SLOAD SWAP1 PUSH1 0x3 SHL SWAP1 PUSH1 0x4 CALLDATALOAD DUP3 SHL SWAP2 PUSH1 0x0 NOT SWAP1 SHL NOT AND OR SWAP1 SSTORE PUSH2 0xEA5 PUSH1 0x2 SLOAD PUSH2 0x2896 JUMP JUMPDEST PUSH1 0x2 SSTORE PUSH1 0x40 MLOAD PUSH1 0x24 CALLDATALOAD DUP2 MSTORE PUSH1 0x44 CALLDATALOAD PUSH1 0x20 DUP3 ADD MSTORE PUSH1 0x84 CALLDATALOAD PUSH1 0x40 DUP3 ADD MSTORE PUSH1 0x1 DUP1 PUSH1 0xA0 SHL SUB PUSH1 0xA4 CALLDATALOAD AND PUSH1 0x60 DUP3 ADD MSTORE PUSH1 0xC4 CALLDATALOAD PUSH1 0x80 DUP3 ADD MSTORE CALLER SWAP1 PUSH32 0x168C53534AB480A206BC09BAFC5D4731A8B7BF36FA1D115BB15159B801CDD095 PUSH1 0xA0 PUSH1 0x4 CALLDATALOAD SWAP3 LOG3 PUSH1 0x40 DUP1 MLOAD PUSH1 0xA4 CALLDATALOAD PUSH1 0x1 PUSH1 0x1 PUSH1 0xA0 SHL SUB AND DUP2 MSTORE PUSH1 0xC4 CALLDATALOAD PUSH1 0x20 DUP3 ADD MSTORE PUSH1 0x4 CALLDATALOAD SWAP2 PUSH32 0x93C421AD2D07A35503EBCC2501422BA043643EC143EB79ACB4C5FF402F45E12E SWAP2 LOG2 PUSH1 0x1 PUSH1 0x0 SSTORE PUSH1 0x20 PUSH1 0x40 MLOAD PUSH1 0x4 CALLDATALOAD DUP2 MSTORE RETURN JUMPDEST PUSH1 0x40 MLOAD PUSH3 0x461BCD PUSH1 0xE5 SHL DUP2 MSTORE PUSH1 0x20 PUSH1 0x4 DUP3 ADD MSTORE PUSH1 0x1D PUSH1 0x24 DUP3 ADD MSTORE PUSH32 0x4C6F616E20616D6F756E742065786365656473206D6178206C696D6974000000 PUSH1 0x44 DUP3 ADD MSTORE PUSH1 0x64 SWAP1 REVERT JUMPDEST PUSH1 0x40 MLOAD PUSH3 0x461BCD PUSH1 0xE5 SHL DUP2 MSTORE PUSH1 0x20 PUSH1 0x4 DUP3 ADD MSTORE PUSH1 0x1B PUSH1 0x24 DUP3 ADD MSTORE PUSH32 0x4C54562065786365656473206D6178696D756D20616C6C6F7765640000000000 PUSH1 0x44 DUP3 ADD MSTORE PUSH1 0x64 SWAP1 REVERT JUMPDEST SWAP1 SWAP2 POP PUSH1 0x20 DUP2 RETURNDATASIZE PUSH1 0x20 GT PUSH2 0x100A JUMPI JUMPDEST DUP2 PUSH2 0xFFA PUSH1 0x20 SWAP4 DUP4 PUSH2 0x2828 JUMP JUMPDEST DUP2 ADD SUB SLT PUSH2 0x2C5 JUMPI MLOAD SWAP1 DUP4 PUSH2 0xD74 JUMP JUMPDEST RETURNDATASIZE SWAP2 POP PUSH2 0xFED JUMP JUMPDEST PUSH1 0x40 MLOAD PUSH3 0x461BCD PUSH1 0xE5 SHL DUP2 MSTORE PUSH1 0x20 PUSH1 0x4 DUP3 ADD MSTORE PUSH1 0x1F PUSH1 0x24 DUP3 ADD MSTORE PUSH32 0x496E73756666696369656E7420636F6C6C61746572616C2062616C616E636500 PUSH1 0x44 DUP3 ADD MSTORE PUSH1 0x64 SWAP1 REVERT JUMPDEST SWAP1 POP PUSH1 0x20 DUP2 RETURNDATASIZE PUSH1 0x20 GT PUSH2 0x1081 JUMPI JUMPDEST DUP2 PUSH2 0x1072 PUSH1 0x20 SWAP4 DUP4 PUSH2 0x2828 JUMP JUMPDEST DUP2 ADD SUB SLT PUSH2 0x2C5 JUMPI MLOAD DUP2 PUSH2 0xC99 JUMP JUMPDEST RETURNDATASIZE SWAP2 POP PUSH2 0x1065 JUMP JUMPDEST PUSH1 0x40 MLOAD PUSH3 0x461BCD PUSH1 0xE5 SHL DUP2 MSTORE PUSH1 0x20 PUSH1 0x4 DUP3 ADD MSTORE PUSH1 0x1C PUSH1 0x24 DUP3 ADD MSTORE PUSH32 0x556E737570706F7274656420636F6C6C61746572616C20746F6B656E00000000 PUSH1 0x44 DUP3 ADD MSTORE PUSH1 0x64 SWAP1 REVERT JUMPDEST PUSH1 0x40 MLOAD PUSH3 0x461BCD PUSH1 0xE5 SHL DUP2 MSTORE PUSH1 0x20 PUSH1 0x4 DUP3 ADD MSTORE PUSH1 0x19 PUSH1 0x24 DUP3 ADD MSTORE PUSH32 0x496E76616C696420636F6C6C61746572616C20616D6F756E7400000000000000 PUSH1 0x44 DUP3 ADD MSTORE PUSH1 0x64 SWAP1 REVERT JUMPDEST PUSH1 0x40 MLOAD PUSH3 0x461BCD PUSH1 0xE5 SHL DUP2 MSTORE PUSH1 0x20 PUSH1 0x4 DUP3 ADD MSTORE PUSH1 0x26 PUSH1 0x24 DUP3 ADD MSTORE PUSH32 0x4475726174696F6E206D7573742062652061206D756C7469706C65206F662033 PUSH1 0x44 DUP3 ADD MSTORE PUSH6 0x302064617973 PUSH1 0xD0 SHL PUSH1 0x64 DUP3 ADD MSTORE PUSH1 0x84 SWAP1 REVERT JUMPDEST PUSH1 0x40 MLOAD PUSH3 0x461BCD PUSH1 0xE5 SHL DUP2 MSTORE PUSH1 0x20 PUSH1 0x4 DUP3 ADD MSTORE PUSH1 0x10 PUSH1 0x24 DUP3 ADD MSTORE PUSH16 0x24B73B30B634B210323AB930BA34B7B7 PUSH1 0x81 SHL PUSH1 0x44 DUP3 ADD MSTORE PUSH1 0x64 SWAP1 REVERT JUMPDEST POP PUSH3 0xED4E00 PUSH1 0x84 CALLDATALOAD GT ISZERO PUSH2 0xC27 JUMP JUMPDEST PUSH1 0x40 MLOAD PUSH3 0x461BCD PUSH1 0xE5 SHL DUP2 MSTORE PUSH1 0x20 PUSH1 0x4 DUP3 ADD MSTORE PUSH1 0x15 PUSH1 0x24 DUP3 ADD MSTORE PUSH21 0x496E76616C696420696E7465726573742072617465 PUSH1 0x58 SHL PUSH1 0x44 DUP3 ADD MSTORE PUSH1 0x64 SWAP1 REVERT JUMPDEST POP PUSH2 0x1388 PUSH1 0x44 CALLDATALOAD GT ISZERO PUSH2 0xC13 JUMP JUMPDEST PUSH1 0x40 MLOAD PUSH3 0x461BCD PUSH1 0xE5 SHL DUP2 MSTORE PUSH1 0x20 PUSH1 0x4 DUP3 ADD MSTORE PUSH1 0x13 PUSH1 0x24 DUP3 ADD MSTORE PUSH19 0x125B9D985B1A59081B1BD85B88185B5BDD5B9D PUSH1 0x6A SHL PUSH1 0x44 DUP3 ADD MSTORE PUSH1 0x64 SWAP1 REVERT JUMPDEST POP PUSH10 0x10F0CF064DD59200000 PUSH1 0x24 CALLDATALOAD GT ISZERO PUSH2 0xC03 JUMP JUMPDEST PUSH1 0x40 MLOAD PUSH3 0x461BCD PUSH1 0xE5 SHL DUP2 MSTORE PUSH1 0x20 PUSH1 0x4 DUP3 ADD MSTORE PUSH1 0x16 PUSH1 0x24 DUP3 ADD MSTORE PUSH22 0x4C6F616E20494420616C726561647920657869737473 PUSH1 0x50 SHL PUSH1 0x44 DUP3 ADD MSTORE PUSH1 0x64 SWAP1 REVERT JUMPDEST PUSH1 0x40 MLOAD PUSH3 0x461BCD PUSH1 0xE5 SHL DUP2 MSTORE PUSH1 0x20 PUSH1 0x4 DUP3 ADD MSTORE PUSH1 0x17 PUSH1 0x24 DUP3 ADD MSTORE PUSH32 0x426F72726F776572206E6F7420617574686F72697A6564000000000000000000 PUSH1 0x44 DUP3 ADD MSTORE PUSH1 0x64 SWAP1 REVERT JUMPDEST CALLVALUE PUSH2 0x2C5 JUMPI PUSH1 0x20 CALLDATASIZE PUSH1 0x3 NOT ADD SLT PUSH2 0x2C5 JUMPI PUSH2 0x12E6 PUSH2 0x26E7 JUMP JUMPDEST PUSH2 0x12EE PUSH2 0x27A5 JUMP JUMPDEST PUSH1 0x1 PUSH1 0x1 PUSH1 0xA0 SHL SUB AND PUSH2 0x1302 DUP2 ISZERO ISZERO PUSH2 0x284A JUMP JUMPDEST DUP1 PUSH1 0x0 MSTORE PUSH1 0x8 PUSH1 0x20 MSTORE PUSH1 0x40 PUSH1 0x0 KECCAK256 PUSH1 0x1 PUSH1 0xFF NOT DUP3 SLOAD AND OR SWAP1 SSTORE PUSH32 0x5306E71AC264D8D9B9A30293CD54640819975A8CECD6ECC6B42D7D4B0D34DA49 PUSH1 0x0 DUP1 LOG2 STOP JUMPDEST CALLVALUE PUSH2 0x2C5 JUMPI PUSH2 0x1350 CALLDATASIZE PUSH2 0x275B JUMP JUMPDEST SWAP1 PUSH1 0x0 MSTORE PUSH1 0x6 PUSH1 0x20 MSTORE PUSH1 0x40 PUSH1 0x0 KECCAK256 DUP1 SLOAD DUP3 LT ISZERO PUSH2 0x2C5 JUMPI PUSH1 0x80 SWAP2 PUSH2 0x1373 SWAP2 PUSH2 0x2771 JUMP JUMPDEST POP DUP1 SLOAD SWAP1 PUSH1 0x1 DUP2 ADD SLOAD SWAP1 PUSH1 0x3 PUSH1 0x2 DUP3 ADD SLOAD SWAP2 ADD SLOAD SWAP2 PUSH1 0x40 MLOAD SWAP4 DUP5 MSTORE PUSH1 0x20 DUP5 ADD MSTORE PUSH1 0x40 DUP4 ADD MSTORE PUSH1 0x60 DUP3 ADD MSTORE RETURN JUMPDEST PUSH2 0x26FD JUMP JUMPDEST CALLVALUE PUSH2 0x2C5 JUMPI PUSH1 0x20 CALLDATASIZE PUSH1 0x3 NOT ADD SLT PUSH2 0x2C5 JUMPI PUSH2 0x13C0 PUSH1 0x4 CALLDATALOAD PUSH2 0x2968 JUMP JUMPDEST SWAP1 PUSH2 0x13DF PUSH1 0x40 MLOAD SWAP3 DUP4 SWAP3 ISZERO ISZERO DUP4 MSTORE PUSH1 0x40 PUSH1 0x20 DUP5 ADD MSTORE PUSH1 0x40 DUP4 ADD SWAP1 PUSH2 0x271B JUMP JUMPDEST SUB SWAP1 RETURN JUMPDEST CALLVALUE PUSH2 0x2C5 JUMPI PUSH1 0x0 CALLDATASIZE PUSH1 0x3 NOT ADD SLT PUSH2 0x2C5 JUMPI PUSH1 0x20 PUSH1 0x40 MLOAD PUSH9 0x1B1AE4D6E2EF500000 DUP2 MSTORE RETURN JUMPDEST CALLVALUE PUSH2 0x2C5 JUMPI PUSH1 0x40 CALLDATASIZE PUSH1 0x3 NOT ADD SLT PUSH2 0x2C5 JUMPI PUSH2 0x1420 PUSH2 0x26E7 JUMP JUMPDEST PUSH1 0x24 CALLDATALOAD PUSH2 0x142B PUSH2 0x27A5 JUMP JUMPDEST PUSH1 0x1 PUSH1 0x1 PUSH1 0xA0 SHL SUB SWAP2 DUP3 AND SWAP2 PUSH2 0x1442 DUP4 ISZERO ISZERO PUSH2 0x284A JUMP JUMPDEST DUP2 ISZERO PUSH2 0x1487 JUMPI DUP2 PUSH2 0x147E PUSH32 0x5FAFA99D0643513820BE26656B45130B01E1C03062E1266BF36F88CBD3BD9695 SWAP4 PUSH1 0x20 SWAP4 PUSH1 0x1 SLOAD PUSH1 0x8 SHR AND DUP7 PUSH2 0x2BE8 JUMP JUMPDEST PUSH1 0x40 MLOAD SWAP1 DUP2 MSTORE LOG2 STOP JUMPDEST PUSH1 0x64 PUSH1 0x40 MLOAD PUSH3 0x461BCD PUSH1 0xE5 SHL DUP2 MSTORE PUSH1 0x20 PUSH1 0x4 DUP3 ADD MSTORE PUSH1 0x20 PUSH1 0x24 DUP3 ADD MSTORE PUSH32 0x416D6F756E74206D7573742062652067726561746572207468616E207A65726F PUSH1 0x44 DUP3 ADD MSTORE REVERT JUMPDEST CALLVALUE PUSH2 0x2C5 JUMPI PUSH1 0x20 CALLDATASIZE PUSH1 0x3 NOT ADD SLT PUSH2 0x2C5 JUMPI PUSH1 0x1 PUSH1 0x1 PUSH1 0xA0 SHL SUB PUSH2 0x14EC PUSH2 0x26E7 JUMP JUMPDEST AND PUSH1 0x0 MSTORE PUSH1 0x8 PUSH1 0x20 MSTORE PUSH1 0x20 PUSH1 0xFF PUSH1 0x40 PUSH1 0x0 KECCAK256 SLOAD AND PUSH1 0x40 MLOAD SWAP1 ISZERO ISZERO DUP2 MSTORE RETURN JUMPDEST CALLVALUE PUSH2 0x2C5 JUMPI PUSH1 0x0 CALLDATASIZE PUSH1 0x3 NOT ADD SLT PUSH2 0x2C5 JUMPI PUSH1 0x1 SLOAD PUSH1 0x40 MLOAD PUSH1 0x8 SWAP2 SWAP1 SWAP2 SHR PUSH1 0x1 PUSH1 0x1 PUSH1 0xA0 SHL SUB AND DUP2 MSTORE PUSH1 0x20 SWAP1 RETURN JUMPDEST PUSH1 0x20 CALLDATASIZE PUSH1 0x3 NOT ADD SLT PUSH2 0x2C5 JUMPI PUSH1 0x4 CALLDATALOAD PUSH2 0x154E PUSH2 0x28C3 JUMP JUMPDEST PUSH2 0x1556 PUSH2 0x27A5 JUMP JUMPDEST PUSH2 0x155E PUSH2 0x28A5 JUMP JUMPDEST DUP1 PUSH1 0x0 MSTORE PUSH1 0x4 PUSH1 0x20 MSTORE PUSH1 0xFF PUSH1 0x4 PUSH1 0x40 PUSH1 0x0 KECCAK256 ADD SLOAD AND PUSH1 0x8 DUP2 LT ISZERO PUSH2 0x45C JUMPI PUSH1 0x1 PUSH2 0x1588 SWAP2 EQ PUSH2 0x28E6 JUMP JUMPDEST DUP1 PUSH1 0x0 MSTORE PUSH1 0x4 PUSH1 0x20 MSTORE PUSH1 0x40 PUSH1 0x0 KECCAK256 PUSH1 0x4 DUP2 ADD SWAP1 DUP2 SLOAD SWAP2 PUSH1 0xFF DUP4 AND PUSH1 0x8 DUP2 LT ISZERO PUSH2 0x45C JUMPI PUSH1 0x1 SUB PUSH2 0x15FA JUMPI PUSH1 0x2 PUSH1 0x1 SWAP4 PUSH1 0xFF NOT AND OR SWAP1 SSTORE TIMESTAMP PUSH1 0xE DUP3 ADD SSTORE ADD SLOAD SWAP1 PUSH1 0x40 MLOAD SWAP2 DUP3 MSTORE PUSH32 0xBD7EF6C6281278F6C8AC4AE9EF2F205B52425813C288DD47C377CB6B59C5076E PUSH1 0x20 CALLER SWAP4 LOG3 PUSH1 0x1 PUSH1 0x0 SSTORE STOP JUMPDEST PUSH1 0x40 MLOAD PUSH3 0x461BCD PUSH1 0xE5 SHL DUP2 MSTORE PUSH1 0x20 PUSH1 0x4 DUP3 ADD MSTORE PUSH1 0xF PUSH1 0x24 DUP3 ADD MSTORE PUSH15 0x4C6F616E206E6F7420616374697665 PUSH1 0x88 SHL PUSH1 0x44 DUP3 ADD MSTORE PUSH1 0x64 SWAP1 REVERT JUMPDEST CALLVALUE PUSH2 0x2C5 JUMPI PUSH1 0x0 CALLDATASIZE PUSH1 0x3 NOT ADD SLT PUSH2 0x2C5 JUMPI PUSH2 0x164A PUSH2 0x27A5 JUMP JUMPDEST PUSH2 0x1652 PUSH2 0x28A5 JUMP JUMPDEST PUSH1 0x1 PUSH1 0xFF NOT DUP2 SLOAD AND OR PUSH1 0x1 SSTORE PUSH32 0x62E78CEA01BEE320CD4E420270B5EA74000D11B0C9F74754EBDBFC544B05A258 PUSH1 0x20 PUSH1 0x40 MLOAD CALLER DUP2 MSTORE LOG1 CALLER PUSH32 0x81990FD9A5C552B8E3677917D8A03C07678F0D2CB68F88B634ACA2022E9BD19F PUSH1 0x0 DUP1 LOG2 STOP JUMPDEST CALLVALUE PUSH2 0x2C5 JUMPI PUSH1 0x0 CALLDATASIZE PUSH1 0x3 NOT ADD SLT PUSH2 0x2C5 JUMPI PUSH1 0x20 PUSH1 0x40 MLOAD PUSH1 0x3C DUP2 MSTORE RETURN JUMPDEST CALLVALUE PUSH2 0x2C5 JUMPI PUSH1 0x20 CALLDATASIZE PUSH1 0x3 NOT ADD SLT PUSH2 0x2C5 JUMPI PUSH2 0x16E5 PUSH2 0x26E7 JUMP JUMPDEST PUSH2 0x16ED PUSH2 0x27A5 JUMP JUMPDEST PUSH1 0x1 PUSH1 0x1 PUSH1 0xA0 SHL SUB AND PUSH2 0x1701 DUP2 ISZERO ISZERO PUSH2 0x284A JUMP JUMPDEST DUP1 PUSH1 0x0 MSTORE PUSH1 0x7 PUSH1 0x20 MSTORE PUSH1 0x40 PUSH1 0x0 KECCAK256 PUSH1 0xFF NOT DUP2 SLOAD AND SWAP1 SSTORE PUSH32 0xBEA12876694C4055C71F74308F752B9027CF3D554194000A366ABDDFC239A306 PUSH1 0x0 DUP1 LOG2 STOP JUMPDEST CALLVALUE PUSH2 0x2C5 JUMPI PUSH1 0x0 CALLDATASIZE PUSH1 0x3 NOT ADD SLT PUSH2 0x2C5 JUMPI PUSH2 0x1757 PUSH2 0x27A5 JUMP JUMPDEST PUSH1 0x1 DUP1 SLOAD PUSH2 0x100 PUSH1 0x1 PUSH1 0xA8 SHL SUB NOT DUP2 AND SWAP1 SWAP2 SSTORE PUSH1 0x0 SWAP1 PUSH1 0x8 SHR PUSH1 0x1 PUSH1 0x1 PUSH1 0xA0 SHL SUB AND PUSH32 0x8BE0079C531659141344CD1FD0A4F28419497F9722A3DAAFE3B4186F6B6457E0 DUP3 DUP1 LOG3 STOP JUMPDEST CALLVALUE PUSH2 0x2C5 JUMPI PUSH1 0x20 CALLDATASIZE PUSH1 0x3 NOT ADD SLT PUSH2 0x2C5 JUMPI PUSH2 0x17B8 PUSH2 0x26E7 JUMP JUMPDEST PUSH2 0x17C0 PUSH2 0x27A5 JUMP JUMPDEST PUSH1 0x1 PUSH1 0x1 PUSH1 0xA0 SHL SUB AND PUSH2 0x17D4 DUP2 ISZERO ISZERO PUSH2 0x284A JUMP JUMPDEST DUP1 PUSH1 0x0 MSTORE PUSH1 0x7 PUSH1 0x20 MSTORE PUSH1 0x40 PUSH1 0x0 KECCAK256 PUSH1 0x1 PUSH1 0xFF NOT DUP3 SLOAD AND OR SWAP1 SSTORE PUSH32 0xD1BE2E90BD3D24839D9DD94AD871068E1F9688B02FA43F2A62C9975DFA9DE2D7 PUSH1 0x0 DUP1 LOG2 STOP JUMPDEST CALLVALUE PUSH2 0x2C5 JUMPI PUSH1 0x20 CALLDATASIZE PUSH1 0x3 NOT ADD SLT PUSH2 0x2C5 JUMPI PUSH1 0x1 PUSH1 0x1 PUSH1 0xA0 SHL SUB PUSH2 0x1835 PUSH2 0x26E7 JUMP JUMPDEST AND PUSH1 0x0 MSTORE PUSH1 0x7 PUSH1 0x20 MSTORE PUSH1 0x20 PUSH1 0xFF PUSH1 0x40 PUSH1 0x0 KECCAK256 SLOAD AND PUSH1 0x40 MLOAD SWAP1 ISZERO ISZERO DUP2 MSTORE RETURN JUMPDEST CALLVALUE PUSH2 0x2C5 JUMPI PUSH1 0x20 DUP1 PUSH1 0x3 NOT CALLDATASIZE ADD SLT PUSH2 0x2C5 JUMPI PUSH1 0x4 CALLDATALOAD PUSH1 0x0 MSTORE PUSH1 0x4 DUP2 MSTORE PUSH1 0x10 PUSH1 0x40 PUSH1 0x0 KECCAK256 ADD SWAP1 DUP2 SLOAD PUSH2 0x1883 DUP2 PUSH2 0x2D5F JUMP JUMPDEST SWAP1 PUSH2 0x1891 PUSH1 0x40 MLOAD SWAP3 DUP4 PUSH2 0x2828 JUMP JUMPDEST DUP1 DUP3 MSTORE DUP3 DUP3 ADD DUP1 SWAP5 PUSH1 0x0 MSTORE DUP4 PUSH1 0x0 KECCAK256 PUSH1 0x0 SWAP2 JUMPDEST DUP4 DUP4 LT PUSH2 0x18EF JUMPI PUSH1 0x40 DUP1 MLOAD DUP8 DUP2 MSTORE DUP7 MLOAD DUP2 DUP10 ADD DUP2 SWAP1 MSTORE DUP10 SWAP3 DUP3 ADD SWAP1 DUP10 PUSH1 0x0 JUMPDEST DUP3 DUP2 LT PUSH2 0x18D0 JUMPI DUP5 DUP5 SUB DUP6 RETURN JUMPDEST DUP6 MLOAD DUP1 MLOAD DUP6 MSTORE DUP3 ADD MLOAD DUP5 DUP4 ADD MSTORE SWAP5 DUP2 ADD SWAP5 PUSH1 0x40 SWAP1 SWAP4 ADD SWAP3 PUSH1 0x1 ADD PUSH2 0x18C3 JUMP JUMPDEST PUSH1 0x2 DUP7 PUSH1 0x1 SWAP3 PUSH1 0x40 MLOAD PUSH2 0x1901 DUP2 PUSH2 0x27D4 JUMP JUMPDEST DUP6 SLOAD DUP2 MSTORE DUP5 DUP7 ADD SLOAD DUP4 DUP3 ADD MSTORE DUP2 MSTORE ADD SWAP3 ADD SWAP3 ADD SWAP2 SWAP1 PUSH2 0x18A4 JUMP JUMPDEST CALLVALUE PUSH2 0x2C5 JUMPI PUSH1 0x0 CALLDATASIZE PUSH1 0x3 NOT ADD SLT PUSH2 0x2C5 JUMPI PUSH1 0x20 PUSH1 0xFF PUSH1 0x1 SLOAD AND PUSH1 0x40 MLOAD SWAP1 ISZERO ISZERO DUP2 MSTORE RETURN JUMPDEST CALLVALUE PUSH2 0x2C5 JUMPI PUSH1 0x20 CALLDATASIZE PUSH1 0x3 NOT ADD SLT PUSH2 0x2C5 JUMPI PUSH2 0x1957 PUSH2 0x26E7 JUMP JUMPDEST PUSH2 0x195F PUSH2 0x27A5 JUMP JUMPDEST PUSH1 0x1 PUSH1 0x1 PUSH1 0xA0 SHL SUB AND PUSH2 0x1973 DUP2 ISZERO ISZERO PUSH2 0x284A JUMP JUMPDEST PUSH1 0x3 DUP1 SLOAD PUSH1 0x1 PUSH1 0x1 PUSH1 0xA0 SHL SUB NOT AND DUP3 OR SWAP1 SSTORE PUSH32 0xB36D86785C7D32B1AD714BB705E00E93ECCC37B8CF47549043E61E10908AD251 PUSH1 0x0 DUP1 LOG2 STOP JUMPDEST CALLVALUE PUSH2 0x2C5 JUMPI PUSH1 0x0 CALLDATASIZE PUSH1 0x3 NOT ADD SLT PUSH2 0x2C5 JUMPI PUSH1 0x20 PUSH1 0x2 SLOAD PUSH1 0x40 MLOAD SWAP1 DUP2 MSTORE RETURN JUMPDEST CALLVALUE PUSH2 0x2C5 JUMPI PUSH1 0x0 CALLDATASIZE PUSH1 0x3 NOT ADD SLT PUSH2 0x2C5 JUMPI PUSH2 0x19E3 PUSH2 0x27A5 JUMP JUMPDEST PUSH2 0x19EB PUSH2 0x28A5 JUMP JUMPDEST PUSH1 0x1 PUSH1 0xFF NOT DUP2 SLOAD AND OR PUSH1 0x1 SSTORE PUSH32 0x62E78CEA01BEE320CD4E420270B5EA74000D11B0C9F74754EBDBFC544B05A258 PUSH1 0x20 PUSH1 0x40 MLOAD CALLER DUP2 MSTORE LOG1 STOP JUMPDEST CALLVALUE PUSH2 0x2C5 JUMPI PUSH1 0x20 CALLDATASIZE PUSH1 0x3 NOT ADD SLT PUSH2 0x2C5 JUMPI PUSH1 0x4 CALLDATALOAD DUP1 PUSH1 0x0 MSTORE PUSH1 0x4 PUSH1 0x20 MSTORE PUSH2 0x1A5E PUSH1 0x1 DUP1 PUSH1 0xA0 SHL SUB PUSH1 0x4 PUSH1 0x40 PUSH1 0x0 KECCAK256 ADD SLOAD PUSH1 0x8 SHR AND ISZERO ISZERO PUSH2 0x2D77 JUMP JUMPDEST PUSH1 0x0 MSTORE PUSH1 0x4 PUSH1 0x20 MSTORE PUSH1 0x40 PUSH1 0x0 KECCAK256 PUSH1 0x1 DUP2 ADD SLOAD PUSH1 0x2 DUP3 ADD SLOAD SWAP2 PUSH1 0x3 DUP2 ADD SLOAD PUSH1 0x4 DUP3 ADD SLOAD PUSH1 0x8 PUSH1 0xFF DUP3 AND LT ISZERO PUSH2 0x45C JUMPI PUSH1 0x1 PUSH1 0xA0 SHL PUSH1 0x1 SWAP1 SUB PUSH1 0x5 DUP5 ADD SLOAD AND PUSH1 0x6 DUP5 ADD SLOAD PUSH1 0x8 DUP6 ADD SLOAD PUSH1 0x9 DUP7 ADD SLOAD PUSH1 0xA DUP8 ADD SLOAD SWAP2 PUSH1 0xB DUP9 ADD SLOAD SWAP4 PUSH1 0xC DUP10 ADD SLOAD SWAP6 PUSH1 0xD DUP11 ADD SLOAD SWAP8 PUSH1 0xE DUP12 ADD SLOAD SWAP10 PUSH1 0xF DUP13 ADD SLOAD SWAP12 PUSH1 0x10 ADD SLOAD SWAP13 PUSH1 0x40 MLOAD SWAP15 DUP16 SWAP2 DUP3 MSTORE PUSH1 0x20 DUP3 ADD MSTORE PUSH1 0x40 ADD MSTORE DUP13 PUSH1 0xFF DUP3 AND SWAP1 PUSH1 0x60 ADD MSTORE PUSH1 0x1 PUSH1 0xA0 SHL PUSH1 0x1 SWAP1 SUB SWAP1 PUSH1 0x8 SHR AND PUSH1 0x80 DUP14 ADD MSTORE PUSH1 0xA0 DUP13 ADD MSTORE PUSH1 0xC0 DUP12 ADD MSTORE PUSH1 0xE0 DUP11 ADD MSTORE PUSH2 0x100 DUP10 ADD MSTORE PUSH2 0x120 DUP9 ADD MSTORE PUSH2 0x140 DUP8 ADD MSTORE PUSH2 0x160 DUP7 ADD MSTORE PUSH2 0x180 DUP6 ADD MSTORE PUSH2 0x1A0 DUP5 ADD MSTORE PUSH2 0x1C0 DUP4 ADD MSTORE PUSH2 0x1E0 DUP3 ADD MSTORE PUSH2 0x200 SWAP1 RETURN JUMPDEST CALLVALUE PUSH2 0x2C5 JUMPI PUSH1 0x20 CALLDATASIZE PUSH1 0x3 NOT ADD SLT PUSH2 0x2C5 JUMPI PUSH1 0x4 CALLDATALOAD PUSH2 0x1B62 PUSH2 0x28C3 JUMP JUMPDEST PUSH2 0x1B6A PUSH2 0x28A5 JUMP JUMPDEST DUP1 PUSH1 0x0 MSTORE PUSH1 0x4 PUSH1 0x20 MSTORE PUSH1 0x40 PUSH1 0x0 KECCAK256 PUSH1 0xFF PUSH1 0x4 DUP3 ADD SLOAD AND PUSH1 0x8 DUP2 LT ISZERO PUSH2 0x45C JUMPI PUSH1 0x3 SUB PUSH2 0x1C17 JUMPI PUSH1 0x8 ADD SLOAD PUSH3 0x3F480 DUP2 ADD DUP1 SWAP2 GT PUSH2 0x5FC JUMPI TIMESTAMP GT ISZERO PUSH2 0x1BD9 JUMPI PUSH32 0xF5C2E2FF5A0AA88C6E9352BE55B58E2C44042366EA1A2E7A63B3B8AD3EF36C49 PUSH1 0x20 PUSH1 0x40 MLOAD TIMESTAMP DUP2 MSTORE LOG2 PUSH1 0x1 PUSH1 0x0 SSTORE STOP JUMPDEST PUSH1 0x40 MLOAD PUSH3 0x461BCD PUSH1 0xE5 SHL DUP2 MSTORE PUSH1 0x20 PUSH1 0x4 DUP3 ADD MSTORE PUSH1 0x16 PUSH1 0x24 DUP3 ADD MSTORE PUSH22 0x131BD85B881B9BDD081E595D08191959985D5B1D1959 PUSH1 0x52 SHL PUSH1 0x44 DUP3 ADD MSTORE PUSH1 0x64 SWAP1 REVERT JUMPDEST PUSH1 0x40 MLOAD PUSH3 0x461BCD PUSH1 0xE5 SHL DUP2 MSTORE PUSH1 0x20 PUSH1 0x4 DUP3 ADD MSTORE PUSH1 0x1B PUSH1 0x24 DUP3 ADD MSTORE PUSH32 0x4C6F616E206E6F7420696E207265706179696E67207374617475730000000000 PUSH1 0x44 DUP3 ADD MSTORE PUSH1 0x64 SWAP1 REVERT JUMPDEST CALLVALUE PUSH2 0x2C5 JUMPI PUSH1 0x20 DUP1 PUSH1 0x3 NOT CALLDATASIZE ADD SLT PUSH2 0x2C5 JUMPI PUSH1 0x4 CALLDATALOAD SWAP1 PUSH2 0x1C7A PUSH2 0x27A5 JUMP JUMPDEST PUSH2 0x1C82 PUSH2 0x28C3 JUMP JUMPDEST PUSH2 0x1C8A PUSH2 0x28A5 JUMP JUMPDEST PUSH2 0x1C93 DUP3 PUSH2 0x2968 JUMP JUMPDEST SWAP1 ISZERO PUSH2 0x2080 JUMPI DUP1 MLOAD PUSH32 0xE87790CD2482AEC77DCF381135C466436DBE178A187D1769A7A65A6EF091AA0C DUP4 DUP4 ADD SWAP2 DUP3 KECCAK256 PUSH10 0x98A8AC40C4E4CAC2C6D PUSH1 0xB3 SHL DUP6 PUSH1 0x40 MLOAD PUSH2 0x1CDD DUP2 PUSH2 0x27D4 JUMP JUMPDEST PUSH1 0xA DUP2 MSTORE ADD MSTORE SUB PUSH2 0x1E01 JUMPI POP POP DUP2 PUSH1 0x0 MSTORE PUSH1 0x9 DUP2 MSTORE PUSH2 0x1D07 PUSH1 0xFF PUSH1 0x3 PUSH1 0x40 PUSH1 0x0 KECCAK256 ADD SLOAD AND ISZERO PUSH2 0x2B9C JUMP JUMPDEST DUP2 PUSH1 0x0 MSTORE PUSH1 0x4 DUP2 MSTORE PUSH1 0x40 PUSH1 0x0 KECCAK256 SWAP1 PUSH1 0x6 DUP3 ADD SLOAD PUSH1 0x3 DUP2 MUL SWAP2 DUP2 DUP4 DIV PUSH1 0x3 EQ DUP3 ISZERO OR ISZERO PUSH2 0x5FC JUMPI PUSH32 0x2F419EAA9C093C6E137C2CDD9C302BEC5FEEA565A6E4A6133616FB6E9A8D5493 SWAP4 PUSH2 0x1D5E PUSH1 0x64 PUSH1 0x40 SWAP6 DIV DUP5 PUSH2 0x2928 JUMP JUMPDEST SWAP3 DUP1 DUP5 GT PUSH2 0x1DF7 JUMPI JUMPDEST POP DUP3 PUSH1 0x5 PUSH2 0x1DE4 SWAP3 PUSH2 0x1DCA DUP8 MLOAD PUSH2 0x1D7D DUP2 PUSH2 0x27F0 JUMP JUMPDEST DUP11 DUP2 MSTORE PUSH1 0x3 DUP12 DUP9 DUP4 ADD DUP8 DUP2 MSTORE DUP12 DUP5 ADD SWAP1 TIMESTAMP DUP3 MSTORE PUSH1 0x60 DUP6 ADD SWAP3 PUSH1 0x1 DUP5 MSTORE PUSH1 0x0 MSTORE PUSH1 0x9 DUP12 MSTORE DUP13 PUSH1 0x0 KECCAK256 SWAP5 MLOAD DUP6 SSTORE MLOAD PUSH1 0x1 DUP6 ADD SSTORE MLOAD PUSH1 0x2 DUP5 ADD SSTORE MLOAD ISZERO ISZERO SWAP2 ADD SWAP1 PUSH1 0xFF DUP1 NOT DUP4 SLOAD AND SWAP2 ISZERO ISZERO AND OR SWAP1 SSTORE JUMP JUMPDEST ADD SLOAD PUSH1 0x1 SLOAD PUSH1 0x8 SHR PUSH1 0x1 PUSH1 0x1 PUSH1 0xA0 SHL SUB SWAP1 DUP2 AND SWAP2 AND PUSH2 0x2BE8 JUMP JUMPDEST DUP3 MLOAD SWAP2 DUP3 MSTORE TIMESTAMP SWAP1 DUP3 ADD MSTORE LOG2 JUMPDEST PUSH1 0x1 PUSH1 0x0 SSTORE STOP JUMPDEST SWAP3 POP PUSH2 0x1DE4 PUSH2 0x1D67 JUMP JUMPDEST PUSH32 0x83641A769FF940A882B0B610AC878A55A64D02B5C8F9193178406DD74AC51CB SWAP2 MLOAD SWAP1 KECCAK256 PUSH9 0x111959985D5B1D1959 PUSH1 0xBA SHL DUP4 PUSH1 0x40 MLOAD PUSH2 0x1E40 DUP2 PUSH2 0x27D4 JUMP JUMPDEST PUSH1 0x9 DUP2 MSTORE ADD MSTORE SUB PUSH2 0x203C JUMPI DUP2 PUSH1 0x0 MSTORE PUSH1 0x9 DUP2 MSTORE PUSH2 0x1E68 PUSH1 0xFF PUSH1 0x3 PUSH1 0x40 PUSH1 0x0 KECCAK256 ADD SLOAD AND ISZERO PUSH2 0x2B9C JUMP JUMPDEST DUP2 PUSH1 0x0 MSTORE PUSH1 0x4 DUP2 MSTORE PUSH1 0x40 PUSH1 0x0 KECCAK256 SWAP1 PUSH1 0x6 DUP3 ADD SLOAD DUP1 PUSH1 0x1 SHL SWAP2 DUP2 DUP4 DIV PUSH1 0x2 EQ DUP3 ISZERO OR ISZERO PUSH2 0x5FC JUMPI PUSH1 0xC DUP5 ADD SLOAD PUSH1 0x1 DUP1 PUSH1 0xA0 SHL SUB SWAP1 PUSH1 0x5 DUP3 PUSH1 0x3 SLOAD AND SWAP7 ADD SWAP1 DUP3 DUP3 SLOAD AND SWAP1 PUSH1 0x40 MLOAD SWAP2 PUSH4 0xE1D824EB PUSH1 0xE0 SHL DUP4 MSTORE PUSH1 0x4 DUP4 ADD MSTORE DUP5 DUP3 PUSH1 0x44 DUP2 PUSH8 0xDE0B6B3A7640000 SWAP12 DUP13 PUSH1 0x24 DUP4 ADD MSTORE GAS STATICCALL SWAP2 DUP3 ISZERO PUSH2 0x34E JUMPI PUSH1 0x0 SWAP3 PUSH2 0x200D JUMPI JUMPDEST POP DUP2 ISZERO PUSH2 0x1FC8 JUMPI DUP8 DUP2 MUL SWAP8 DUP2 DUP10 DIV EQ SWAP1 ISZERO OR ISZERO PUSH2 0x5FC JUMPI PUSH32 0x3C968215BA7A9C68FF382673D5B2ED39EBDD4483F622032EAB268E84929E1DCA SWAP7 PUSH2 0x1F2F PUSH2 0x1F34 SWAP3 PUSH1 0x64 PUSH1 0x40 SWAP10 DIV SWAP3 PUSH2 0x2948 JUMP JUMPDEST PUSH2 0x2928 JUMP JUMPDEST SWAP4 DUP1 DUP6 GT PUSH2 0x1FC0 JUMPI JUMPDEST POP DUP2 PUSH2 0x1FB0 SWAP3 DUP6 SWAP3 PUSH2 0x1FA0 DUP9 MLOAD PUSH2 0x1F53 DUP2 PUSH2 0x27F0 JUMP JUMPDEST DUP12 DUP2 MSTORE PUSH1 0x3 DUP13 DUP10 DUP4 ADD DUP9 DUP2 MSTORE DUP13 DUP5 ADD SWAP1 TIMESTAMP DUP3 MSTORE PUSH1 0x60 DUP6 ADD SWAP3 PUSH1 0x1 DUP5 MSTORE PUSH1 0x0 MSTORE PUSH1 0x9 DUP13 MSTORE DUP14 PUSH1 0x0 KECCAK256 SWAP5 MLOAD DUP6 SSTORE MLOAD PUSH1 0x1 DUP6 ADD SSTORE MLOAD PUSH1 0x2 DUP5 ADD SSTORE MLOAD ISZERO ISZERO SWAP2 ADD SWAP1 PUSH1 0xFF DUP1 NOT DUP4 SLOAD AND SWAP2 ISZERO ISZERO AND OR SWAP1 SSTORE JUMP JUMPDEST SLOAD AND SWAP1 PUSH1 0x1 SLOAD PUSH1 0x8 SHR AND SWAP1 PUSH2 0x2BE8 JUMP JUMPDEST DUP3 MLOAD SWAP2 DUP3 MSTORE TIMESTAMP SWAP1 DUP3 ADD MSTORE LOG2 PUSH2 0x1DF0 JUMP JUMPDEST SWAP4 POP DUP2 PUSH2 0x1F3D JUMP JUMPDEST PUSH1 0x40 MLOAD PUSH3 0x461BCD PUSH1 0xE5 SHL DUP2 MSTORE PUSH1 0x4 DUP2 ADD DUP7 SWAP1 MSTORE PUSH1 0x18 PUSH1 0x24 DUP3 ADD MSTORE PUSH32 0x496E76616C696420636F6C6C61746572616C2070726963650000000000000000 PUSH1 0x44 DUP3 ADD MSTORE PUSH1 0x64 SWAP1 REVERT JUMPDEST SWAP1 SWAP2 POP DUP5 DUP2 DUP2 RETURNDATASIZE DUP4 GT PUSH2 0x2035 JUMPI JUMPDEST PUSH2 0x2025 DUP2 DUP4 PUSH2 0x2828 JUMP JUMPDEST DUP2 ADD SUB SLT PUSH2 0x2C5 JUMPI MLOAD SWAP1 DUP10 PUSH2 0x1EE3 JUMP JUMPDEST POP RETURNDATASIZE PUSH2 0x201B JUMP JUMPDEST PUSH1 0x64 SWAP1 PUSH1 0x40 MLOAD SWAP1 PUSH3 0x461BCD PUSH1 0xE5 SHL DUP3 MSTORE PUSH1 0x4 DUP3 ADD MSTORE PUSH1 0x1C PUSH1 0x24 DUP3 ADD MSTORE PUSH32 0x4E6F7420656C696769626C6520666F72206C69717569646174696F6E00000000 PUSH1 0x44 DUP3 ADD MSTORE REVERT JUMPDEST SWAP1 PUSH2 0x20A2 PUSH1 0x40 MLOAD SWAP3 DUP4 SWAP3 PUSH3 0x461BCD PUSH1 0xE5 SHL DUP5 MSTORE PUSH1 0x4 DUP5 ADD MSTORE PUSH1 0x24 DUP4 ADD SWAP1 PUSH2 0x271B JUMP JUMPDEST SUB SWAP1 REVERT JUMPDEST CALLVALUE PUSH2 0x2C5 JUMPI PUSH1 0x0 CALLDATASIZE PUSH1 0x3 NOT ADD SLT PUSH2 0x2C5 JUMPI PUSH2 0x20BF PUSH2 0x27A5 JUMP JUMPDEST PUSH1 0x1 SLOAD PUSH1 0xFF DUP2 AND ISZERO PUSH2 0x2124 JUMPI PUSH1 0xFF NOT AND PUSH1 0x1 SSTORE PUSH32 0x5DB9EE0A495BF2E6FF9C91A7834C1BA4FDD244A5E8AA4E537BD38AEAE4B073AA PUSH1 0x20 PUSH1 0x40 MLOAD CALLER DUP2 MSTORE LOG1 CALLER PUSH32 0x5B65B0C1363B3003DB9BCC5E1FD8805A6D6BF5BF6DC9D3431EE4494CD7D11766 PUSH1 0x0 DUP1 LOG2 STOP JUMPDEST PUSH1 0x40 MLOAD PUSH4 0x8DFC202B PUSH1 0xE0 SHL DUP2 MSTORE PUSH1 0x4 SWAP1 REVERT JUMPDEST CALLVALUE PUSH2 0x2C5 JUMPI PUSH1 0x20 DUP1 PUSH1 0x3 NOT CALLDATASIZE ADD SLT PUSH2 0x2C5 JUMPI PUSH1 0x1 PUSH1 0x1 PUSH1 0xA0 SHL SUB PUSH2 0x2158 PUSH2 0x26E7 JUMP JUMPDEST AND PUSH1 0x0 MSTORE PUSH1 0x5 DUP2 MSTORE PUSH1 0x40 PUSH1 0x0 KECCAK256 SWAP1 PUSH1 0x40 MLOAD SWAP1 DUP2 DUP2 DUP5 SLOAD SWAP2 DUP3 DUP2 MSTORE ADD SWAP4 PUSH1 0x0 MSTORE DUP2 PUSH1 0x0 KECCAK256 SWAP2 PUSH1 0x0 SWAP1 JUMPDEST DUP3 DUP3 LT PUSH2 0x21A3 JUMPI PUSH2 0x13DF DUP6 PUSH2 0x2197 DUP2 DUP10 SUB DUP3 PUSH2 0x2828 JUMP JUMPDEST PUSH1 0x40 MLOAD SWAP2 DUP3 SWAP2 DUP3 PUSH2 0x26AC JUMP JUMPDEST DUP4 SLOAD DUP7 MSTORE SWAP5 DUP6 ADD SWAP5 PUSH1 0x1 SWAP4 DUP5 ADD SWAP4 SWAP1 SWAP2 ADD SWAP1 PUSH2 0x2180 JUMP JUMPDEST CALLVALUE PUSH2 0x2C5 JUMPI PUSH1 0x20 CALLDATASIZE PUSH1 0x3 NOT ADD SLT PUSH2 0x2C5 JUMPI PUSH1 0x4 CALLDATALOAD PUSH1 0x0 MSTORE PUSH1 0x9 PUSH1 0x20 MSTORE PUSH1 0x80 PUSH1 0x40 PUSH1 0x0 KECCAK256 DUP1 SLOAD SWAP1 PUSH1 0x1 DUP2 ADD SLOAD SWAP1 PUSH1 0xFF PUSH1 0x3 PUSH1 0x2 DUP4 ADD SLOAD SWAP3 ADD SLOAD AND SWAP2 PUSH1 0x40 MLOAD SWAP4 DUP5 MSTORE PUSH1 0x20 DUP5 ADD MSTORE PUSH1 0x40 DUP4 ADD MSTORE ISZERO ISZERO PUSH1 0x60 DUP3 ADD MSTORE RETURN JUMPDEST CALLVALUE PUSH2 0x2C5 JUMPI PUSH1 0x0 CALLDATASIZE PUSH1 0x3 NOT ADD SLT PUSH2 0x2C5 JUMPI PUSH1 0x20 PUSH1 0x40 MLOAD PUSH2 0x1388 DUP2 MSTORE RETURN JUMPDEST CALLVALUE PUSH2 0x2C5 JUMPI PUSH1 0x0 CALLDATASIZE PUSH1 0x3 NOT ADD SLT PUSH2 0x2C5 JUMPI PUSH1 0x3 SLOAD PUSH1 0x40 MLOAD PUSH1 0x1 PUSH1 0x1 PUSH1 0xA0 SHL SUB SWAP1 SWAP2 AND DUP2 MSTORE PUSH1 0x20 SWAP1 RETURN JUMPDEST CALLVALUE PUSH2 0x2C5 JUMPI PUSH1 0x20 CALLDATASIZE PUSH1 0x3 NOT ADD SLT PUSH2 0x2C5 JUMPI PUSH1 0x4 CALLDATALOAD PUSH1 0x0 MSTORE PUSH1 0x4 PUSH1 0x20 MSTORE PUSH1 0x40 PUSH1 0x0 KECCAK256 PUSH1 0xFF PUSH1 0x4 DUP3 ADD SLOAD AND PUSH1 0x8 DUP2 LT ISZERO PUSH2 0x45C JUMPI PUSH1 0x3 EQ SWAP1 DUP2 PUSH2 0x229C JUMPI JUMPDEST PUSH1 0x20 DUP3 PUSH1 0x40 MLOAD SWAP1 ISZERO ISZERO DUP2 MSTORE RETURN JUMPDEST PUSH1 0x8 SWAP2 POP ADD SLOAD PUSH3 0x3F480 DUP2 ADD DUP1 SWAP2 GT PUSH2 0x5FC JUMPI TIMESTAMP GT PUSH1 0x20 PUSH2 0x228F JUMP JUMPDEST CALLVALUE PUSH2 0x2C5 JUMPI PUSH1 0x20 DUP1 PUSH1 0x3 NOT CALLDATASIZE ADD SLT PUSH2 0x2C5 JUMPI PUSH32 0x50CBD023251ED45DF8376223750F1B06553F9593A6ADE0D051CE5B87FA9374AA PUSH1 0x4 CALLDATALOAD SWAP2 PUSH2 0x22F7 PUSH2 0x27A5 JUMP JUMPDEST PUSH2 0x22FF PUSH2 0x28C3 JUMP JUMPDEST PUSH2 0x2307 PUSH2 0x28A5 JUMP JUMPDEST DUP3 PUSH1 0x0 MSTORE PUSH1 0x9 DUP2 MSTORE PUSH2 0x2323 PUSH1 0xFF PUSH1 0x3 PUSH1 0x40 PUSH1 0x0 KECCAK256 ADD SLOAD AND PUSH2 0x2C87 JUMP JUMPDEST DUP3 PUSH1 0x0 MSTORE PUSH1 0x9 DUP2 MSTORE PUSH1 0x1 PUSH1 0x40 PUSH1 0x0 KECCAK256 ADD SLOAD PUSH1 0x4 DUP3 MSTORE PUSH2 0x235D DUP2 PUSH1 0x1 DUP1 PUSH1 0xA0 SHL SUB DUP1 PUSH1 0x5 PUSH1 0x40 PUSH1 0x0 KECCAK256 ADD SLOAD AND SWAP1 PUSH1 0x1 SLOAD PUSH1 0x8 SHR AND ADDRESS SWAP2 PUSH2 0x2D06 JUMP JUMPDEST DUP4 PUSH1 0x0 MSTORE PUSH1 0x9 DUP3 MSTORE PUSH2 0x2385 PUSH1 0x40 PUSH1 0x0 KECCAK256 PUSH1 0x3 PUSH1 0x0 SWAP2 DUP3 DUP2 SSTORE DUP3 PUSH1 0x1 DUP3 ADD SSTORE DUP3 PUSH1 0x2 DUP3 ADD SSTORE ADD SSTORE JUMP JUMPDEST PUSH1 0x40 MLOAD SWAP1 DUP2 MSTORE LOG2 PUSH1 0x1 PUSH1 0x0 SSTORE STOP JUMPDEST CALLVALUE PUSH2 0x2C5 JUMPI PUSH1 0x20 CALLDATASIZE PUSH1 0x3 NOT ADD SLT PUSH2 0x2C5 JUMPI PUSH1 0x4 CALLDATALOAD DUP1 PUSH1 0x0 MSTORE PUSH1 0x4 PUSH1 0x20 MSTORE PUSH2 0x23CE PUSH1 0x1 DUP1 PUSH1 0xA0 SHL SUB PUSH1 0x4 PUSH1 0x40 PUSH1 0x0 KECCAK256 ADD SLOAD PUSH1 0x8 SHR AND ISZERO ISZERO PUSH2 0x2D77 JUMP JUMPDEST PUSH1 0x0 MSTORE PUSH1 0x4 PUSH1 0x20 MSTORE PUSH1 0xFF PUSH1 0x4 PUSH1 0x40 PUSH1 0x0 KECCAK256 ADD SLOAD AND PUSH1 0x8 DUP2 LT ISZERO PUSH2 0x45C JUMPI PUSH1 0x20 SWAP1 PUSH1 0x40 MLOAD SWAP1 DUP2 MSTORE RETURN JUMPDEST CALLVALUE PUSH2 0x2C5 JUMPI PUSH1 0x0 CALLDATASIZE PUSH1 0x3 NOT ADD SLT PUSH2 0x2C5 JUMPI PUSH1 0x0 DUP1 PUSH1 0x2 DUP1 SLOAD SWAP2 JUMPDEST DUP3 DUP2 LT PUSH2 0x2506 JUMPI POP PUSH2 0x2421 DUP4 PUSH2 0x2D5F JUMP JUMPDEST SWAP3 PUSH2 0x242F PUSH1 0x40 MLOAD SWAP5 DUP6 PUSH2 0x2828 JUMP JUMPDEST DUP1 DUP5 MSTORE PUSH2 0x243E PUSH1 0x1F NOT SWAP2 PUSH2 0x2D5F JUMP JUMPDEST ADD SWAP1 PUSH1 0x20 SWAP2 CALLDATASIZE DUP4 DUP7 ADD CALLDATACOPY PUSH1 0x0 SWAP1 PUSH1 0x0 JUMPDEST DUP5 DUP2 LT PUSH2 0x2463 JUMPI PUSH1 0x40 MLOAD DUP1 PUSH2 0x13DF DUP9 DUP3 PUSH2 0x26AC JUMP JUMPDEST DUP1 PUSH1 0x0 MSTORE PUSH1 0x4 DUP5 MSTORE PUSH1 0xFF PUSH1 0x4 PUSH1 0x40 PUSH1 0x0 KECCAK256 ADD SLOAD AND PUSH1 0x8 DUP2 LT ISZERO SWAP1 DUP2 PUSH2 0x45C JUMPI PUSH1 0x1 DUP2 EQ SWAP2 DUP3 ISZERO PUSH2 0x24F9 JUMPI JUMPDEST DUP3 ISZERO PUSH2 0x24E8 JUMPI JUMPDEST POP POP PUSH2 0x24AA JUMPI JUMPDEST PUSH2 0x24A5 SWAP1 PUSH2 0x2896 JUMP JUMPDEST PUSH2 0x244E JUMP JUMPDEST SWAP2 DUP6 MLOAD DUP2 LT ISZERO PUSH2 0x24D2 JUMPI PUSH2 0x24CA DUP2 DUP5 DUP7 PUSH2 0x24A5 SWAP5 PUSH1 0x5 SHL DUP11 ADD ADD MSTORE PUSH2 0x2896 JUMP JUMPDEST SWAP3 SWAP1 POP PUSH2 0x249C JUMP JUMPDEST PUSH4 0x4E487B71 PUSH1 0xE0 SHL PUSH1 0x0 MSTORE PUSH1 0x32 PUSH1 0x4 MSTORE PUSH1 0x24 PUSH1 0x0 REVERT JUMPDEST SWAP1 SWAP2 POP PUSH2 0x45C JUMPI PUSH1 0x3 EQ DUP8 DUP1 PUSH2 0x2495 JUMP JUMPDEST POP DUP4 DUP2 EQ SWAP2 POP PUSH1 0x0 PUSH2 0x248E JUMP JUMPDEST DUP1 PUSH1 0x0 MSTORE PUSH1 0x4 PUSH1 0x20 MSTORE PUSH1 0xFF PUSH1 0x4 PUSH1 0x40 PUSH1 0x0 KECCAK256 ADD SLOAD AND PUSH1 0x8 DUP2 LT ISZERO SWAP1 DUP2 PUSH2 0x45C JUMPI PUSH1 0x1 DUP2 EQ SWAP2 DUP3 ISZERO PUSH2 0x2574 JUMPI JUMPDEST DUP3 ISZERO PUSH2 0x2563 JUMPI JUMPDEST POP POP PUSH2 0x254E JUMPI JUMPDEST PUSH2 0x2549 SWAP1 PUSH2 0x2896 JUMP JUMPDEST PUSH2 0x2410 JUMP JUMPDEST SWAP3 PUSH2 0x255B PUSH2 0x2549 SWAP2 PUSH2 0x2896 JUMP JUMPDEST SWAP4 SWAP1 POP PUSH2 0x2540 JUMP JUMPDEST SWAP1 SWAP2 POP PUSH2 0x45C JUMPI PUSH1 0x3 EQ DUP6 DUP1 PUSH2 0x2539 JUMP JUMPDEST POP DUP4 DUP2 EQ SWAP2 POP PUSH1 0x0 PUSH2 0x2532 JUMP JUMPDEST CALLVALUE PUSH2 0x2C5 JUMPI PUSH1 0x0 CALLDATASIZE PUSH1 0x3 NOT ADD SLT PUSH2 0x2C5 JUMPI PUSH1 0x20 PUSH1 0x40 MLOAD PUSH3 0xED4E00 DUP2 MSTORE RETURN JUMPDEST CALLVALUE PUSH2 0x2C5 JUMPI PUSH1 0x9 PUSH1 0x40 PUSH32 0x2E76EFEAE4E2CE3147A8E293FB0064C1030E67C58102A719DB916ED252867943 PUSH2 0x25D2 CALLDATASIZE PUSH2 0x2692 JUMP JUMPDEST SWAP4 DUP3 SWAP4 SWAP2 PUSH2 0x25DE PUSH2 0x27A5 JUMP JUMPDEST DUP4 PUSH1 0x0 MSTORE PUSH1 0x20 SWAP6 DUP8 DUP8 MSTORE PUSH2 0x25FB PUSH1 0xFF PUSH1 0x3 DUP6 PUSH1 0x0 KECCAK256 ADD SLOAD AND PUSH2 0x2C87 JUMP JUMPDEST DUP5 PUSH1 0x0 MSTORE PUSH1 0x4 DUP8 MSTORE PUSH2 0x586 DUP4 PUSH1 0x0 KECCAK256 DUP10 DUP10 MSTORE PUSH1 0x10 PUSH1 0x1 DUP7 PUSH1 0x0 KECCAK256 DUP6 ISZERO ISZERO DUP1 PUSH2 0x266E JUMPI JUMPDEST PUSH2 0x2648 JUMPI JUMPDEST PUSH1 0x4 DUP5 ADD DUP1 SLOAD PUSH1 0xFF NOT AND PUSH1 0x5 OR SWAP1 SSTORE PUSH1 0x0 PUSH1 0x6 DUP6 ADD SSTORE ADD SLOAD DUP7 MLOAD SWAP3 SWAP1 PUSH2 0x579 DUP5 PUSH2 0x27D4 JUMP JUMPDEST PUSH2 0x2669 DUP7 DUP4 DUP1 PUSH1 0xA0 SHL SUB DUP1 PUSH1 0x5 DUP9 ADD SLOAD AND SWAP1 PUSH1 0x4 DUP9 ADD SLOAD PUSH1 0x8 SHR AND SWAP1 PUSH2 0x2BE8 JUMP JUMPDEST PUSH2 0x2623 JUMP JUMPDEST PUSH2 0x268D DUP8 DUP5 DUP1 PUSH1 0xA0 SHL SUB DUP1 PUSH1 0x5 DUP10 ADD SLOAD AND SWAP1 DUP7 SLOAD PUSH1 0x8 SHR AND ADDRESS SWAP2 PUSH2 0x2D06 JUMP JUMPDEST PUSH2 0x261E JUMP JUMPDEST PUSH1 0x60 SWAP1 PUSH1 0x3 NOT ADD SLT PUSH2 0x2C5 JUMPI PUSH1 0x4 CALLDATALOAD SWAP1 PUSH1 0x24 CALLDATALOAD SWAP1 PUSH1 0x44 CALLDATALOAD SWAP1 JUMP JUMPDEST PUSH1 0x20 SWAP1 DUP2 PUSH1 0x40 DUP2 DUP4 ADD SWAP3 DUP3 DUP2 MSTORE DUP6 MLOAD DUP1 SWAP5 MSTORE ADD SWAP4 ADD SWAP2 PUSH1 0x0 JUMPDEST DUP3 DUP2 LT PUSH2 0x26D3 JUMPI POP POP POP POP SWAP1 JUMP JUMPDEST DUP4 MLOAD DUP6 MSTORE SWAP4 DUP2 ADD SWAP4 SWAP3 DUP2 ADD SWAP3 PUSH1 0x1 ADD PUSH2 0x26C5 JUMP JUMPDEST PUSH1 0x4 CALLDATALOAD SWAP1 PUSH1 0x1 PUSH1 0x1 PUSH1 0xA0 SHL SUB DUP3 AND DUP3 SUB PUSH2 0x2C5 JUMPI JUMP JUMPDEST CALLVALUE PUSH2 0x2C5 JUMPI PUSH1 0x0 CALLDATASIZE PUSH1 0x3 NOT ADD SLT PUSH2 0x2C5 JUMPI PUSH1 0x20 PUSH1 0x40 MLOAD PUSH3 0x278D00 DUP2 MSTORE RETURN JUMPDEST SWAP2 SWAP1 DUP3 MLOAD SWAP3 DUP4 DUP3 MSTORE PUSH1 0x0 JUMPDEST DUP5 DUP2 LT PUSH2 0x2747 JUMPI POP POP DUP3 PUSH1 0x0 PUSH1 0x20 DUP1 SWAP5 SWAP6 DUP5 ADD ADD MSTORE PUSH1 0x1F DUP1 NOT SWAP2 ADD AND ADD ADD SWAP1 JUMP JUMPDEST PUSH1 0x20 DUP2 DUP4 ADD DUP2 ADD MLOAD DUP5 DUP4 ADD DUP3 ADD MSTORE ADD PUSH2 0x2726 JUMP JUMPDEST PUSH1 0x40 SWAP1 PUSH1 0x3 NOT ADD SLT PUSH2 0x2C5 JUMPI PUSH1 0x4 CALLDATALOAD SWAP1 PUSH1 0x24 CALLDATALOAD SWAP1 JUMP JUMPDEST DUP1 SLOAD DUP3 LT ISZERO PUSH2 0x24D2 JUMPI PUSH1 0x0 MSTORE PUSH1 0x20 PUSH1 0x0 KECCAK256 SWAP1 PUSH1 0x2 SHL ADD SWAP1 PUSH1 0x0 SWAP1 JUMP JUMPDEST DUP1 SLOAD DUP3 LT ISZERO PUSH2 0x24D2 JUMPI PUSH1 0x0 MSTORE PUSH1 0x20 PUSH1 0x0 KECCAK256 ADD SWAP1 PUSH1 0x0 SWAP1 JUMP JUMPDEST PUSH1 0x1 SLOAD PUSH1 0x8 SHR PUSH1 0x1 PUSH1 0x1 PUSH1 0xA0 SHL SUB AND CALLER SUB PUSH2 0x27BC JUMPI JUMP JUMPDEST PUSH1 0x40 MLOAD PUSH4 0x118CDAA7 PUSH1 0xE0 SHL DUP2 MSTORE CALLER PUSH1 0x4 DUP3 ADD MSTORE PUSH1 0x24 SWAP1 REVERT JUMPDEST PUSH1 0x40 DUP2 ADD SWAP1 DUP2 LT PUSH8 0xFFFFFFFFFFFFFFFF DUP3 GT OR PUSH2 0x7D5 JUMPI PUSH1 0x40 MSTORE JUMP JUMPDEST PUSH1 0x80 DUP2 ADD SWAP1 DUP2 LT PUSH8 0xFFFFFFFFFFFFFFFF DUP3 GT OR PUSH2 0x7D5 JUMPI PUSH1 0x40 MSTORE JUMP JUMPDEST PUSH1 0x60 DUP2 ADD SWAP1 DUP2 LT PUSH8 0xFFFFFFFFFFFFFFFF DUP3 GT OR PUSH2 0x7D5 JUMPI PUSH1 0x40 MSTORE JUMP JUMPDEST SWAP1 PUSH1 0x1F DUP1 NOT SWAP2 ADD AND DUP2 ADD SWAP1 DUP2 LT PUSH8 0xFFFFFFFFFFFFFFFF DUP3 GT OR PUSH2 0x7D5 JUMPI PUSH1 0x40 MSTORE JUMP JUMPDEST ISZERO PUSH2 0x2851 JUMPI JUMP JUMPDEST PUSH1 0x40 MLOAD PUSH3 0x461BCD PUSH1 0xE5 SHL DUP2 MSTORE PUSH1 0x20 PUSH1 0x4 DUP3 ADD MSTORE PUSH1 0x18 PUSH1 0x24 DUP3 ADD MSTORE PUSH32 0x5A65726F2061646472657373206E6F7420616C6C6F7765640000000000000000 PUSH1 0x44 DUP3 ADD MSTORE PUSH1 0x64 SWAP1 REVERT JUMPDEST PUSH1 0x0 NOT DUP2 EQ PUSH2 0x5FC JUMPI PUSH1 0x1 ADD SWAP1 JUMP JUMPDEST PUSH1 0xFF PUSH1 0x1 SLOAD AND PUSH2 0x28B1 JUMPI JUMP JUMPDEST PUSH1 0x40 MLOAD PUSH4 0xD93C0665 PUSH1 0xE0 SHL DUP2 MSTORE PUSH1 0x4 SWAP1 REVERT JUMPDEST PUSH1 0x2 PUSH1 0x0 SLOAD EQ PUSH2 0x28D4 JUMPI PUSH1 0x2 PUSH1 0x0 SSTORE JUMP JUMPDEST PUSH1 0x40 MLOAD PUSH4 0x3EE5AEB5 PUSH1 0xE0 SHL DUP2 MSTORE PUSH1 0x4 SWAP1 REVERT JUMPDEST ISZERO PUSH2 0x28ED JUMPI JUMP JUMPDEST PUSH1 0x40 MLOAD PUSH3 0x461BCD PUSH1 0xE5 SHL DUP2 MSTORE PUSH1 0x20 PUSH1 0x4 DUP3 ADD MSTORE PUSH1 0x13 PUSH1 0x24 DUP3 ADD MSTORE PUSH19 0x496E76616C6964206C6F616E20737461747573 PUSH1 0x68 SHL PUSH1 0x44 DUP3 ADD MSTORE PUSH1 0x64 SWAP1 REVERT JUMPDEST SWAP2 SWAP1 DUP3 ADD DUP1 SWAP3 GT PUSH2 0x5FC JUMPI JUMP JUMPDEST DUP2 DUP2 MUL SWAP3 SWAP2 DUP2 ISZERO SWAP2 DUP5 DIV EQ OR ISZERO PUSH2 0x5FC JUMPI JUMP JUMPDEST DUP2 ISZERO PUSH2 0x2952 JUMPI DIV SWAP1 JUMP JUMPDEST PUSH4 0x4E487B71 PUSH1 0xE0 SHL PUSH1 0x0 MSTORE PUSH1 0x12 PUSH1 0x4 MSTORE PUSH1 0x24 PUSH1 0x0 REVERT JUMPDEST SWAP1 PUSH1 0x0 SWAP2 DUP3 MSTORE PUSH1 0x4 SWAP2 PUSH1 0x20 SWAP1 DUP4 DUP3 MSTORE PUSH1 0x40 SWAP4 DUP5 DUP3 KECCAK256 PUSH1 0xFF DUP3 DUP3 ADD SLOAD AND PUSH1 0x8 DUP2 LT ISZERO PUSH2 0x2B89 JUMPI PUSH1 0x2 DUP2 EQ ISZERO SWAP1 DUP2 PUSH2 0x2B7D JUMPI JUMPDEST POP PUSH2 0x2B36 JUMPI PUSH1 0x3 SLOAD PUSH1 0x5 DUP3 ADD SLOAD PUSH1 0x6 DUP4 ADD SLOAD DUP9 MLOAD PUSH4 0xE1D824EB PUSH1 0xE0 SHL DUP2 MSTORE PUSH1 0x1 PUSH1 0x1 PUSH1 0xA0 SHL SUB SWAP3 DUP4 AND DUP7 DUP3 ADD SWAP1 DUP2 MSTORE PUSH1 0x20 DUP2 ADD SWAP3 SWAP1 SWAP3 MSTORE SWAP3 DUP8 SWAP3 DUP5 SWAP3 DUP4 SWAP1 SUB PUSH1 0x40 ADD SWAP2 DUP4 SWAP2 AND GAS STATICCALL SWAP1 DUP2 ISZERO PUSH2 0x2B2C JUMPI DUP5 SWAP2 PUSH2 0x2AFB JUMPI JUMPDEST POP PUSH2 0x2A10 PUSH1 0x1 DUP4 ADD SLOAD PUSH2 0x2710 PUSH2 0x2A09 PUSH1 0x2 DUP7 ADD SLOAD DUP4 PUSH2 0x2935 JUMP JUMPDEST DIV SWAP1 PUSH2 0x2928 JUMP JUMPDEST PUSH1 0x67 DUP2 MUL SWAP1 DUP1 DUP3 DIV PUSH1 0x67 EQ SWAP1 ISZERO OR ISZERO PUSH2 0x2AE8 JUMPI PUSH1 0x64 SWAP1 DIV GT PUSH2 0x2ABF JUMPI PUSH1 0x8 ADD SLOAD SWAP1 PUSH3 0x3F480 DUP3 ADD DUP1 SWAP3 GT PUSH2 0x2AAC JUMPI POP TIMESTAMP GT PUSH2 0x2A86 JUMPI PUSH1 0x37 PUSH1 0xF9 SHL SWAP1 SWAP4 PUSH32 0x4C6F616E206E6F7420656C696769626C6520666F72206C69717569646174696F DUP2 MLOAD SWAP4 PUSH2 0x2A79 DUP6 PUSH2 0x280C JUMP JUMPDEST PUSH1 0x21 DUP6 MSTORE DUP5 ADD MSTORE DUP3 ADD MSTORE SWAP1 JUMP JUMPDEST POP PUSH9 0x111959985D5B1D1959 PUSH1 0xBA SHL PUSH1 0x1 SWAP4 MLOAD SWAP2 PUSH2 0x2AA2 DUP4 PUSH2 0x27D4 JUMP JUMPDEST PUSH1 0x9 DUP4 MSTORE DUP3 ADD MSTORE SWAP1 JUMP JUMPDEST PUSH4 0x4E487B71 PUSH1 0xE0 SHL DUP4 MSTORE PUSH1 0x11 SWAP1 MSTORE PUSH1 0x24 DUP3 REVERT JUMPDEST POP POP POP PUSH10 0x98A8AC40C4E4CAC2C6D PUSH1 0xB3 SHL PUSH1 0x1 SWAP4 MLOAD SWAP2 PUSH2 0x2ADE DUP4 PUSH2 0x27D4 JUMP JUMPDEST PUSH1 0xA DUP4 MSTORE DUP3 ADD MSTORE SWAP1 JUMP JUMPDEST PUSH4 0x4E487B71 PUSH1 0xE0 SHL DUP6 MSTORE PUSH1 0x11 DUP5 MSTORE PUSH1 0x24 DUP6 REVERT JUMPDEST SWAP1 POP DUP5 DUP2 DUP2 RETURNDATASIZE DUP4 GT PUSH2 0x2B25 JUMPI JUMPDEST PUSH2 0x2B12 DUP2 DUP4 PUSH2 0x2828 JUMP JUMPDEST DUP2 ADD SUB SLT PUSH2 0x2B21 JUMPI MLOAD CODESIZE PUSH2 0x29EF JUMP JUMPDEST DUP4 DUP1 REVERT JUMPDEST POP RETURNDATASIZE PUSH2 0x2B08 JUMP JUMPDEST DUP8 MLOAD RETURNDATASIZE DUP7 DUP3 RETURNDATACOPY RETURNDATASIZE SWAP1 REVERT JUMPDEST POP POP PUSH5 0x7461747573 PUSH1 0xD8 SHL SWAP1 SWAP4 PUSH32 0x4C6F616E206E6F7420696E2066756E646564206F72207265706179696E672073 DUP2 MLOAD SWAP4 PUSH2 0x2B70 DUP6 PUSH2 0x280C JUMP JUMPDEST PUSH1 0x25 DUP6 MSTORE DUP5 ADD MSTORE DUP3 ADD MSTORE SWAP1 JUMP JUMPDEST PUSH1 0x3 SWAP2 POP EQ ISZERO CODESIZE PUSH2 0x2999 JUMP JUMPDEST PUSH4 0x4E487B71 PUSH1 0xE0 SHL DUP5 MSTORE PUSH1 0x21 DUP4 MSTORE PUSH1 0x24 DUP5 REVERT JUMPDEST ISZERO PUSH2 0x2BA3 JUMPI JUMP JUMPDEST PUSH1 0x40 MLOAD PUSH3 0x461BCD PUSH1 0xE5 SHL DUP2 MSTORE PUSH1 0x20 PUSH1 0x4 DUP3 ADD MSTORE PUSH1 0x1D PUSH1 0x24 DUP3 ADD MSTORE PUSH32 0x4C69717569646174696F6E20616C726561647920696E69746961746564000000 PUSH1 0x44 DUP3 ADD MSTORE PUSH1 0x64 SWAP1 REVERT JUMPDEST PUSH1 0x40 MLOAD PUSH4 0xA9059CBB PUSH1 0xE0 SHL PUSH1 0x20 DUP3 ADD MSTORE PUSH1 0x1 PUSH1 0x1 PUSH1 0xA0 SHL SUB SWAP3 SWAP1 SWAP3 AND PUSH1 0x24 DUP4 ADD MSTORE PUSH1 0x44 DUP1 DUP4 ADD SWAP4 SWAP1 SWAP4 MSTORE SWAP2 DUP2 MSTORE PUSH2 0x2C29 SWAP2 PUSH2 0x2C24 PUSH1 0x64 DUP4 PUSH2 0x2828 JUMP JUMPDEST PUSH2 0x2C2B JUMP JUMPDEST JUMP JUMPDEST SWAP1 PUSH1 0x0 PUSH1 0x20 SWAP2 DUP3 DUP2 MLOAD SWAP2 ADD DUP3 DUP6 GAS CALL ISZERO PUSH2 0x34E JUMPI PUSH1 0x0 MLOAD RETURNDATASIZE PUSH2 0x2C7E JUMPI POP PUSH1 0x1 PUSH1 0x1 PUSH1 0xA0 SHL SUB DUP2 AND EXTCODESIZE ISZERO JUMPDEST PUSH2 0x2C5C JUMPI POP JUMP JUMPDEST PUSH1 0x40 MLOAD PUSH4 0x5274AFE7 PUSH1 0xE0 SHL DUP2 MSTORE PUSH1 0x1 PUSH1 0x1 PUSH1 0xA0 SHL SUB SWAP1 SWAP2 AND PUSH1 0x4 DUP3 ADD MSTORE PUSH1 0x24 SWAP1 REVERT JUMPDEST PUSH1 0x1 EQ ISZERO PUSH2 0x2C55 JUMP JUMPDEST ISZERO PUSH2 0x2C8E JUMPI JUMP JUMPDEST PUSH1 0x40 MLOAD PUSH3 0x461BCD PUSH1 0xE5 SHL DUP2 MSTORE PUSH1 0x20 PUSH1 0x4 DUP3 ADD MSTORE PUSH1 0x16 PUSH1 0x24 DUP3 ADD MSTORE PUSH22 0x2737903832B73234B733903634B8BAB4B230BA34B7B7 PUSH1 0x51 SHL PUSH1 0x44 DUP3 ADD MSTORE PUSH1 0x64 SWAP1 REVERT JUMPDEST DUP1 SLOAD SWAP1 PUSH1 0x1 PUSH1 0x40 SHL DUP3 LT ISZERO PUSH2 0x7D5 JUMPI PUSH1 0x1 DUP3 ADD DUP1 DUP3 SSTORE DUP3 LT ISZERO PUSH2 0x24D2 JUMPI PUSH1 0x1 SWAP2 PUSH1 0x20 SWAP2 PUSH1 0x0 MSTORE DUP2 PUSH1 0x0 KECCAK256 SWAP1 DUP4 SHL ADD SWAP3 DUP1 MLOAD DUP5 SSTORE ADD MLOAD SWAP2 ADD SSTORE JUMP JUMPDEST PUSH1 0x40 MLOAD PUSH4 0x23B872DD PUSH1 0xE0 SHL PUSH1 0x20 DUP3 ADD MSTORE PUSH1 0x1 PUSH1 0x1 PUSH1 0xA0 SHL SUB SWAP3 DUP4 AND PUSH1 0x24 DUP3 ADD MSTORE SWAP3 SWAP1 SWAP2 AND PUSH1 0x44 DUP4 ADD MSTORE PUSH1 0x64 DUP1 DUP4 ADD SWAP4 SWAP1 SWAP4 MSTORE SWAP2 DUP2 MSTORE PUSH1 0xA0 DUP2 ADD SWAP2 DUP2 DUP4 LT PUSH8 0xFFFFFFFFFFFFFFFF DUP5 GT OR PUSH2 0x7D5 JUMPI PUSH2 0x2C29 SWAP3 PUSH1 0x40 MSTORE PUSH2 0x2C2B JUMP JUMPDEST PUSH8 0xFFFFFFFFFFFFFFFF DUP2 GT PUSH2 0x7D5 JUMPI PUSH1 0x5 SHL PUSH1 0x20 ADD SWAP1 JUMP JUMPDEST ISZERO PUSH2 0x2D7E JUMPI JUMP JUMPDEST PUSH1 0x40 MLOAD PUSH3 0x461BCD PUSH1 0xE5 SHL DUP2 MSTORE PUSH1 0x20 PUSH1 0x4 DUP3 ADD MSTORE PUSH1 0x13 PUSH1 0x24 DUP3 ADD MSTORE PUSH19 0x131BD85B88191BD95CC81B9BDD08195E1A5CDD PUSH1 0x6A SHL PUSH1 0x44 DUP3 ADD MSTORE PUSH1 0x64 SWAP1 REVERT INVALID LOG2 PUSH5 0x6970667358 0x22 SLT KECCAK256 0xE5 0xD9 0xC5 PUSH31 0xFEF5933478AE84CFCD56AB19C64497B7A43E392E512C1C1F9C76F89C64736F PUSH13 0x63430008140033000000000000 "},"methodIdentifiers":{"GRACE_PERIOD()":"c1a287e2","INSTALLMENT_PERIOD()":"a2589353","INTEREST_RATE_DIVISOR()":"bdfb75c7","MAX_INTEREST_RATE()":"34855d14","MAX_LOAN_AMOUNT()":"ceba1794","MAX_LOAN_DURATION()":"0d0b2ca6","MAX_LTV()":"81bf8d3d","MIN_LOAN_AMOUNT()":"96fa212f","MIN_LOAN_DURATION()":"89d99a05","PERCENTAGE_DIVISOR()":"caf29765","addSupportedToken(address)":"6d69fcaf","authorizeBorrower(address)":"b6938b81","authorizedBorrowers(address)":"8fdbb073","canLiquidate(uint256)":"9df411ee","cancelLiquidation(uint256)":"1e419159","checkLoanDefault(uint256)":"1fd3ca77","confirmDefaultLiquidation(uint256,uint256,uint256)":"d6a6ca2f","confirmLTVLiquidation(uint256,uint256,uint256)":"0bad0918","createLoan(uint256,uint256,uint256,uint256,uint256,address,uint256)":"ba3bf832","emergencyPause()":"51858e27","emergencyWithdraw(address,uint256)":"95ccea67","fundLoan(uint256)":"846b909a","getActiveLoans()":"121ed2a7","getContractCollateralBalance(address)":"e9a99a83","getLiquidations(uint256)":"606a02f8","getLoan(uint256)":"504006ca","getLoanCount()":"52196812","getLoanStatus(uint256)":"1c4fd41c","getLoansByUser(address)":"3e842090","liquidate(uint256)":"415f1240","loanPayments(uint256,uint256)":"af3d3e98","loans(uint256)":"e1ec3c68","makePayment(uint256,uint256)":"d390f974","markLoanAsDefaulted(uint256)":"41b88111","owner()":"8da5cb5b","pause()":"8456cb59","paused()":"5c975abb","pendingLiquidations(uint256)":"3d876499","priceOracle()":"2630c12f","removeSupportedToken(address)":"76319190","renounceOwnership()":"715018a6","revokeBorrowerAuthorization(address)":"c35a1c0e","setPriceOracle(address)":"530e784f","supportedTokens(address)":"68c4ac26","testPriceOracle(address,uint256)":"c9af07f2","transferOwnership(address)":"f2fde38b","unpause()":"3f4ba83a","userLoans(address,uint256)":"d8bad5bd"}},"storageLayout":{"storage":[{"astId":1652,"contract":"contracts/core/Pledg.sol:Pledg","label":"_status","offset":0,"slot":"0","type":"t_uint256"},{"astId":1542,"contract":"contracts/core/Pledg.sol:Pledg","label":"_paused","offset":0,"slot":"1","type":"t_bool"},{"astId":54,"contract":"contracts/core/Pledg.sol:Pledg","label":"_owner","offset":1,"slot":"1","type":"t_address"},{"astId":1778,"contract":"contracts/core/Pledg.sol:Pledg","label":"_loanCounter","offset":0,"slot":"2","type":"t_uint256"},{"astId":1781,"contract":"contracts/core/Pledg.sol:Pledg","label":"priceOracle","offset":0,"slot":"3","type":"t_contract(IPriceOracle)4369"},{"astId":1786,"contract":"contracts/core/Pledg.sol:Pledg","label":"loans","offset":0,"slot":"4","type":"t_mapping(t_uint256,t_struct(Loan)1864_storage)"},{"astId":1791,"contract":"contracts/core/Pledg.sol:Pledg","label":"userLoans","offset":0,"slot":"5","type":"t_mapping(t_address,t_array(t_uint256)dyn_storage)"},{"astId":1797,"contract":"contracts/core/Pledg.sol:Pledg","label":"loanPayments","offset":0,"slot":"6","type":"t_mapping(t_uint256,t_array(t_struct(PaymentEvent)1873_storage)dyn_storage)"},{"astId":1801,"contract":"contracts/core/Pledg.sol:Pledg","label":"supportedTokens","offset":0,"slot":"7","type":"t_mapping(t_address,t_bool)"},{"astId":1805,"contract":"contracts/core/Pledg.sol:Pledg","label":"authorizedBorrowers","offset":0,"slot":"8","type":"t_mapping(t_address,t_bool)"},{"astId":1810,"contract":"contracts/core/Pledg.sol:Pledg","label":"pendingLiquidations","offset":0,"slot":"9","type":"t_mapping(t_uint256,t_struct(PendingLiquidation)1824_storage)"}],"types":{"t_address":{"encoding":"inplace","label":"address","numberOfBytes":"20"},"t_array(t_struct(LiquidationEvent)1815_storage)dyn_storage":{"base":"t_struct(LiquidationEvent)1815_storage","encoding":"dynamic_array","label":"struct Pledg.LiquidationEvent[]","numberOfBytes":"32"},"t_array(t_struct(PaymentEvent)1873_storage)dyn_storage":{"base":"t_struct(PaymentEvent)1873_storage","encoding":"dynamic_array","label":"struct Pledg.PaymentEvent[]","numberOfBytes":"32"},"t_array(t_uint256)dyn_storage":{"base":"t_uint256","encoding":"dynamic_array","label":"uint256[]","numberOfBytes":"32"},"t_bool":{"encoding":"inplace","label":"bool","numberOfBytes":"1"},"t_contract(IPriceOracle)4369":{"encoding":"inplace","label":"contract IPriceOracle","numberOfBytes":"20"},"t_enum(LoanStatus)1882":{"encoding":"inplace","label":"enum Pledg.LoanStatus","numberOfBytes":"1"},"t_mapping(t_address,t_array(t_uint256)dyn_storage)":{"encoding":"mapping","key":"t_address","label":"mapping(address => uint256[])","numberOfBytes":"32","value":"t_array(t_uint256)dyn_storage"},"t_mapping(t_address,t_bool)":{"encoding":"mapping","key":"t_address","label":"mapping(address => bool)","numberOfBytes":"32","value":"t_bool"},"t_mapping(t_uint256,t_array(t_struct(PaymentEvent)1873_storage)dyn_storage)":{"encoding":"mapping","key":"t_uint256","label":"mapping(uint256 => struct Pledg.PaymentEvent[])","numberOfBytes":"32","value":"t_array(t_struct(PaymentEvent)1873_storage)dyn_storage"},"t_mapping(t_uint256,t_struct(Loan)1864_storage)":{"encoding":"mapping","key":"t_uint256","label":"mapping(uint256 => struct Pledg.Loan)","numberOfBytes":"32","value":"t_struct(Loan)1864_storage"},"t_mapping(t_uint256,t_struct(PendingLiquidation)1824_storage)":{"encoding":"mapping","key":"t_uint256","label":"mapping(uint256 => struct Pledg.PendingLiquidation)","numberOfBytes":"32","value":"t_struct(PendingLiquidation)1824_storage"},"t_struct(LiquidationEvent)1815_storage":{"encoding":"inplace","label":"struct Pledg.LiquidationEvent","members":[{"astId":1812,"contract":"contracts/core/Pledg.sol:Pledg","label":"timestamp","offset":0,"slot":"0","type":"t_uint256"},{"astId":1814,"contract":"contracts/core/Pledg.sol:Pledg","label":"amount","offset":0,"slot":"1","type":"t_uint256"}],"numberOfBytes":"64"},"t_struct(Loan)1864_storage":{"encoding":"inplace","label":"struct Pledg.Loan","members":[{"astId":1826,"contract":"contracts/core/Pledg.sol:Pledg","label":"loanId","offset":0,"slot":"0","type":"t_uint256"},{"astId":1828,"contract":"contracts/core/Pledg.sol:Pledg","label":"amount","offset":0,"slot":"1","type":"t_uint256"},{"astId":1830,"contract":"contracts/core/Pledg.sol:Pledg","label":"interestRate","offset":0,"slot":"2","type":"t_uint256"},{"astId":1832,"contract":"contracts/core/Pledg.sol:Pledg","label":"term","offset":0,"slot":"3","type":"t_uint256"},{"astId":1835,"contract":"contracts/core/Pledg.sol:Pledg","label":"status","offset":0,"slot":"4","type":"t_enum(LoanStatus)1882"},{"astId":1837,"contract":"contracts/core/Pledg.sol:Pledg","label":"borrower","offset":1,"slot":"4","type":"t_address"},{"astId":1839,"contract":"contracts/core/Pledg.sol:Pledg","label":"collateralToken","offset":0,"slot":"5","type":"t_address"},{"astId":1841,"contract":"contracts/core/Pledg.sol:Pledg","label":"collateralAmount","offset":0,"slot":"6","type":"t_uint256"},{"astId":1843,"contract":"contracts/core/Pledg.sol:Pledg","label":"collateralValueInINR","offset":0,"slot":"7","type":"t_uint256"},{"astId":1845,"contract":"contracts/core/Pledg.sol:Pledg","label":"nextDueDate","offset":0,"slot":"8","type":"t_uint256"},{"astId":1847,"contract":"contracts/core/Pledg.sol:Pledg","label":"totalPaid","offset":0,"slot":"9","type":"t_uint256"},{"astId":1849,"contract":"contracts/core/Pledg.sol:Pledg","label":"installmentsPaid","offset":0,"slot":"10","type":"t_uint256"},{"astId":1851,"contract":"contracts/core/Pledg.sol:Pledg","label":"totalInstallments","offset":0,"slot":"11","type":"t_uint256"},{"astId":1853,"contract":"contracts/core/Pledg.sol:Pledg","label":"installmentAmount","offset":0,"slot":"12","type":"t_uint256"},{"astId":1855,"contract":"contracts/core/Pledg.sol:Pledg","label":"createdAt","offset":0,"slot":"13","type":"t_uint256"},{"astId":1857,"contract":"contracts/core/Pledg.sol:Pledg","label":"fundedAt","offset":0,"slot":"14","type":"t_uint256"},{"astId":1859,"contract":"contracts/core/Pledg.sol:Pledg","label":"completedAt","offset":0,"slot":"15","type":"t_uint256"},{"astId":1863,"contract":"contracts/core/Pledg.sol:Pledg","label":"liquidations","offset":0,"slot":"16","type":"t_array(t_struct(LiquidationEvent)1815_storage)dyn_storage"}],"numberOfBytes":"544"},"t_struct(PaymentEvent)1873_storage":{"encoding":"inplace","label":"struct Pledg.PaymentEvent","members":[{"astId":1866,"contract":"contracts/core/Pledg.sol:Pledg","label":"loanId","offset":0,"slot":"0","type":"t_uint256"},{"astId":1868,"contract":"contracts/core/Pledg.sol:Pledg","label":"timestamp","offset":0,"slot":"1","type":"t_uint256"},{"astId":1870,"contract":"contracts/core/Pledg.sol:Pledg","label":"amount","offset":0,"slot":"2","type":"t_uint256"},{"astId":1872,"contract":"contracts/core/Pledg.sol:Pledg","label":"installmentNumber","offset":0,"slot":"3","type":"t_uint256"}],"numberOfBytes":"128"},"t_struct(PendingLiquidation)1824_storage":{"encoding":"inplace","label":"struct Pledg.PendingLiquidation","members":[{"astId":1817,"contract":"contracts/core/Pledg.sol:Pledg","label":"loanId","offset":0,"slot":"0","type":"t_uint256"},{"astId":1819,"contract":"contracts/core/Pledg.sol:Pledg","label":"collateralAmount","offset":0,"slot":"1","type":"t_uint256"},{"astId":1821,"contract":"contracts/core/Pledg.sol:Pledg","label":"timestamp","offset":0,"slot":"2","type":"t_uint256"},{"astId":1823,"contract":"contracts/core/Pledg.sol:Pledg","label":"exists","offset":0,"slot":"3","type":"t_bool"}],"numberOfBytes":"128"},"t_uint256":{"encoding":"inplace","label":"uint256","numberOfBytes":"32"}}}}}}