{"contracts/oracles/PriceOracle.sol":{"PriceOracle":{"abi":[{"inputs":[],"stateMutability":"nonpayable","type":"constructor"},{"inputs":[],"name":"USD_INR_RATE","outputs":[{"internalType":"uint256","name":"","type":"uint256"}],"stateMutability":"view","type":"function"},{"inputs":[{"internalType":"address","name":"token","type":"address"},{"internalType":"uint256","name":"amount","type":"uint256"}],"name":"getTokenPriceInINR","outputs":[{"internalType":"uint256","name":"","type":"uint256"}],"stateMutability":"view","type":"function"},{"inputs":[{"internalType":"address","name":"","type":"address"}],"name":"tokenConfigs","outputs":[{"internalType":"enum PriceOracle.OracleProvider","name":"provider","type":"uint8"},{"internalType":"address","name":"feedAddress","type":"address"},{"internalType":"uint256","name":"fallbackPrice","type":"uint256"}],"stateMutability":"view","type":"function"}],"evm":{"bytecode":{"linkReferences":{},"object":"6080346100e757606081016001600160401b038111828210176100d1576040526000908181526020810173694aa1769357215de4fac081bf1f309adc32530681526040820190680579a814e10a7400008252732ef1c802355c500a3493f2db8cb9c24af12c42b08452836020526040842092519060028210156100bd5783549051610100600160a81b0360089190911b1660ff929092166001600160a81b031990911617178255516001909101555060405161058f90816100ed8239f35b634e487b7160e01b85526021600452602485fd5b634e487b7160e01b600052604160045260246000fd5b600080fdfe60806040818152600436101561001457600080fd5b600091823560e01c9081631b69dc5f14610098575080635ea514fc146100755763e1d824eb1461004357600080fd5b3461007157806003193601126100715760209061006a61006161010a565b6024359061015d565b9051908152f35b5080fd5b503461007157816003193601126100715760209051680486cb9799191e00008152f35b91905034610106576020366003190112610106576001600160a01b0390816100be61010a565b16845283602052808420918254600160ff82169401549360028110156100f25760609650855260081c166020840152820152f35b634e487b7160e01b87526021600452602487fd5b8280fd5b600435906001600160a01b038216820361012057565b600080fd5b90601f8019910116810190811067ffffffffffffffff82111761014757604052565b634e487b7160e01b600052604160045260246000fd5b60018060a01b03806000921682526020908282526040908184208251906060820182811067ffffffffffffffff82111761050557845280549260ff84169360028510156104f1579060019185855260081c1691828785015201549284830193845215806104e8575b610353575051600281101561033f5760011480610335575b6102a25750831561026a57505068a2a15d09519be00000918083029283048103610256577102f20cdc716a8cfb18629d9f16e00000000002918083046804a2f799d7b7290000149015171561024257506ec097ce7bc90715b34b9f1000000000900490565b634e487b7160e01b81526011600452602490fd5b634e487b7160e01b82526011600452602482fd5b60649250519062461bcd60e51b8252600482015260126024820152710416d6f756e74206d757374206265203e20360741b6044820152fd5b51929392919082156102f257831561026a575050906102c091610530565b906804a2f799d7b72900009182810292818404149015171561024257506ec097ce7bc90715b34b9f1000000000900490565b60649250519062461bcd60e51b82526004820152601a60248201527f46616c6c6261636b207072696365206d757374206265203e20300000000000006044820152fd5b50805115156101dd565b634e487b7160e01b85526021600452602485fd5b8351633fabe5a360e21b815293966004969590949350915060a0838781845afa9283156104de57908692918694610487575b50819088519384809263313ce56760e01b82525afa96871561047e57508496610444575b5050670de0b6b3a764000094858202918083048714901517156104315760ff16604d811161043157600a0a90811561041e57916103e891869304610530565b0491680486cb9799191e00009283810293818504149015171561040b5750500490565b634e487b7160e01b825260119052602490fd5b634e487b7160e01b845260128552602484fd5b634e487b7160e01b845260118552602484fd5b9080929650813d8311610477575b61045c8183610125565b81010312610106575160ff81168103610106579338806103a9565b503d610452565b513d86823e3d90fd5b919250925060a0813d82116104d6575b816104a460a09383610125565b810103126104d2579080826104b98894610519565b506104ca6080838301519201610519565b509390610385565b8480fd5b3d9150610497565b87513d87823e3d90fd5b508015156101c5565b634e487b7160e01b88526021600452602488fd5b634e487b7160e01b87526041600452602487fd5b519069ffffffffffffffffffff8216820361012057565b8181029291811591840414171561054357565b634e487b7160e01b600052601160045260246000fdfea26469706673582212207a0d4a83bafe65b7af66e58bcba5b9e7bcb513052fc72e393de17fc4dfa16d8864736f6c63430008140033","opcodes":"PUSH1 0x80 CALLVALUE PUSH2 0xE7 JUMPI PUSH1 0x60 DUP2 ADD PUSH1 0x1 PUSH1 0x1 PUSH1 0x40 SHL SUB DUP2 GT DUP3 DUP3 LT OR PUSH2 0xD1 JUMPI PUSH1 0x40 MSTORE PUSH1 0x0 SWAP1 DUP2 DUP2 MSTORE PUSH1 0x20 DUP2 ADD PUSH20 0x694AA1769357215DE4FAC081BF1F309ADC325306 DUP2 MSTORE PUSH1 0x40 DUP3 ADD SWAP1 PUSH9 0x579A814E10A740000 DUP3 MSTORE PUSH20 0x2EF1C802355C500A3493F2DB8CB9C24AF12C42B0 DUP5 MSTORE DUP4 PUSH1 0x20 MSTORE PUSH1 0x40 DUP5 KECCAK256 SWAP3 MLOAD SWAP1 PUSH1 0x2 DUP3 LT ISZERO PUSH2 0xBD JUMPI DUP4 SLOAD SWAP1 MLOAD PUSH2 0x100 PUSH1 0x1 PUSH1 0xA8 SHL SUB PUSH1 0x8 SWAP2 SWAP1 SWAP2 SHL AND PUSH1 0xFF SWAP3 SWAP1 SWAP3 AND PUSH1 0x1 PUSH1 0x1 PUSH1 0xA8 SHL SUB NOT SWAP1 SWAP2 AND OR OR DUP3 SSTORE MLOAD PUSH1 0x1 SWAP1 SWAP2 ADD SSTORE POP PUSH1 0x40 MLOAD PUSH2 0x58F SWAP1 DUP2 PUSH2 0xED DUP3 CODECOPY RETURN JUMPDEST PUSH4 0x4E487B71 PUSH1 0xE0 SHL DUP6 MSTORE PUSH1 0x21 PUSH1 0x4 MSTORE PUSH1 0x24 DUP6 REVERT JUMPDEST PUSH4 0x4E487B71 PUSH1 0xE0 SHL PUSH1 0x0 MSTORE PUSH1 0x41 PUSH1 0x4 MSTORE PUSH1 0x24 PUSH1 0x0 REVERT JUMPDEST PUSH1 0x0 DUP1 REVERT INVALID PUSH1 0x80 PUSH1 0x40 DUP2 DUP2 MSTORE PUSH1 0x4 CALLDATASIZE LT ISZERO PUSH2 0x14 JUMPI PUSH1 0x0 DUP1 REVERT JUMPDEST PUSH1 0x0 SWAP2 DUP3 CALLDATALOAD PUSH1 0xE0 SHR SWAP1 DUP2 PUSH4 0x1B69DC5F EQ PUSH2 0x98 JUMPI POP DUP1 PUSH4 0x5EA514FC EQ PUSH2 0x75 JUMPI PUSH4 0xE1D824EB EQ PUSH2 0x43 JUMPI PUSH1 0x0 DUP1 REVERT JUMPDEST CALLVALUE PUSH2 0x71 JUMPI DUP1 PUSH1 0x3 NOT CALLDATASIZE ADD SLT PUSH2 0x71 JUMPI PUSH1 0x20 SWAP1 PUSH2 0x6A PUSH2 0x61 PUSH2 0x10A JUMP JUMPDEST PUSH1 0x24 CALLDATALOAD SWAP1 PUSH2 0x15D JUMP JUMPDEST SWAP1 MLOAD SWAP1 DUP2 MSTORE RETURN JUMPDEST POP DUP1 REVERT JUMPDEST POP CALLVALUE PUSH2 0x71 JUMPI DUP2 PUSH1 0x3 NOT CALLDATASIZE ADD SLT PUSH2 0x71 JUMPI PUSH1 0x20 SWAP1 MLOAD PUSH9 0x486CB9799191E0000 DUP2 MSTORE RETURN JUMPDEST SWAP2 SWAP1 POP CALLVALUE PUSH2 0x106 JUMPI PUSH1 0x20 CALLDATASIZE PUSH1 0x3 NOT ADD SLT PUSH2 0x106 JUMPI PUSH1 0x1 PUSH1 0x1 PUSH1 0xA0 SHL SUB SWAP1 DUP2 PUSH2 0xBE PUSH2 0x10A JUMP JUMPDEST AND DUP5 MSTORE DUP4 PUSH1 0x20 MSTORE DUP1 DUP5 KECCAK256 SWAP2 DUP3 SLOAD PUSH1 0x1 PUSH1 0xFF DUP3 AND SWAP5 ADD SLOAD SWAP4 PUSH1 0x2 DUP2 LT ISZERO PUSH2 0xF2 JUMPI PUSH1 0x60 SWAP7 POP DUP6 MSTORE PUSH1 0x8 SHR AND PUSH1 0x20 DUP5 ADD MSTORE DUP3 ADD MSTORE RETURN JUMPDEST PUSH4 0x4E487B71 PUSH1 0xE0 SHL DUP8 MSTORE PUSH1 0x21 PUSH1 0x4 MSTORE PUSH1 0x24 DUP8 REVERT JUMPDEST DUP3 DUP1 REVERT JUMPDEST PUSH1 0x4 CALLDATALOAD SWAP1 PUSH1 0x1 PUSH1 0x1 PUSH1 0xA0 SHL SUB DUP3 AND DUP3 SUB PUSH2 0x120 JUMPI JUMP JUMPDEST PUSH1 0x0 DUP1 REVERT JUMPDEST SWAP1 PUSH1 0x1F DUP1 NOT SWAP2 ADD AND DUP2 ADD SWAP1 DUP2 LT PUSH8 0xFFFFFFFFFFFFFFFF DUP3 GT OR PUSH2 0x147 JUMPI PUSH1 0x40 MSTORE JUMP JUMPDEST PUSH4 0x4E487B71 PUSH1 0xE0 SHL PUSH1 0x0 MSTORE PUSH1 0x41 PUSH1 0x4 MSTORE PUSH1 0x24 PUSH1 0x0 REVERT JUMPDEST PUSH1 0x1 DUP1 PUSH1 0xA0 SHL SUB DUP1 PUSH1 0x0 SWAP3 AND DUP3 MSTORE PUSH1 0x20 SWAP1 DUP3 DUP3 MSTORE PUSH1 0x40 SWAP1 DUP2 DUP5 KECCAK256 DUP3 MLOAD SWAP1 PUSH1 0x60 DUP3 ADD DUP3 DUP2 LT PUSH8 0xFFFFFFFFFFFFFFFF DUP3 GT OR PUSH2 0x505 JUMPI DUP5 MSTORE DUP1 SLOAD SWAP3 PUSH1 0xFF DUP5 AND SWAP4 PUSH1 0x2 DUP6 LT ISZERO PUSH2 0x4F1 JUMPI SWAP1 PUSH1 0x1 SWAP2 DUP6 DUP6 MSTORE PUSH1 0x8 SHR AND SWAP2 DUP3 DUP8 DUP6 ADD MSTORE ADD SLOAD SWAP3 DUP5 DUP4 ADD SWAP4 DUP5 MSTORE ISZERO DUP1 PUSH2 0x4E8 JUMPI JUMPDEST PUSH2 0x353 JUMPI POP MLOAD PUSH1 0x2 DUP2 LT ISZERO PUSH2 0x33F JUMPI PUSH1 0x1 EQ DUP1 PUSH2 0x335 JUMPI JUMPDEST PUSH2 0x2A2 JUMPI POP DUP4 ISZERO PUSH2 0x26A JUMPI POP POP PUSH9 0xA2A15D09519BE00000 SWAP2 DUP1 DUP4 MUL SWAP3 DUP4 DIV DUP2 SUB PUSH2 0x256 JUMPI PUSH18 0x2F20CDC716A8CFB18629D9F16E000000000 MUL SWAP2 DUP1 DUP4 DIV PUSH9 0x4A2F799D7B7290000 EQ SWAP1 ISZERO OR ISZERO PUSH2 0x242 JUMPI POP PUSH15 0xC097CE7BC90715B34B9F1000000000 SWAP1 DIV SWAP1 JUMP JUMPDEST PUSH4 0x4E487B71 PUSH1 0xE0 SHL DUP2 MSTORE PUSH1 0x11 PUSH1 0x4 MSTORE PUSH1 0x24 SWAP1 REVERT JUMPDEST PUSH4 0x4E487B71 PUSH1 0xE0 SHL DUP3 MSTORE PUSH1 0x11 PUSH1 0x4 MSTORE PUSH1 0x24 DUP3 REVERT JUMPDEST PUSH1 0x64 SWAP3 POP MLOAD SWAP1 PUSH3 0x461BCD PUSH1 0xE5 SHL DUP3 MSTORE PUSH1 0x4 DUP3 ADD MSTORE PUSH1 0x12 PUSH1 0x24 DUP3 ADD MSTORE PUSH18 0x416D6F756E74206D757374206265203E203 PUSH1 0x74 SHL PUSH1 0x44 DUP3 ADD MSTORE REVERT JUMPDEST MLOAD SWAP3 SWAP4 SWAP3 SWAP2 SWAP1 DUP3 ISZERO PUSH2 0x2F2 JUMPI DUP4 ISZERO PUSH2 0x26A JUMPI POP POP SWAP1 PUSH2 0x2C0 SWAP2 PUSH2 0x530 JUMP JUMPDEST SWAP1 PUSH9 0x4A2F799D7B7290000 SWAP2 DUP3 DUP2 MUL SWAP3 DUP2 DUP5 DIV EQ SWAP1 ISZERO OR ISZERO PUSH2 0x242 JUMPI POP PUSH15 0xC097CE7BC90715B34B9F1000000000 SWAP1 DIV SWAP1 JUMP JUMPDEST PUSH1 0x64 SWAP3 POP MLOAD SWAP1 PUSH3 0x461BCD PUSH1 0xE5 SHL DUP3 MSTORE PUSH1 0x4 DUP3 ADD MSTORE PUSH1 0x1A PUSH1 0x24 DUP3 ADD MSTORE PUSH32 0x46616C6C6261636B207072696365206D757374206265203E2030000000000000 PUSH1 0x44 DUP3 ADD MSTORE REVERT JUMPDEST POP DUP1 MLOAD ISZERO ISZERO PUSH2 0x1DD JUMP JUMPDEST PUSH4 0x4E487B71 PUSH1 0xE0 SHL DUP6 MSTORE PUSH1 0x21 PUSH1 0x4 MSTORE PUSH1 0x24 DUP6 REVERT JUMPDEST DUP4 MLOAD PUSH4 0x3FABE5A3 PUSH1 0xE2 SHL DUP2 MSTORE SWAP4 SWAP7 PUSH1 0x4 SWAP7 SWAP6 SWAP1 SWAP5 SWAP4 POP SWAP2 POP PUSH1 0xA0 DUP4 DUP8 DUP2 DUP5 GAS STATICCALL SWAP3 DUP4 ISZERO PUSH2 0x4DE JUMPI SWAP1 DUP7 SWAP3 SWAP2 DUP7 SWAP5 PUSH2 0x487 JUMPI JUMPDEST POP DUP2 SWAP1 DUP9 MLOAD SWAP4 DUP5 DUP1 SWAP3 PUSH4 0x313CE567 PUSH1 0xE0 SHL DUP3 MSTORE GAS STATICCALL SWAP7 DUP8 ISZERO PUSH2 0x47E JUMPI POP DUP5 SWAP7 PUSH2 0x444 JUMPI JUMPDEST POP POP PUSH8 0xDE0B6B3A7640000 SWAP5 DUP6 DUP3 MUL SWAP2 DUP1 DUP4 DIV DUP8 EQ SWAP1 ISZERO OR ISZERO PUSH2 0x431 JUMPI PUSH1 0xFF AND PUSH1 0x4D DUP2 GT PUSH2 0x431 JUMPI PUSH1 0xA EXP SWAP1 DUP2 ISZERO PUSH2 0x41E JUMPI SWAP2 PUSH2 0x3E8 SWAP2 DUP7 SWAP4 DIV PUSH2 0x530 JUMP JUMPDEST DIV SWAP2 PUSH9 0x486CB9799191E0000 SWAP3 DUP4 DUP2 MUL SWAP4 DUP2 DUP6 DIV EQ SWAP1 ISZERO OR ISZERO PUSH2 0x40B JUMPI POP POP DIV SWAP1 JUMP JUMPDEST PUSH4 0x4E487B71 PUSH1 0xE0 SHL DUP3 MSTORE PUSH1 0x11 SWAP1 MSTORE PUSH1 0x24 SWAP1 REVERT JUMPDEST PUSH4 0x4E487B71 PUSH1 0xE0 SHL DUP5 MSTORE PUSH1 0x12 DUP6 MSTORE PUSH1 0x24 DUP5 REVERT JUMPDEST PUSH4 0x4E487B71 PUSH1 0xE0 SHL DUP5 MSTORE PUSH1 0x11 DUP6 MSTORE PUSH1 0x24 DUP5 REVERT JUMPDEST SWAP1 DUP1 SWAP3 SWAP7 POP DUP2 RETURNDATASIZE DUP4 GT PUSH2 0x477 JUMPI JUMPDEST PUSH2 0x45C DUP2 DUP4 PUSH2 0x125 JUMP JUMPDEST DUP2 ADD SUB SLT PUSH2 0x106 JUMPI MLOAD PUSH1 0xFF DUP2 AND DUP2 SUB PUSH2 0x106 JUMPI SWAP4 CODESIZE DUP1 PUSH2 0x3A9 JUMP JUMPDEST POP RETURNDATASIZE PUSH2 0x452 JUMP JUMPDEST MLOAD RETURNDATASIZE DUP7 DUP3 RETURNDATACOPY RETURNDATASIZE SWAP1 REVERT JUMPDEST SWAP2 SWAP3 POP SWAP3 POP PUSH1 0xA0 DUP2 RETURNDATASIZE DUP3 GT PUSH2 0x4D6 JUMPI JUMPDEST DUP2 PUSH2 0x4A4 PUSH1 0xA0 SWAP4 DUP4 PUSH2 0x125 JUMP JUMPDEST DUP2 ADD SUB SLT PUSH2 0x4D2 JUMPI SWAP1 DUP1 DUP3 PUSH2 0x4B9 DUP9 SWAP5 PUSH2 0x519 JUMP JUMPDEST POP PUSH2 0x4CA PUSH1 0x80 DUP4 DUP4 ADD MLOAD SWAP3 ADD PUSH2 0x519 JUMP JUMPDEST POP SWAP4 SWAP1 PUSH2 0x385 JUMP JUMPDEST DUP5 DUP1 REVERT JUMPDEST RETURNDATASIZE SWAP2 POP PUSH2 0x497 JUMP JUMPDEST DUP8 MLOAD RETURNDATASIZE DUP8 DUP3 RETURNDATACOPY RETURNDATASIZE SWAP1 REVERT JUMPDEST POP DUP1 ISZERO ISZERO PUSH2 0x1C5 JUMP JUMPDEST PUSH4 0x4E487B71 PUSH1 0xE0 SHL DUP9 MSTORE PUSH1 0x21 PUSH1 0x4 MSTORE PUSH1 0x24 DUP9 REVERT JUMPDEST PUSH4 0x4E487B71 PUSH1 0xE0 SHL DUP8 MSTORE PUSH1 0x41 PUSH1 0x4 MSTORE PUSH1 0x24 DUP8 REVERT JUMPDEST MLOAD SWAP1 PUSH10 0xFFFFFFFFFFFFFFFFFFFF DUP3 AND DUP3 SUB PUSH2 0x120 JUMPI JUMP JUMPDEST DUP2 DUP2 MUL SWAP3 SWAP2 DUP2 ISZERO SWAP2 DUP5 DIV EQ OR ISZERO PUSH2 0x543 JUMPI JUMP JUMPDEST PUSH4 0x4E487B71 PUSH1 0xE0 SHL PUSH1 0x0 MSTORE PUSH1 0x11 PUSH1 0x4 MSTORE PUSH1 0x24 PUSH1 0x0 REVERT INVALID LOG2 PUSH5 0x6970667358 0x22 SLT KECCAK256 PUSH27 0xD4A83BAFE65B7AF66E58BCBA5B9E7BCB513052FC72E393DE17FC4 0xDF LOG1 PUSH14 0x8864736F6C634300081400330000 "},"methodIdentifiers":{"USD_INR_RATE()":"5ea514fc","getTokenPriceInINR(address,uint256)":"e1d824eb","tokenConfigs(address)":"1b69dc5f"}},"storageLayout":{"storage":[{"astId":4422,"contract":"contracts/oracles/PriceOracle.sol:PriceOracle","label":"tokenConfigs","offset":0,"slot":"0","type":"t_mapping(t_address,t_struct(TokenConfig)4417_storage)"}],"types":{"t_address":{"encoding":"inplace","label":"address","numberOfBytes":"20"},"t_enum(OracleProvider)4409":{"encoding":"inplace","label":"enum PriceOracle.OracleProvider","numberOfBytes":"1"},"t_mapping(t_address,t_struct(TokenConfig)4417_storage)":{"encoding":"mapping","key":"t_address","label":"mapping(address => struct PriceOracle.TokenConfig)","numberOfBytes":"32","value":"t_struct(TokenConfig)4417_storage"},"t_struct(TokenConfig)4417_storage":{"encoding":"inplace","label":"struct PriceOracle.TokenConfig","members":[{"astId":4412,"contract":"contracts/oracles/PriceOracle.sol:PriceOracle","label":"provider","offset":0,"slot":"0","type":"t_enum(OracleProvider)4409"},{"astId":4414,"contract":"contracts/oracles/PriceOracle.sol:PriceOracle","label":"feedAddress","offset":1,"slot":"0","type":"t_address"},{"astId":4416,"contract":"contracts/oracles/PriceOracle.sol:PriceOracle","label":"fallbackPrice","offset":0,"slot":"1","type":"t_uint256"}],"numberOfBytes":"64"},"t_uint256":{"encoding":"inplace","label":"uint256","numberOfBytes":"32"}}}}}}